{
  "contractName": "Bids",
  "abi": [
    {
      "inputs": [
        {
          "internalType": "uint256",
          "name": "",
          "type": "uint256"
        }
      ],
      "name": "highestBidForAuction",
      "outputs": [
        {
          "internalType": "uint256",
          "name": "",
          "type": "uint256"
        }
      ],
      "stateMutability": "view",
      "type": "function"
    },
    {
      "inputs": [
        {
          "internalType": "uint256",
          "name": "",
          "type": "uint256"
        }
      ],
      "name": "highestBidderForAuction",
      "outputs": [
        {
          "internalType": "address",
          "name": "",
          "type": "address"
        }
      ],
      "stateMutability": "view",
      "type": "function"
    },
    {
      "inputs": [
        {
          "internalType": "uint256",
          "name": "auctionId",
          "type": "uint256"
        }
      ],
      "name": "setBid",
      "outputs": [],
      "stateMutability": "payable",
      "type": "function"
    },
    {
      "inputs": [],
      "name": "finishAuction",
      "outputs": [],
      "stateMutability": "payable",
      "type": "function"
    }
  ],
  "bytecode": "0x608060405234801561001057600080fd5b506103f9806100206000396000f3fe60806040526004361061003f5760003560e01c8063430ca46f146100445780639b4559c51461004e578063b076b0811461008b578063cef55b9a146100c8575b600080fd5b61004c6100e4565b005b34801561005a57600080fd5b5061007560048036038101906100709190610250565b6100e6565b60405161008291906102ba565b60405180910390f35b34801561009757600080fd5b506100b260048036038101906100ad9190610250565b610119565b6040516100bf91906102f5565b60405180910390f35b6100e260048036038101906100dd9190610250565b610131565b005b565b60036020528060005260406000206000915054906101000a900473ffffffffffffffffffffffffffffffffffffffff1681565b60026020528060005260406000206000915090505481565b60026000828152602001908152602001600020543411610186576040517f08c379a000000000000000000000000000000000000000000000000000000000815260040161017d906102d5565b60405180910390fd5b346002600083815260200190815260200160002081905550336003600083815260200190815260200160002060006101000a81548173ffffffffffffffffffffffffffffffffffffffff021916908373ffffffffffffffffffffffffffffffffffffffff1602179055503460008190555033600160006101000a81548173ffffffffffffffffffffffffffffffffffffffff021916908373ffffffffffffffffffffffffffffffffffffffff16021790555050565b60008135905061024a816103ac565b92915050565b60006020828403121561026257600080fd5b60006102708482850161023b565b91505092915050565b61028281610321565b82525050565b6000610295602e83610310565b91506102a08261035d565b604082019050919050565b6102b481610353565b82525050565b60006020820190506102cf6000830184610279565b92915050565b600060208201905081810360008301526102ee81610288565b9050919050565b600060208201905061030a60008301846102ab565b92915050565b600082825260208201905092915050565b600061032c82610333565b9050919050565b600073ffffffffffffffffffffffffffffffffffffffff82169050919050565b6000819050919050565b7f426964206d757374206265206d6f7265207468616e207468652070726576696f60008201527f75732068696768657374206f6e65000000000000000000000000000000000000602082015250565b6103b581610353565b81146103c057600080fd5b5056fea26469706673582212205426a283541ca09463d18c25ccfd89dbc33ba0d232cd8f8f4664467d5e710bfc64736f6c63430008040033",
  "immutableReferences": {},
  "source": "// SPDX-License-Identifier: GPL-3.0\r\n\r\npragma solidity ^0.8.4;\r\n\r\ncontract Bids {\r\n    uint256 higherBid;\r\n    address lastHigherBidder;\r\n\r\n    mapping(uint256 => uint256) public highestBidForAuction;\r\n    mapping(uint256 => address) public highestBidderForAuction;\r\n\r\n    function setBid(uint256 auctionId) public payable {\r\n        require(msg.value > highestBidForAuction[auctionId], \"Bid must be more than the previous highest one\");\r\n        highestBidForAuction[auctionId] = msg.value;\r\n        highestBidderForAuction[auctionId] = msg.sender;\r\n\r\n        // set bid\r\n        higherBid = msg.value;\r\n        lastHigherBidder = msg.sender;\r\n        // send money to last bid\r\n    }\r\n\r\n    function finishAuction() public payable {\r\n        // send nft to higher bid\r\n        // send money to seller\r\n        // send royalties to creator\r\n        // send comission to owner -- us\r\n    }\r\n}\r\n",
  "sourcePath": "E:\\Dev\\2022-4-25-pulsechain-nft\\nft-front-grey\\src\\contracts\\BID.sol",
  "compiler": {
    "name": "solc",
    "version": "0.8.4+commit.c7e474f2.Emscripten.clang"
  },
  "schemaVersion": "3.4.4",
  "updatedAt": "2022-06-29T11:27:08.538Z",
  "devdoc": {
    "kind": "dev",
    "methods": {},
    "version": 1
  },
  "userdoc": {
    "kind": "user",
    "methods": {},
    "version": 1
  }
}