{
  "contractName": "Escrow",
  "abi": [
    {
      "inputs": [],
      "stateMutability": "nonpayable",
      "type": "constructor"
    },
    {
      "inputs": [],
      "name": "deposit",
      "outputs": [],
      "stateMutability": "payable",
      "type": "function"
    },
    {
      "inputs": [],
      "name": "withdraw",
      "outputs": [],
      "stateMutability": "nonpayable",
      "type": "function"
    },
    {
      "inputs": [],
      "name": "getBalance",
      "outputs": [
        {
          "internalType": "uint256",
          "name": "",
          "type": "uint256"
        }
      ],
      "stateMutability": "view",
      "type": "function"
    }
  ],
  "bytecode": "0x608060405234801561001057600080fd5b50336000806101000a81548173ffffffffffffffffffffffffffffffffffffffff021916908373ffffffffffffffffffffffffffffffffffffffff160217905550610265806100606000396000f3fe6080604052600436106100345760003560e01c806312065fe0146100395780633ccfd60b14610064578063d0e30db01461007b575b600080fd5b34801561004557600080fd5b5061004e610085565b60405161005b9190610185565b60405180910390f35b34801561007057600080fd5b5061007961008f565b005b61008361015a565b005b6000600154905090565b60008054906101000a900473ffffffffffffffffffffffffffffffffffffffff1673ffffffffffffffffffffffffffffffffffffffff163373ffffffffffffffffffffffffffffffffffffffff16146100e757600080fd5b60008054906101000a900473ffffffffffffffffffffffffffffffffffffffff1673ffffffffffffffffffffffffffffffffffffffff166108fc6001549081150290604051600060405180830381858888f1935050505015801561014f573d6000803e3d6000fd5b506000600181905550565b60003490508060015461016d91906101a0565b60018190555050565b61017f816101f6565b82525050565b600060208201905061019a6000830184610176565b92915050565b60006101ab826101f6565b91506101b6836101f6565b9250827fffffffffffffffffffffffffffffffffffffffffffffffffffffffffffffffff038211156101eb576101ea610200565b5b828201905092915050565b6000819050919050565b7f4e487b7100000000000000000000000000000000000000000000000000000000600052601160045260246000fdfea2646970667358221220c7784ef95c7e1aa209262f30c2baadb0c3661bf52bf839a081b4d0dfa061b9e664736f6c63430008040033",
  "immutableReferences": {},
  "source": "// SPDX-License-Identifier: MIT\r\npragma solidity ^0.8.4;\r\n\r\ncontract Escrow {\r\n    address owner;\r\n    uint256 balance;\r\n\r\n    // mapping (address=)\r\n\r\n    constructor() {\r\n        owner = payable(msg.sender);\r\n    }\r\n\r\n    modifier onlyOwner() {\r\n        require(msg.sender == owner);\r\n        _;\r\n    }\r\n\r\n    function deposit() public payable {\r\n        uint256 amount = msg.value;\r\n        balance = balance + amount;\r\n    }\r\n\r\n    // function claimMyNft() {}\r\n\r\n\r\n    function withdraw() public onlyOwner {\r\n        payable(owner).transfer(balance);\r\n        balance = 0;\r\n    }\r\n\r\n    function getBalance() public view returns (uint256) {\r\n        return balance;\r\n    }\r\n\r\n    // [[\"0xAb8483F64d9C6d1EcF9b849Ae677dD3315835cb2\",\"3000000000000000000\"],[\"0x4B20993Bc481177ec7E8f571ceCaE8A9e22C02db\",\"3000000000000000000\"],[\"0x78731D3Ca6b7E34aC0F824c42a7cC18A495cabaB\",\"3000000000000000000\"]]\r\n}\r\n",
  "sourcePath": "E:\\Dev\\2022-4-25-pulsechain-nft\\nft-front-grey\\src\\contracts\\Escrow.sol",
  "compiler": {
    "name": "solc",
    "version": "0.8.4+commit.c7e474f2.Emscripten.clang"
  },
  "schemaVersion": "3.4.4",
  "updatedAt": "2022-06-29T11:27:08.542Z",
  "devdoc": {
    "kind": "dev",
    "methods": {},
    "version": 1
  },
  "userdoc": {
    "kind": "user",
    "methods": {},
    "version": 1
  }
}