{
  "contractName": "NFT",
  "abi": [
    {
      "inputs": [
        {
          "internalType": "address",
          "name": "marketplaceAddress",
          "type": "address"
        }
      ],
      "stateMutability": "nonpayable",
      "type": "constructor"
    },
    {
      "anonymous": false,
      "inputs": [
        {
          "indexed": true,
          "internalType": "address",
          "name": "account",
          "type": "address"
        },
        {
          "indexed": true,
          "internalType": "address",
          "name": "operator",
          "type": "address"
        },
        {
          "indexed": false,
          "internalType": "bool",
          "name": "approved",
          "type": "bool"
        }
      ],
      "name": "ApprovalForAll",
      "type": "event"
    },
    {
      "anonymous": false,
      "inputs": [
        {
          "indexed": false,
          "internalType": "uint256",
          "name": "newItemId",
          "type": "uint256"
        },
        {
          "indexed": false,
          "internalType": "string",
          "name": "tokenURI",
          "type": "string"
        },
        {
          "indexed": false,
          "internalType": "uint256",
          "name": "amount",
          "type": "uint256"
        },
        {
          "indexed": false,
          "internalType": "uint256",
          "name": "royalty",
          "type": "uint256"
        },
        {
          "indexed": false,
          "internalType": "address",
          "name": "creator",
          "type": "address"
        },
        {
          "indexed": false,
          "internalType": "uint256",
          "name": "startPrice",
          "type": "uint256"
        },
        {
          "indexed": false,
          "internalType": "uint256",
          "name": "deadline",
          "type": "uint256"
        },
        {
          "components": [
            {
              "internalType": "string",
              "name": "name",
              "type": "string"
            },
            {
              "internalType": "string",
              "name": "description",
              "type": "string"
            },
            {
              "internalType": "string",
              "name": "imageUrl",
              "type": "string"
            },
            {
              "internalType": "string",
              "name": "previewImageUrl",
              "type": "string"
            },
            {
              "components": [
                {
                  "internalType": "string",
                  "name": "display_type",
                  "type": "string"
                },
                {
                  "internalType": "string",
                  "name": "trait_type",
                  "type": "string"
                },
                {
                  "internalType": "string",
                  "name": "value",
                  "type": "string"
                }
              ],
              "internalType": "struct NFTMarket.Attribute[]",
              "name": "attributes",
              "type": "tuple[]"
            },
            {
              "internalType": "bool",
              "name": "multiple",
              "type": "bool"
            },
            {
              "internalType": "string",
              "name": "collectionId",
              "type": "string"
            },
            {
              "internalType": "string",
              "name": "category",
              "type": "string"
            }
          ],
          "indexed": false,
          "internalType": "struct NFTMarket.FrontData",
          "name": "frontData",
          "type": "tuple"
        }
      ],
      "name": "Mint",
      "type": "event"
    },
    {
      "anonymous": false,
      "inputs": [
        {
          "indexed": true,
          "internalType": "address",
          "name": "operator",
          "type": "address"
        },
        {
          "indexed": true,
          "internalType": "address",
          "name": "from",
          "type": "address"
        },
        {
          "indexed": true,
          "internalType": "address",
          "name": "to",
          "type": "address"
        },
        {
          "indexed": false,
          "internalType": "uint256[]",
          "name": "ids",
          "type": "uint256[]"
        },
        {
          "indexed": false,
          "internalType": "uint256[]",
          "name": "values",
          "type": "uint256[]"
        }
      ],
      "name": "TransferBatch",
      "type": "event"
    },
    {
      "anonymous": false,
      "inputs": [
        {
          "indexed": true,
          "internalType": "address",
          "name": "operator",
          "type": "address"
        },
        {
          "indexed": true,
          "internalType": "address",
          "name": "from",
          "type": "address"
        },
        {
          "indexed": true,
          "internalType": "address",
          "name": "to",
          "type": "address"
        },
        {
          "indexed": false,
          "internalType": "uint256",
          "name": "id",
          "type": "uint256"
        },
        {
          "indexed": false,
          "internalType": "uint256",
          "name": "value",
          "type": "uint256"
        }
      ],
      "name": "TransferSingle",
      "type": "event"
    },
    {
      "anonymous": false,
      "inputs": [
        {
          "indexed": false,
          "internalType": "string",
          "name": "value",
          "type": "string"
        },
        {
          "indexed": true,
          "internalType": "uint256",
          "name": "id",
          "type": "uint256"
        }
      ],
      "name": "URI",
      "type": "event"
    },
    {
      "inputs": [],
      "name": "_tokensIds",
      "outputs": [
        {
          "internalType": "uint256",
          "name": "_value",
          "type": "uint256"
        }
      ],
      "stateMutability": "view",
      "type": "function",
      "constant": true
    },
    {
      "inputs": [
        {
          "internalType": "address",
          "name": "account",
          "type": "address"
        },
        {
          "internalType": "uint256",
          "name": "id",
          "type": "uint256"
        }
      ],
      "name": "balanceOf",
      "outputs": [
        {
          "internalType": "uint256",
          "name": "",
          "type": "uint256"
        }
      ],
      "stateMutability": "view",
      "type": "function",
      "constant": true
    },
    {
      "inputs": [
        {
          "internalType": "address[]",
          "name": "accounts",
          "type": "address[]"
        },
        {
          "internalType": "uint256[]",
          "name": "ids",
          "type": "uint256[]"
        }
      ],
      "name": "balanceOfBatch",
      "outputs": [
        {
          "internalType": "uint256[]",
          "name": "",
          "type": "uint256[]"
        }
      ],
      "stateMutability": "view",
      "type": "function",
      "constant": true
    },
    {
      "inputs": [
        {
          "internalType": "address",
          "name": "account",
          "type": "address"
        },
        {
          "internalType": "address",
          "name": "operator",
          "type": "address"
        }
      ],
      "name": "isApprovedForAll",
      "outputs": [
        {
          "internalType": "bool",
          "name": "",
          "type": "bool"
        }
      ],
      "stateMutability": "view",
      "type": "function",
      "constant": true
    },
    {
      "inputs": [],
      "name": "name",
      "outputs": [
        {
          "internalType": "string",
          "name": "",
          "type": "string"
        }
      ],
      "stateMutability": "view",
      "type": "function",
      "constant": true
    },
    {
      "inputs": [
        {
          "internalType": "address",
          "name": "from",
          "type": "address"
        },
        {
          "internalType": "address",
          "name": "to",
          "type": "address"
        },
        {
          "internalType": "uint256[]",
          "name": "ids",
          "type": "uint256[]"
        },
        {
          "internalType": "uint256[]",
          "name": "amounts",
          "type": "uint256[]"
        },
        {
          "internalType": "bytes",
          "name": "data",
          "type": "bytes"
        }
      ],
      "name": "safeBatchTransferFrom",
      "outputs": [],
      "stateMutability": "nonpayable",
      "type": "function"
    },
    {
      "inputs": [
        {
          "internalType": "address",
          "name": "from",
          "type": "address"
        },
        {
          "internalType": "address",
          "name": "to",
          "type": "address"
        },
        {
          "internalType": "uint256",
          "name": "id",
          "type": "uint256"
        },
        {
          "internalType": "uint256",
          "name": "amount",
          "type": "uint256"
        },
        {
          "internalType": "bytes",
          "name": "data",
          "type": "bytes"
        }
      ],
      "name": "safeTransferFrom",
      "outputs": [],
      "stateMutability": "nonpayable",
      "type": "function"
    },
    {
      "inputs": [
        {
          "internalType": "address",
          "name": "operator",
          "type": "address"
        },
        {
          "internalType": "bool",
          "name": "approved",
          "type": "bool"
        }
      ],
      "name": "setApprovalForAll",
      "outputs": [],
      "stateMutability": "nonpayable",
      "type": "function"
    },
    {
      "inputs": [
        {
          "internalType": "bytes4",
          "name": "interfaceId",
          "type": "bytes4"
        }
      ],
      "name": "supportsInterface",
      "outputs": [
        {
          "internalType": "bool",
          "name": "",
          "type": "bool"
        }
      ],
      "stateMutability": "view",
      "type": "function",
      "constant": true
    },
    {
      "inputs": [],
      "name": "symbol",
      "outputs": [
        {
          "internalType": "string",
          "name": "",
          "type": "string"
        }
      ],
      "stateMutability": "view",
      "type": "function",
      "constant": true
    },
    {
      "inputs": [
        {
          "internalType": "uint256",
          "name": "",
          "type": "uint256"
        }
      ],
      "name": "uri",
      "outputs": [
        {
          "internalType": "string",
          "name": "",
          "type": "string"
        }
      ],
      "stateMutability": "view",
      "type": "function",
      "constant": true
    },
    {
      "inputs": [
        {
          "internalType": "string",
          "name": "tokenURI",
          "type": "string"
        },
        {
          "internalType": "uint256",
          "name": "amount",
          "type": "uint256"
        },
        {
          "internalType": "uint256",
          "name": "royalty",
          "type": "uint256"
        },
        {
          "internalType": "uint256",
          "name": "startPrice",
          "type": "uint256"
        },
        {
          "internalType": "uint256",
          "name": "deadline",
          "type": "uint256"
        },
        {
          "components": [
            {
              "internalType": "string",
              "name": "name",
              "type": "string"
            },
            {
              "internalType": "string",
              "name": "description",
              "type": "string"
            },
            {
              "internalType": "string",
              "name": "imageUrl",
              "type": "string"
            },
            {
              "internalType": "string",
              "name": "previewImageUrl",
              "type": "string"
            },
            {
              "components": [
                {
                  "internalType": "string",
                  "name": "display_type",
                  "type": "string"
                },
                {
                  "internalType": "string",
                  "name": "trait_type",
                  "type": "string"
                },
                {
                  "internalType": "string",
                  "name": "value",
                  "type": "string"
                }
              ],
              "internalType": "struct NFTMarket.Attribute[]",
              "name": "attributes",
              "type": "tuple[]"
            },
            {
              "internalType": "bool",
              "name": "multiple",
              "type": "bool"
            },
            {
              "internalType": "string",
              "name": "collectionId",
              "type": "string"
            },
            {
              "internalType": "string",
              "name": "category",
              "type": "string"
            }
          ],
          "internalType": "struct NFTMarket.FrontData",
          "name": "frontData",
          "type": "tuple"
        }
      ],
      "name": "createToken",
      "outputs": [
        {
          "internalType": "uint256",
          "name": "",
          "type": "uint256"
        }
      ],
      "stateMutability": "nonpayable",
      "type": "function"
    }
  ],
  "bytecode": "0x60806040526040518060400160405280600a81526020017f486f77546f50756c736500000000000000000000000000000000000000000000815250600590805190602001906200005192919062000159565b506040518060400160405280600381526020017f4854500000000000000000000000000000000000000000000000000000000000815250600690805190602001906200009f92919062000159565b50348015620000ad57600080fd5b506040516200380c3803806200380c8339818101604052810190620000d3919062000220565b60405180602001604052806000815250620000f4816200013d60201b60201c565b5080600460006101000a81548173ffffffffffffffffffffffffffffffffffffffff021916908373ffffffffffffffffffffffffffffffffffffffff16021790555050620002ff565b80600290805190602001906200015592919062000159565b5050565b828054620001679062000280565b90600052602060002090601f0160209004810192826200018b5760008555620001d7565b82601f10620001a657805160ff1916838001178555620001d7565b82800160010185558215620001d7579182015b82811115620001d6578251825591602001919060010190620001b9565b5b509050620001e69190620001ea565b5090565b5b8082111562000205576000816000905550600101620001eb565b5090565b6000815190506200021a81620002e5565b92915050565b6000602082840312156200023357600080fd5b6000620002438482850162000209565b91505092915050565b6000620002598262000260565b9050919050565b600073ffffffffffffffffffffffffffffffffffffffff82169050919050565b600060028204905060018216806200029957607f821691505b60208210811415620002b057620002af620002b6565b5b50919050565b7f4e487b7100000000000000000000000000000000000000000000000000000000600052602260045260246000fd5b620002f0816200024c565b8114620002fc57600080fd5b50565b6134fd806200030f6000396000f3fe608060405234801561001057600080fd5b50600436106100b35760003560e01c80634e1273f4116100715780634e1273f4146101a0578063890e0353146101d057806395d89b4114610200578063a22cb4651461021e578063e985e9c51461023a578063f242432a1461026a576100b3565b8062fdd58e146100b857806301ffc9a7146100e857806306fdde03146101185780630e89341c146101365780632eb2c2d61461016657806342b1c6af14610182575b600080fd5b6100d260048036038101906100cd91906121ce565b610286565b6040516100df9190612b55565b60405180910390f35b61010260048036038101906100fd9190612276565b61034f565b60405161010f91906129b8565b60405180910390f35b610120610431565b60405161012d91906129d3565b60405180910390f35b610150600480360381019061014b9190612381565b6104bf565b60405161015d91906129d3565b60405180910390f35b610180600480360381019061017b9190612044565b610553565b005b61018a6105f4565b6040516101979190612b55565b60405180910390f35b6101ba60048036038101906101b5919061220a565b610600565b6040516101c7919061295f565b60405180910390f35b6101ea60048036038101906101e591906122c8565b6107b1565b6040516101f79190612b55565b60405180910390f35b610208610928565b60405161021591906129d3565b60405180910390f35b61023860048036038101906102339190612192565b6109b6565b005b610254600480360381019061024f9190612008565b6109cc565b60405161026191906129b8565b60405180910390f35b610284600480360381019061027f9190612103565b610a60565b005b60008073ffffffffffffffffffffffffffffffffffffffff168373ffffffffffffffffffffffffffffffffffffffff1614156102f7576040517f08c379a00000000000000000000000000000000000000000000000000000000081526004016102ee90612a35565b60405180910390fd5b60008083815260200190815260200160002060008473ffffffffffffffffffffffffffffffffffffffff1673ffffffffffffffffffffffffffffffffffffffff16815260200190815260200160002054905092915050565b60007fd9b67a26000000000000000000000000000000000000000000000000000000007bffffffffffffffffffffffffffffffffffffffffffffffffffffffff1916827bffffffffffffffffffffffffffffffffffffffffffffffffffffffff1916148061041a57507f0e89341c000000000000000000000000000000000000000000000000000000007bffffffffffffffffffffffffffffffffffffffffffffffffffffffff1916827bffffffffffffffffffffffffffffffffffffffffffffffffffffffff1916145b8061042a575061042982610b01565b5b9050919050565b6005805461043e90612ef7565b80601f016020809104026020016040519081016040528092919081815260200182805461046a90612ef7565b80156104b75780601f1061048c576101008083540402835291602001916104b7565b820191906000526020600020905b81548152906001019060200180831161049a57829003601f168201915b505050505081565b6060600280546104ce90612ef7565b80601f01602080910402602001604051908101604052809291908181526020018280546104fa90612ef7565b80156105475780601f1061051c57610100808354040283529160200191610547565b820191906000526020600020905b81548152906001019060200180831161052a57829003601f168201915b50505050509050919050565b61055b610b6b565b73ffffffffffffffffffffffffffffffffffffffff168573ffffffffffffffffffffffffffffffffffffffff1614806105a157506105a08561059b610b6b565b6109cc565b5b6105e0576040517f08c379a00000000000000000000000000000000000000000000000000000000081526004016105d790612a95565b60405180910390fd5b6105ed8585858585610b73565b5050505050565b60038060000154905081565b60608151835114610646576040517f08c379a000000000000000000000000000000000000000000000000000000000815260040161063d90612af5565b60405180910390fd5b6000835167ffffffffffffffff811115610689577f4e487b7100000000000000000000000000000000000000000000000000000000600052604160045260246000fd5b6040519080825280602002602001820160405280156106b75781602001602082028036833780820191505090505b50905060005b84518110156107a657610750858281518110610702577f4e487b7100000000000000000000000000000000000000000000000000000000600052603260045260246000fd5b6020026020010151858381518110610743577f4e487b7100000000000000000000000000000000000000000000000000000000600052603260045260246000fd5b6020026020010151610286565b828281518110610789577f4e487b7100000000000000000000000000000000000000000000000000000000600052603260045260246000fd5b6020026020010181815250508061079f90612f5a565b90506106bd565b508091505092915050565b60006107bd6003610ee1565b60006107c96003610ef7565b905061080c3382896040518060400160405280600481526020017f3030783000000000000000000000000000000000000000000000000000000000815250610f05565b610815886110b6565b610842600460009054906101000a900473ffffffffffffffffffffffffffffffffffffffff1660016109b6565b600460009054906101000a900473ffffffffffffffffffffffffffffffffffffffff1673ffffffffffffffffffffffffffffffffffffffff16636b5f18473083338a6040518563ffffffff1660e01b81526004016108a3949392919061291a565b600060405180830381600087803b1580156108bd57600080fd5b505af11580156108d1573d6000803e3d6000fd5b505050507f22b5258ba991523f45c77b4ee5eba197c0b83621374584dbf429e55cd5e1417b81898989338a8a8a604051610912989796959493929190612b70565b60405180910390a1809150509695505050505050565b6006805461093590612ef7565b80601f016020809104026020016040519081016040528092919081815260200182805461096190612ef7565b80156109ae5780601f10610983576101008083540402835291602001916109ae565b820191906000526020600020905b81548152906001019060200180831161099157829003601f168201915b505050505081565b6109c86109c1610b6b565b83836110d0565b5050565b6000600160008473ffffffffffffffffffffffffffffffffffffffff1673ffffffffffffffffffffffffffffffffffffffff16815260200190815260200160002060008373ffffffffffffffffffffffffffffffffffffffff1673ffffffffffffffffffffffffffffffffffffffff16815260200190815260200160002060009054906101000a900460ff16905092915050565b610a68610b6b565b73ffffffffffffffffffffffffffffffffffffffff168573ffffffffffffffffffffffffffffffffffffffff161480610aae5750610aad85610aa8610b6b565b6109cc565b5b610aed576040517f08c379a0000000000000000000000000000000000000000000000000000000008152600401610ae490612a55565b60405180910390fd5b610afa858585858561123d565b5050505050565b60007f01ffc9a7000000000000000000000000000000000000000000000000000000007bffffffffffffffffffffffffffffffffffffffffffffffffffffffff1916827bffffffffffffffffffffffffffffffffffffffffffffffffffffffff1916149050919050565b600033905090565b8151835114610bb7576040517f08c379a0000000000000000000000000000000000000000000000000000000008152600401610bae90612b15565b60405180910390fd5b600073ffffffffffffffffffffffffffffffffffffffff168473ffffffffffffffffffffffffffffffffffffffff161415610c27576040517f08c379a0000000000000000000000000000000000000000000000000000000008152600401610c1e90612a75565b60405180910390fd5b6000610c31610b6b565b9050610c418187878787876114d9565b60005b8451811015610e3e576000858281518110610c88577f4e487b7100000000000000000000000000000000000000000000000000000000600052603260045260246000fd5b602002602001015190506000858381518110610ccd577f4e487b7100000000000000000000000000000000000000000000000000000000600052603260045260246000fd5b60200260200101519050600080600084815260200190815260200160002060008b73ffffffffffffffffffffffffffffffffffffffff1673ffffffffffffffffffffffffffffffffffffffff16815260200190815260200160002054905081811015610d6e576040517f08c379a0000000000000000000000000000000000000000000000000000000008152600401610d6590612ab5565b60405180910390fd5b81810360008085815260200190815260200160002060008c73ffffffffffffffffffffffffffffffffffffffff1673ffffffffffffffffffffffffffffffffffffffff168152602001908152602001600020819055508160008085815260200190815260200160002060008b73ffffffffffffffffffffffffffffffffffffffff1673ffffffffffffffffffffffffffffffffffffffff1681526020019081526020016000206000828254610e239190612deb565b9250508190555050505080610e3790612f5a565b9050610c44565b508473ffffffffffffffffffffffffffffffffffffffff168673ffffffffffffffffffffffffffffffffffffffff168273ffffffffffffffffffffffffffffffffffffffff167f4a39dc06d4c0dbc64b70af90fd698a233a518aa5d07e595d983b8c0526c8f7fb8787604051610eb5929190612981565b60405180910390a4610ecb818787878787611573565b610ed981878787878761157b565b505050505050565b6001816000016000828254019250508190555050565b600081600001549050919050565b600073ffffffffffffffffffffffffffffffffffffffff168473ffffffffffffffffffffffffffffffffffffffff161415610f75576040517f08c379a0000000000000000000000000000000000000000000000000000000008152600401610f6c90612b35565b60405180910390fd5b6000610f7f610b6b565b90506000610f8c85611762565b90506000610f9985611762565b9050610faa836000898585896114d9565b8460008088815260200190815260200160002060008973ffffffffffffffffffffffffffffffffffffffff1673ffffffffffffffffffffffffffffffffffffffff16815260200190815260200160002060008282546110099190612deb565b925050819055508673ffffffffffffffffffffffffffffffffffffffff16600073ffffffffffffffffffffffffffffffffffffffff168473ffffffffffffffffffffffffffffffffffffffff167fc3d58168c5ae7397731d063d5bbf3d657854427343f4c083240f7aacaa2d0f628989604051611087929190612bfc565b60405180910390a461109e83600089858589611573565b6110ad83600089898989611828565b50505050505050565b80600290805190602001906110cc929190611a3a565b5050565b8173ffffffffffffffffffffffffffffffffffffffff168373ffffffffffffffffffffffffffffffffffffffff16141561113f576040517f08c379a000000000000000000000000000000000000000000000000000000000815260040161113690612ad5565b60405180910390fd5b80600160008573ffffffffffffffffffffffffffffffffffffffff1673ffffffffffffffffffffffffffffffffffffffff16815260200190815260200160002060008473ffffffffffffffffffffffffffffffffffffffff1673ffffffffffffffffffffffffffffffffffffffff16815260200190815260200160002060006101000a81548160ff0219169083151502179055508173ffffffffffffffffffffffffffffffffffffffff168373ffffffffffffffffffffffffffffffffffffffff167f17307eab39ab6107e8899845ad3d59bd9653f200f220920489ca2b5937696c318360405161123091906129b8565b60405180910390a3505050565b600073ffffffffffffffffffffffffffffffffffffffff168473ffffffffffffffffffffffffffffffffffffffff1614156112ad576040517f08c379a00000000000000000000000000000000000000000000000000000000081526004016112a490612a75565b60405180910390fd5b60006112b7610b6b565b905060006112c485611762565b905060006112d185611762565b90506112e18389898585896114d9565b600080600088815260200190815260200160002060008a73ffffffffffffffffffffffffffffffffffffffff1673ffffffffffffffffffffffffffffffffffffffff16815260200190815260200160002054905085811015611378576040517f08c379a000000000000000000000000000000000000000000000000000000000815260040161136f90612ab5565b60405180910390fd5b85810360008089815260200190815260200160002060008b73ffffffffffffffffffffffffffffffffffffffff1673ffffffffffffffffffffffffffffffffffffffff168152602001908152602001600020819055508560008089815260200190815260200160002060008a73ffffffffffffffffffffffffffffffffffffffff1673ffffffffffffffffffffffffffffffffffffffff168152602001908152602001600020600082825461142d9190612deb565b925050819055508773ffffffffffffffffffffffffffffffffffffffff168973ffffffffffffffffffffffffffffffffffffffff168573ffffffffffffffffffffffffffffffffffffffff167fc3d58168c5ae7397731d063d5bbf3d657854427343f4c083240f7aacaa2d0f628a8a6040516114aa929190612bfc565b60405180910390a46114c0848a8a86868a611573565b6114ce848a8a8a8a8a611828565b505050505050505050565b6114e7868686868686611a0f565b8373ffffffffffffffffffffffffffffffffffffffff16600460009054906101000a900473ffffffffffffffffffffffffffffffffffffffff1673ffffffffffffffffffffffffffffffffffffffff161461156b5761156a84600460009054906101000a900473ffffffffffffffffffffffffffffffffffffffff1660016110d0565b5b505050505050565b505050505050565b61159a8473ffffffffffffffffffffffffffffffffffffffff16611a17565b1561175a578373ffffffffffffffffffffffffffffffffffffffff1663bc197c8187878686866040518663ffffffff1660e01b81526004016115e0959493929190612858565b602060405180830381600087803b1580156115fa57600080fd5b505af192505050801561162b57506040513d601f19601f82011682018060405250810190611628919061229f565b60015b6116d157611637613030565b806308c379a01415611694575061164c6133d5565b806116575750611696565b806040517f08c379a000000000000000000000000000000000000000000000000000000000815260040161168b91906129d3565b60405180910390fd5b505b6040517f08c379a00000000000000000000000000000000000000000000000000000000081526004016116c8906129f5565b60405180910390fd5b63bc197c8160e01b7bffffffffffffffffffffffffffffffffffffffffffffffffffffffff1916817bffffffffffffffffffffffffffffffffffffffffffffffffffffffff191614611758576040517f08c379a000000000000000000000000000000000000000000000000000000000815260040161174f90612a15565b60405180910390fd5b505b505050505050565b60606000600167ffffffffffffffff8111156117a7577f4e487b7100000000000000000000000000000000000000000000000000000000600052604160045260246000fd5b6040519080825280602002602001820160405280156117d55781602001602082028036833780820191505090505b5090508281600081518110611813577f4e487b7100000000000000000000000000000000000000000000000000000000600052603260045260246000fd5b60200260200101818152505080915050919050565b6118478473ffffffffffffffffffffffffffffffffffffffff16611a17565b15611a07578373ffffffffffffffffffffffffffffffffffffffff1663f23a6e6187878686866040518663ffffffff1660e01b815260040161188d9594939291906128c0565b602060405180830381600087803b1580156118a757600080fd5b505af19250505080156118d857506040513d601f19601f820116820180604052508101906118d5919061229f565b60015b61197e576118e4613030565b806308c379a0141561194157506118f96133d5565b806119045750611943565b806040517f08c379a000000000000000000000000000000000000000000000000000000000815260040161193891906129d3565b60405180910390fd5b505b6040517f08c379a0000000000000000000000000000000000000000000000000000000008152600401611975906129f5565b60405180910390fd5b63f23a6e6160e01b7bffffffffffffffffffffffffffffffffffffffffffffffffffffffff1916817bffffffffffffffffffffffffffffffffffffffffffffffffffffffff191614611a05576040517f08c379a00000000000000000000000000000000000000000000000000000000081526004016119fc90612a15565b60405180910390fd5b505b505050505050565b505050505050565b6000808273ffffffffffffffffffffffffffffffffffffffff163b119050919050565b828054611a4690612ef7565b90600052602060002090601f016020900481019282611a685760008555611aaf565b82601f10611a8157805160ff1916838001178555611aaf565b82800160010185558215611aaf579182015b82811115611aae578251825591602001919060010190611a93565b5b509050611abc9190611ac0565b5090565b5b80821115611ad9576000816000905550600101611ac1565b5090565b6000611af0611aeb84612c4a565b612c25565b90508083825260208201905082856020860282011115611b0f57600080fd5b60005b85811015611b3f5781611b258882611cb7565b845260208401935060208301925050600181019050611b12565b5050509392505050565b6000611b5c611b5784612c76565b612c25565b90508083825260208201905082856020860282011115611b7b57600080fd5b60005b85811015611bc557813567ffffffffffffffff811115611b9d57600080fd5b808601611baa8982611ddd565b85526020850194506020840193505050600181019050611b7e565b5050509392505050565b6000611be2611bdd84612ca2565b612c25565b90508083825260208201905082856020860282011115611c0157600080fd5b60005b85811015611c315781611c178882611ff3565b845260208401935060208301925050600181019050611c04565b5050509392505050565b6000611c4e611c4984612cce565b612c25565b905082815260208101848484011115611c6657600080fd5b611c71848285612eb5565b509392505050565b6000611c8c611c8784612cff565b612c25565b905082815260208101848484011115611ca457600080fd5b611caf848285612eb5565b509392505050565b600081359050611cc68161346b565b92915050565b600082601f830112611cdd57600080fd5b8135611ced848260208601611add565b91505092915050565b600082601f830112611d0757600080fd5b8135611d17848260208601611b49565b91505092915050565b600082601f830112611d3157600080fd5b8135611d41848260208601611bcf565b91505092915050565b600081359050611d5981613482565b92915050565b600081359050611d6e81613499565b92915050565b600081519050611d8381613499565b92915050565b600082601f830112611d9a57600080fd5b8135611daa848260208601611c3b565b91505092915050565b600082601f830112611dc457600080fd5b8135611dd4848260208601611c79565b91505092915050565b600060608284031215611def57600080fd5b611df96060612c25565b9050600082013567ffffffffffffffff811115611e1557600080fd5b611e2184828501611db3565b600083015250602082013567ffffffffffffffff811115611e4157600080fd5b611e4d84828501611db3565b602083015250604082013567ffffffffffffffff811115611e6d57600080fd5b611e7984828501611db3565b60408301525092915050565b60006101008284031215611e9857600080fd5b611ea3610100612c25565b9050600082013567ffffffffffffffff811115611ebf57600080fd5b611ecb84828501611db3565b600083015250602082013567ffffffffffffffff811115611eeb57600080fd5b611ef784828501611db3565b602083015250604082013567ffffffffffffffff811115611f1757600080fd5b611f2384828501611db3565b604083015250606082013567ffffffffffffffff811115611f4357600080fd5b611f4f84828501611db3565b606083015250608082013567ffffffffffffffff811115611f6f57600080fd5b611f7b84828501611cf6565b60808301525060a0611f8f84828501611d4a565b60a08301525060c082013567ffffffffffffffff811115611faf57600080fd5b611fbb84828501611db3565b60c08301525060e082013567ffffffffffffffff811115611fdb57600080fd5b611fe784828501611db3565b60e08301525092915050565b600081359050612002816134b0565b92915050565b6000806040838503121561201b57600080fd5b600061202985828601611cb7565b925050602061203a85828601611cb7565b9150509250929050565b600080600080600060a0868803121561205c57600080fd5b600061206a88828901611cb7565b955050602061207b88828901611cb7565b945050604086013567ffffffffffffffff81111561209857600080fd5b6120a488828901611d20565b935050606086013567ffffffffffffffff8111156120c157600080fd5b6120cd88828901611d20565b925050608086013567ffffffffffffffff8111156120ea57600080fd5b6120f688828901611d89565b9150509295509295909350565b600080600080600060a0868803121561211b57600080fd5b600061212988828901611cb7565b955050602061213a88828901611cb7565b945050604061214b88828901611ff3565b935050606061215c88828901611ff3565b925050608086013567ffffffffffffffff81111561217957600080fd5b61218588828901611d89565b9150509295509295909350565b600080604083850312156121a557600080fd5b60006121b385828601611cb7565b92505060206121c485828601611d4a565b9150509250929050565b600080604083850312156121e157600080fd5b60006121ef85828601611cb7565b925050602061220085828601611ff3565b9150509250929050565b6000806040838503121561221d57600080fd5b600083013567ffffffffffffffff81111561223757600080fd5b61224385828601611ccc565b925050602083013567ffffffffffffffff81111561226057600080fd5b61226c85828601611d20565b9150509250929050565b60006020828403121561228857600080fd5b600061229684828501611d5f565b91505092915050565b6000602082840312156122b157600080fd5b60006122bf84828501611d74565b91505092915050565b60008060008060008060c087890312156122e157600080fd5b600087013567ffffffffffffffff8111156122fb57600080fd5b61230789828a01611db3565b965050602061231889828a01611ff3565b955050604061232989828a01611ff3565b945050606061233a89828a01611ff3565b935050608061234b89828a01611ff3565b92505060a087013567ffffffffffffffff81111561236857600080fd5b61237489828a01611e85565b9150509295509295509295565b60006020828403121561239357600080fd5b60006123a184828501611ff3565b91505092915050565b60006123b68383612702565b905092915050565b60006123ca838361283a565b60208301905092915050565b6123df81612e41565b82525050565b60006123f082612d50565b6123fa8185612d96565b93508360208202850161240c85612d30565b8060005b85811015612448578484038952815161242985826123aa565b945061243483612d7c565b925060208a01995050600181019050612410565b50829750879550505050505092915050565b600061246582612d5b565b61246f8185612da7565b935061247a83612d40565b8060005b838110156124ab57815161249288826123be565b975061249d83612d89565b92505060018101905061247e565b5085935050505092915050565b6124c181612e53565b82525050565b6124d081612e53565b82525050565b60006124e182612d66565b6124eb8185612db8565b93506124fb818560208601612ec4565b61250481613052565b840191505092915050565b600061251a82612d71565b6125248185612dc9565b9350612534818560208601612ec4565b61253d81613052565b840191505092915050565b600061255382612d71565b61255d8185612dda565b935061256d818560208601612ec4565b61257681613052565b840191505092915050565b600061258e603483612dda565b915061259982613070565b604082019050919050565b60006125b1602883612dda565b91506125bc826130bf565b604082019050919050565b60006125d4602b83612dda565b91506125df8261310e565b604082019050919050565b60006125f7602983612dda565b91506126028261315d565b604082019050919050565b600061261a602583612dda565b9150612625826131ac565b604082019050919050565b600061263d603283612dda565b9150612648826131fb565b604082019050919050565b6000612660602a83612dda565b915061266b8261324a565b604082019050919050565b6000612683602983612dda565b915061268e82613299565b604082019050919050565b60006126a6602983612dda565b91506126b1826132e8565b604082019050919050565b60006126c9602883612dda565b91506126d482613337565b604082019050919050565b60006126ec602183612dda565b91506126f782613386565b604082019050919050565b6000606083016000830151848203600086015261271f828261250f565b91505060208301518482036020860152612739828261250f565b91505060408301518482036040860152612753828261250f565b9150508091505092915050565b600061010083016000830151848203600086015261277e828261250f565b91505060208301518482036020860152612798828261250f565b915050604083015184820360408601526127b2828261250f565b915050606083015184820360608601526127cc828261250f565b915050608083015184820360808601526127e682826123e5565b91505060a08301516127fb60a08601826124b8565b5060c083015184820360c0860152612813828261250f565b91505060e083015184820360e086015261282d828261250f565b9150508091505092915050565b61284381612eab565b82525050565b61285281612eab565b82525050565b600060a08201905061286d60008301886123d6565b61287a60208301876123d6565b818103604083015261288c818661245a565b905081810360608301526128a0818561245a565b905081810360808301526128b481846124d6565b90509695505050505050565b600060a0820190506128d560008301886123d6565b6128e260208301876123d6565b6128ef6040830186612849565b6128fc6060830185612849565b818103608083015261290e81846124d6565b90509695505050505050565b600060808201905061292f60008301876123d6565b61293c6020830186612849565b61294960408301856123d6565b6129566060830184612849565b95945050505050565b60006020820190508181036000830152612979818461245a565b905092915050565b6000604082019050818103600083015261299b818561245a565b905081810360208301526129af818461245a565b90509392505050565b60006020820190506129cd60008301846124c7565b92915050565b600060208201905081810360008301526129ed8184612548565b905092915050565b60006020820190508181036000830152612a0e81612581565b9050919050565b60006020820190508181036000830152612a2e816125a4565b9050919050565b60006020820190508181036000830152612a4e816125c7565b9050919050565b60006020820190508181036000830152612a6e816125ea565b9050919050565b60006020820190508181036000830152612a8e8161260d565b9050919050565b60006020820190508181036000830152612aae81612630565b9050919050565b60006020820190508181036000830152612ace81612653565b9050919050565b60006020820190508181036000830152612aee81612676565b9050919050565b60006020820190508181036000830152612b0e81612699565b9050919050565b60006020820190508181036000830152612b2e816126bc565b9050919050565b60006020820190508181036000830152612b4e816126df565b9050919050565b6000602082019050612b6a6000830184612849565b92915050565b600061010082019050612b86600083018b612849565b8181036020830152612b98818a612548565b9050612ba76040830189612849565b612bb46060830188612849565b612bc160808301876123d6565b612bce60a0830186612849565b612bdb60c0830185612849565b81810360e0830152612bed8184612760565b90509998505050505050505050565b6000604082019050612c116000830185612849565b612c1e6020830184612849565b9392505050565b6000612c2f612c40565b9050612c3b8282612f29565b919050565b6000604051905090565b600067ffffffffffffffff821115612c6557612c64613001565b5b602082029050602081019050919050565b600067ffffffffffffffff821115612c9157612c90613001565b5b602082029050602081019050919050565b600067ffffffffffffffff821115612cbd57612cbc613001565b5b602082029050602081019050919050565b600067ffffffffffffffff821115612ce957612ce8613001565b5b612cf282613052565b9050602081019050919050565b600067ffffffffffffffff821115612d1a57612d19613001565b5b612d2382613052565b9050602081019050919050565b6000819050602082019050919050565b6000819050602082019050919050565b600081519050919050565b600081519050919050565b600081519050919050565b600081519050919050565b6000602082019050919050565b6000602082019050919050565b600082825260208201905092915050565b600082825260208201905092915050565b600082825260208201905092915050565b600082825260208201905092915050565b600082825260208201905092915050565b6000612df682612eab565b9150612e0183612eab565b9250827fffffffffffffffffffffffffffffffffffffffffffffffffffffffffffffffff03821115612e3657612e35612fa3565b5b828201905092915050565b6000612e4c82612e8b565b9050919050565b60008115159050919050565b60007fffffffff0000000000000000000000000000000000000000000000000000000082169050919050565b600073ffffffffffffffffffffffffffffffffffffffff82169050919050565b6000819050919050565b82818337600083830152505050565b60005b83811015612ee2578082015181840152602081019050612ec7565b83811115612ef1576000848401525b50505050565b60006002820490506001821680612f0f57607f821691505b60208210811415612f2357612f22612fd2565b5b50919050565b612f3282613052565b810181811067ffffffffffffffff82111715612f5157612f50613001565b5b80604052505050565b6000612f6582612eab565b91507fffffffffffffffffffffffffffffffffffffffffffffffffffffffffffffffff821415612f9857612f97612fa3565b5b600182019050919050565b7f4e487b7100000000000000000000000000000000000000000000000000000000600052601160045260246000fd5b7f4e487b7100000000000000000000000000000000000000000000000000000000600052602260045260246000fd5b7f4e487b7100000000000000000000000000000000000000000000000000000000600052604160045260246000fd5b600060033d111561304f5760046000803e61304c600051613063565b90505b90565b6000601f19601f8301169050919050565b60008160e01c9050919050565b7f455243313135353a207472616e7366657220746f206e6f6e204552433131353560008201527f526563656976657220696d706c656d656e746572000000000000000000000000602082015250565b7f455243313135353a204552433131353552656365697665722072656a6563746560008201527f6420746f6b656e73000000000000000000000000000000000000000000000000602082015250565b7f455243313135353a2062616c616e636520717565727920666f7220746865207a60008201527f65726f2061646472657373000000000000000000000000000000000000000000602082015250565b7f455243313135353a2063616c6c6572206973206e6f74206f776e6572206e6f7260008201527f20617070726f7665640000000000000000000000000000000000000000000000602082015250565b7f455243313135353a207472616e7366657220746f20746865207a65726f20616460008201527f6472657373000000000000000000000000000000000000000000000000000000602082015250565b7f455243313135353a207472616e736665722063616c6c6572206973206e6f742060008201527f6f776e6572206e6f7220617070726f7665640000000000000000000000000000602082015250565b7f455243313135353a20696e73756666696369656e742062616c616e636520666f60008201527f72207472616e7366657200000000000000000000000000000000000000000000602082015250565b7f455243313135353a2073657474696e6720617070726f76616c2073746174757360008201527f20666f722073656c660000000000000000000000000000000000000000000000602082015250565b7f455243313135353a206163636f756e747320616e6420696473206c656e67746860008201527f206d69736d617463680000000000000000000000000000000000000000000000602082015250565b7f455243313135353a2069647320616e6420616d6f756e7473206c656e6774682060008201527f6d69736d61746368000000000000000000000000000000000000000000000000602082015250565b7f455243313135353a206d696e7420746f20746865207a65726f2061646472657360008201527f7300000000000000000000000000000000000000000000000000000000000000602082015250565b600060443d10156133e557613468565b6133ed612c40565b60043d036004823e80513d602482011167ffffffffffffffff82111715613415575050613468565b808201805167ffffffffffffffff8111156134335750505050613468565b80602083010160043d038501811115613450575050505050613468565b61345f82602001850186612f29565b82955050505050505b90565b61347481612e41565b811461347f57600080fd5b50565b61348b81612e53565b811461349657600080fd5b50565b6134a281612e5f565b81146134ad57600080fd5b50565b6134b981612eab565b81146134c457600080fd5b5056fea2646970667358221220cfccc30284f05d94804d19b1dfaa2b9849b802817185c7b1481d960dd5b9b39064736f6c63430008040033",
  "immutableReferences": {},
  "source": "// SPDX-License-Identifier: MIT\r\npragma solidity ^0.8.4;\r\n\r\n// erc 721\r\n// import \"@openzeppelin/contracts/token/ERC721/ERC721.sol\";\r\nimport \"@openzeppelin/contracts/token/ERC1155/ERC1155.sol\";\r\nimport \"@openzeppelin/contracts/token/ERC1155/extensions/ERC1155Supply.sol\";\r\n// ERC721URIStorage (inherits from erc 721)\r\n// import \"@openzeppelin/contracts/token/ERC721/extensions/ERC721URIStorage.sol\";\r\n\r\n// utils\r\nimport \"@openzeppelin/contracts/utils/Counters.sol\";\r\nimport \"./INFTMarket.sol\";\r\nimport \"./NFTMarket.sol\";\r\n\r\ncontract NFT is ERC1155 {\r\n    using Counters for Counters.Counter;\r\n    Counters.Counter public _tokensIds; // for minting incrementing\r\n    address _marketplaceAddress; // market place address we gonna give ability to transact the tokens;\r\n    string public name = \"HowToPulse\";\r\n    string public symbol = \"HTP\";\r\n\r\n    constructor(address marketplaceAddress) ERC1155(\"\") {\r\n        _marketplaceAddress = marketplaceAddress;\r\n    }\r\n\r\n    event Mint(\r\n        uint256 newItemId,\r\n        string tokenURI,\r\n        uint256 amount,\r\n        uint256 royalty,\r\n        address creator,\r\n        uint256 startPrice,\r\n        uint256 deadline,\r\n        NFTMarket.FrontData frontData\r\n    );\r\n\r\n    function createToken(\r\n        string memory tokenURI,\r\n        uint256 amount,\r\n        uint256 royalty,\r\n        uint256 startPrice,\r\n        uint256 deadline,\r\n        NFTMarket.FrontData memory frontData \r\n    ) public returns (uint256) {\r\n        _tokensIds.increment();\r\n        uint256 newItemId = _tokensIds.current();\r\n        // minting\r\n        _mint(msg.sender, newItemId, amount, \"00x0\");\r\n        //\r\n        _setURI(tokenURI);\r\n        // give the marketplace approval to transcat this token between users\r\n        setApprovalForAll(_marketplaceAddress, true);\r\n\r\n        INFTMarket(_marketplaceAddress).initializeItem(\r\n            address(this),\r\n            newItemId,\r\n            msg.sender,\r\n            royalty\r\n            // frontData\r\n        );\r\n\r\n        emit Mint(\r\n            newItemId,\r\n            tokenURI,\r\n            amount,\r\n            royalty,\r\n            msg.sender,\r\n            startPrice,\r\n            deadline,\r\n            frontData\r\n        );\r\n        return newItemId;\r\n    }\r\n\r\n    // Whenever tokens are transferred, add the market contract allowance to handle the tokens\r\n    function _beforeTokenTransfer(\r\n        address operator,\r\n        address from,\r\n        address to,\r\n        uint256[] memory ids,\r\n        uint256[] memory amounts,\r\n        bytes memory data\r\n    ) internal virtual override {\r\n        super._beforeTokenTransfer(operator, from, to, ids, amounts, data);\r\n        if (_marketplaceAddress != to) {\r\n            // Allow marketplace to transfer tokens from the new owner\r\n            _setApprovalForAll(to, _marketplaceAddress, true);\r\n        }\r\n    }\r\n}\r\n",
  "sourcePath": "E:\\Dev\\2022-4-25-pulsechain-nft\\nft-front-grey\\src\\contracts\\NFT.sol",
  "compiler": {
    "name": "solc",
    "version": "0.8.4+commit.c7e474f2.Emscripten.clang"
  },
  "schemaVersion": "3.4.4",
  "updatedAt": "2022-06-29T11:28:45.120Z",
  "networkType": "ethereum",
  "devdoc": {
    "kind": "dev",
    "methods": {
      "balanceOf(address,uint256)": {
        "details": "See {IERC1155-balanceOf}. Requirements: - `account` cannot be the zero address."
      },
      "balanceOfBatch(address[],uint256[])": {
        "details": "See {IERC1155-balanceOfBatch}. Requirements: - `accounts` and `ids` must have the same length."
      },
      "isApprovedForAll(address,address)": {
        "details": "See {IERC1155-isApprovedForAll}."
      },
      "safeBatchTransferFrom(address,address,uint256[],uint256[],bytes)": {
        "details": "See {IERC1155-safeBatchTransferFrom}."
      },
      "safeTransferFrom(address,address,uint256,uint256,bytes)": {
        "details": "See {IERC1155-safeTransferFrom}."
      },
      "setApprovalForAll(address,bool)": {
        "details": "See {IERC1155-setApprovalForAll}."
      },
      "supportsInterface(bytes4)": {
        "details": "See {IERC165-supportsInterface}."
      },
      "uri(uint256)": {
        "details": "See {IERC1155MetadataURI-uri}. This implementation returns the same URI for *all* token types. It relies on the token type ID substitution mechanism https://eips.ethereum.org/EIPS/eip-1155#metadata[defined in the EIP]. Clients calling this function must replace the `\\{id\\}` substring with the actual token type ID."
      }
    },
    "version": 1
  },
  "userdoc": {
    "kind": "user",
    "methods": {},
    "version": 1
  }
}