{
  "contractName": "NFT",
  "abi": [
    {
      "inputs": [
        {
          "internalType": "address",
          "name": "marketplaceAddress",
          "type": "address"
        }
      ],
      "stateMutability": "nonpayable",
      "type": "constructor"
    },
    {
      "anonymous": false,
      "inputs": [
        {
          "indexed": true,
          "internalType": "address",
          "name": "account",
          "type": "address"
        },
        {
          "indexed": true,
          "internalType": "address",
          "name": "operator",
          "type": "address"
        },
        {
          "indexed": false,
          "internalType": "bool",
          "name": "approved",
          "type": "bool"
        }
      ],
      "name": "ApprovalForAll",
      "type": "event"
    },
    {
      "anonymous": false,
      "inputs": [
        {
          "indexed": false,
          "internalType": "uint256",
          "name": "newItemId",
          "type": "uint256"
        },
        {
          "indexed": false,
          "internalType": "string",
          "name": "tokenURI",
          "type": "string"
        },
        {
          "indexed": false,
          "internalType": "uint256",
          "name": "amount",
          "type": "uint256"
        },
        {
          "indexed": false,
          "internalType": "uint256",
          "name": "royalty",
          "type": "uint256"
        },
        {
          "indexed": false,
          "internalType": "address",
          "name": "creator",
          "type": "address"
        },
        {
          "indexed": false,
          "internalType": "uint256",
          "name": "startPrice",
          "type": "uint256"
        },
        {
          "indexed": false,
          "internalType": "uint256",
          "name": "deadline",
          "type": "uint256"
        },
        {
          "components": [
            {
              "internalType": "string",
              "name": "name",
              "type": "string"
            },
            {
              "internalType": "string",
              "name": "description",
              "type": "string"
            },
            {
              "internalType": "string",
              "name": "imageUrl",
              "type": "string"
            },
            {
              "components": [
                {
                  "internalType": "string",
                  "name": "display_type",
                  "type": "string"
                },
                {
                  "internalType": "string",
                  "name": "trait_type",
                  "type": "string"
                },
                {
                  "internalType": "string",
                  "name": "value",
                  "type": "string"
                }
              ],
              "internalType": "struct NFTMarket.Attribute[]",
              "name": "attributes",
              "type": "tuple[]"
            },
            {
              "internalType": "bool",
              "name": "multiple",
              "type": "bool"
            },
            {
              "internalType": "string",
              "name": "collectionId",
              "type": "string"
            },
            {
              "internalType": "string",
              "name": "category",
              "type": "string"
            }
          ],
          "indexed": false,
          "internalType": "struct NFTMarket.FrontData",
          "name": "frontData",
          "type": "tuple"
        }
      ],
      "name": "Mint",
      "type": "event"
    },
    {
      "anonymous": false,
      "inputs": [
        {
          "indexed": true,
          "internalType": "address",
          "name": "operator",
          "type": "address"
        },
        {
          "indexed": true,
          "internalType": "address",
          "name": "from",
          "type": "address"
        },
        {
          "indexed": true,
          "internalType": "address",
          "name": "to",
          "type": "address"
        },
        {
          "indexed": false,
          "internalType": "uint256[]",
          "name": "ids",
          "type": "uint256[]"
        },
        {
          "indexed": false,
          "internalType": "uint256[]",
          "name": "values",
          "type": "uint256[]"
        }
      ],
      "name": "TransferBatch",
      "type": "event"
    },
    {
      "anonymous": false,
      "inputs": [
        {
          "indexed": true,
          "internalType": "address",
          "name": "operator",
          "type": "address"
        },
        {
          "indexed": true,
          "internalType": "address",
          "name": "from",
          "type": "address"
        },
        {
          "indexed": true,
          "internalType": "address",
          "name": "to",
          "type": "address"
        },
        {
          "indexed": false,
          "internalType": "uint256",
          "name": "id",
          "type": "uint256"
        },
        {
          "indexed": false,
          "internalType": "uint256",
          "name": "value",
          "type": "uint256"
        }
      ],
      "name": "TransferSingle",
      "type": "event"
    },
    {
      "anonymous": false,
      "inputs": [
        {
          "indexed": false,
          "internalType": "string",
          "name": "value",
          "type": "string"
        },
        {
          "indexed": true,
          "internalType": "uint256",
          "name": "id",
          "type": "uint256"
        }
      ],
      "name": "URI",
      "type": "event"
    },
    {
      "inputs": [],
      "name": "_tokensIds",
      "outputs": [
        {
          "internalType": "uint256",
          "name": "_value",
          "type": "uint256"
        }
      ],
      "stateMutability": "view",
      "type": "function",
      "constant": true
    },
    {
      "inputs": [
        {
          "internalType": "address",
          "name": "account",
          "type": "address"
        },
        {
          "internalType": "uint256",
          "name": "id",
          "type": "uint256"
        }
      ],
      "name": "balanceOf",
      "outputs": [
        {
          "internalType": "uint256",
          "name": "",
          "type": "uint256"
        }
      ],
      "stateMutability": "view",
      "type": "function",
      "constant": true
    },
    {
      "inputs": [
        {
          "internalType": "address[]",
          "name": "accounts",
          "type": "address[]"
        },
        {
          "internalType": "uint256[]",
          "name": "ids",
          "type": "uint256[]"
        }
      ],
      "name": "balanceOfBatch",
      "outputs": [
        {
          "internalType": "uint256[]",
          "name": "",
          "type": "uint256[]"
        }
      ],
      "stateMutability": "view",
      "type": "function",
      "constant": true
    },
    {
      "inputs": [
        {
          "internalType": "address",
          "name": "account",
          "type": "address"
        },
        {
          "internalType": "address",
          "name": "operator",
          "type": "address"
        }
      ],
      "name": "isApprovedForAll",
      "outputs": [
        {
          "internalType": "bool",
          "name": "",
          "type": "bool"
        }
      ],
      "stateMutability": "view",
      "type": "function",
      "constant": true
    },
    {
      "inputs": [],
      "name": "name",
      "outputs": [
        {
          "internalType": "string",
          "name": "",
          "type": "string"
        }
      ],
      "stateMutability": "view",
      "type": "function",
      "constant": true
    },
    {
      "inputs": [
        {
          "internalType": "address",
          "name": "from",
          "type": "address"
        },
        {
          "internalType": "address",
          "name": "to",
          "type": "address"
        },
        {
          "internalType": "uint256[]",
          "name": "ids",
          "type": "uint256[]"
        },
        {
          "internalType": "uint256[]",
          "name": "amounts",
          "type": "uint256[]"
        },
        {
          "internalType": "bytes",
          "name": "data",
          "type": "bytes"
        }
      ],
      "name": "safeBatchTransferFrom",
      "outputs": [],
      "stateMutability": "nonpayable",
      "type": "function"
    },
    {
      "inputs": [
        {
          "internalType": "address",
          "name": "from",
          "type": "address"
        },
        {
          "internalType": "address",
          "name": "to",
          "type": "address"
        },
        {
          "internalType": "uint256",
          "name": "id",
          "type": "uint256"
        },
        {
          "internalType": "uint256",
          "name": "amount",
          "type": "uint256"
        },
        {
          "internalType": "bytes",
          "name": "data",
          "type": "bytes"
        }
      ],
      "name": "safeTransferFrom",
      "outputs": [],
      "stateMutability": "nonpayable",
      "type": "function"
    },
    {
      "inputs": [
        {
          "internalType": "address",
          "name": "operator",
          "type": "address"
        },
        {
          "internalType": "bool",
          "name": "approved",
          "type": "bool"
        }
      ],
      "name": "setApprovalForAll",
      "outputs": [],
      "stateMutability": "nonpayable",
      "type": "function"
    },
    {
      "inputs": [
        {
          "internalType": "bytes4",
          "name": "interfaceId",
          "type": "bytes4"
        }
      ],
      "name": "supportsInterface",
      "outputs": [
        {
          "internalType": "bool",
          "name": "",
          "type": "bool"
        }
      ],
      "stateMutability": "view",
      "type": "function",
      "constant": true
    },
    {
      "inputs": [],
      "name": "symbol",
      "outputs": [
        {
          "internalType": "string",
          "name": "",
          "type": "string"
        }
      ],
      "stateMutability": "view",
      "type": "function",
      "constant": true
    },
    {
      "inputs": [
        {
          "internalType": "uint256",
          "name": "",
          "type": "uint256"
        }
      ],
      "name": "uri",
      "outputs": [
        {
          "internalType": "string",
          "name": "",
          "type": "string"
        }
      ],
      "stateMutability": "view",
      "type": "function",
      "constant": true
    },
    {
      "inputs": [
        {
          "internalType": "string",
          "name": "tokenURI",
          "type": "string"
        },
        {
          "internalType": "uint256",
          "name": "amount",
          "type": "uint256"
        },
        {
          "internalType": "uint256",
          "name": "royalty",
          "type": "uint256"
        },
        {
          "internalType": "uint256",
          "name": "startPrice",
          "type": "uint256"
        },
        {
          "internalType": "uint256",
          "name": "deadline",
          "type": "uint256"
        },
        {
          "components": [
            {
              "internalType": "string",
              "name": "name",
              "type": "string"
            },
            {
              "internalType": "string",
              "name": "description",
              "type": "string"
            },
            {
              "internalType": "string",
              "name": "imageUrl",
              "type": "string"
            },
            {
              "components": [
                {
                  "internalType": "string",
                  "name": "display_type",
                  "type": "string"
                },
                {
                  "internalType": "string",
                  "name": "trait_type",
                  "type": "string"
                },
                {
                  "internalType": "string",
                  "name": "value",
                  "type": "string"
                }
              ],
              "internalType": "struct NFTMarket.Attribute[]",
              "name": "attributes",
              "type": "tuple[]"
            },
            {
              "internalType": "bool",
              "name": "multiple",
              "type": "bool"
            },
            {
              "internalType": "string",
              "name": "collectionId",
              "type": "string"
            },
            {
              "internalType": "string",
              "name": "category",
              "type": "string"
            }
          ],
          "internalType": "struct NFTMarket.FrontData",
          "name": "frontData",
          "type": "tuple"
        }
      ],
      "name": "createToken",
      "outputs": [
        {
          "internalType": "uint256",
          "name": "",
          "type": "uint256"
        }
      ],
      "stateMutability": "nonpayable",
      "type": "function"
    }
  ],
  "bytecode": "0x60806040526040518060400160405280600a81526020017f486f77546f50756c736500000000000000000000000000000000000000000000815250600590805190602001906200005192919062000159565b506040518060400160405280600381526020017f4854500000000000000000000000000000000000000000000000000000000000815250600690805190602001906200009f92919062000159565b50348015620000ad57600080fd5b50604051620037c3380380620037c38339818101604052810190620000d3919062000220565b60405180602001604052806000815250620000f4816200013d60201b60201c565b5080600460006101000a81548173ffffffffffffffffffffffffffffffffffffffff021916908373ffffffffffffffffffffffffffffffffffffffff16021790555050620002ff565b80600290805190602001906200015592919062000159565b5050565b828054620001679062000280565b90600052602060002090601f0160209004810192826200018b5760008555620001d7565b82601f10620001a657805160ff1916838001178555620001d7565b82800160010185558215620001d7579182015b82811115620001d6578251825591602001919060010190620001b9565b5b509050620001e69190620001ea565b5090565b5b8082111562000205576000816000905550600101620001eb565b5090565b6000815190506200021a81620002e5565b92915050565b6000602082840312156200023357600080fd5b6000620002438482850162000209565b91505092915050565b6000620002598262000260565b9050919050565b600073ffffffffffffffffffffffffffffffffffffffff82169050919050565b600060028204905060018216806200029957607f821691505b60208210811415620002b057620002af620002b6565b5b50919050565b7f4e487b7100000000000000000000000000000000000000000000000000000000600052602260045260246000fd5b620002f0816200024c565b8114620002fc57600080fd5b50565b6134b4806200030f6000396000f3fe608060405234801561001057600080fd5b50600436106100b35760003560e01c80634d302109116100715780634d302109146101a05780634e1273f4146101d057806395d89b4114610200578063a22cb4651461021e578063e985e9c51461023a578063f242432a1461026a576100b3565b8062fdd58e146100b857806301ffc9a7146100e857806306fdde03146101185780630e89341c146101365780632eb2c2d61461016657806342b1c6af14610182575b600080fd5b6100d260048036038101906100cd91906121a0565b610286565b6040516100df9190612b0c565b60405180910390f35b61010260048036038101906100fd9190612248565b61034f565b60405161010f919061296f565b60405180910390f35b610120610431565b60405161012d919061298a565b60405180910390f35b610150600480360381019061014b9190612353565b6104bf565b60405161015d919061298a565b60405180910390f35b610180600480360381019061017b9190612016565b610553565b005b61018a6105f4565b6040516101979190612b0c565b60405180910390f35b6101ba60048036038101906101b5919061229a565b610600565b6040516101c79190612b0c565b60405180910390f35b6101ea60048036038101906101e591906121dc565b610777565b6040516101f79190612916565b60405180910390f35b610208610928565b604051610215919061298a565b60405180910390f35b61023860048036038101906102339190612164565b6109b6565b005b610254600480360381019061024f9190611fda565b6109cc565b604051610261919061296f565b60405180910390f35b610284600480360381019061027f91906120d5565b610a60565b005b60008073ffffffffffffffffffffffffffffffffffffffff168373ffffffffffffffffffffffffffffffffffffffff1614156102f7576040517f08c379a00000000000000000000000000000000000000000000000000000000081526004016102ee906129ec565b60405180910390fd5b60008083815260200190815260200160002060008473ffffffffffffffffffffffffffffffffffffffff1673ffffffffffffffffffffffffffffffffffffffff16815260200190815260200160002054905092915050565b60007fd9b67a26000000000000000000000000000000000000000000000000000000007bffffffffffffffffffffffffffffffffffffffffffffffffffffffff1916827bffffffffffffffffffffffffffffffffffffffffffffffffffffffff1916148061041a57507f0e89341c000000000000000000000000000000000000000000000000000000007bffffffffffffffffffffffffffffffffffffffffffffffffffffffff1916827bffffffffffffffffffffffffffffffffffffffffffffffffffffffff1916145b8061042a575061042982610b01565b5b9050919050565b6005805461043e90612eae565b80601f016020809104026020016040519081016040528092919081815260200182805461046a90612eae565b80156104b75780601f1061048c576101008083540402835291602001916104b7565b820191906000526020600020905b81548152906001019060200180831161049a57829003601f168201915b505050505081565b6060600280546104ce90612eae565b80601f01602080910402602001604051908101604052809291908181526020018280546104fa90612eae565b80156105475780601f1061051c57610100808354040283529160200191610547565b820191906000526020600020905b81548152906001019060200180831161052a57829003601f168201915b50505050509050919050565b61055b610b6b565b73ffffffffffffffffffffffffffffffffffffffff168573ffffffffffffffffffffffffffffffffffffffff1614806105a157506105a08561059b610b6b565b6109cc565b5b6105e0576040517f08c379a00000000000000000000000000000000000000000000000000000000081526004016105d790612a4c565b60405180910390fd5b6105ed8585858585610b73565b5050505050565b60038060000154905081565b600061060c6003610ee1565b60006106186003610ef7565b905061065b3382896040518060400160405280600481526020017f3030783000000000000000000000000000000000000000000000000000000000815250610f05565b610664886110b6565b610691600460009054906101000a900473ffffffffffffffffffffffffffffffffffffffff1660016109b6565b600460009054906101000a900473ffffffffffffffffffffffffffffffffffffffff1673ffffffffffffffffffffffffffffffffffffffff16636b5f18473083338a6040518563ffffffff1660e01b81526004016106f294939291906128d1565b600060405180830381600087803b15801561070c57600080fd5b505af1158015610720573d6000803e3d6000fd5b505050507f939aeddce2c94a35738897080649332d70d96d4a720d78d6f15db23a44ec91b481898989338a8a8a604051610761989796959493929190612b27565b60405180910390a1809150509695505050505050565b606081518351146107bd576040517f08c379a00000000000000000000000000000000000000000000000000000000081526004016107b490612aac565b60405180910390fd5b6000835167ffffffffffffffff811115610800577f4e487b7100000000000000000000000000000000000000000000000000000000600052604160045260246000fd5b60405190808252806020026020018201604052801561082e5781602001602082028036833780820191505090505b50905060005b845181101561091d576108c7858281518110610879577f4e487b7100000000000000000000000000000000000000000000000000000000600052603260045260246000fd5b60200260200101518583815181106108ba577f4e487b7100000000000000000000000000000000000000000000000000000000600052603260045260246000fd5b6020026020010151610286565b828281518110610900577f4e487b7100000000000000000000000000000000000000000000000000000000600052603260045260246000fd5b6020026020010181815250508061091690612f11565b9050610834565b508091505092915050565b6006805461093590612eae565b80601f016020809104026020016040519081016040528092919081815260200182805461096190612eae565b80156109ae5780601f10610983576101008083540402835291602001916109ae565b820191906000526020600020905b81548152906001019060200180831161099157829003601f168201915b505050505081565b6109c86109c1610b6b565b83836110d0565b5050565b6000600160008473ffffffffffffffffffffffffffffffffffffffff1673ffffffffffffffffffffffffffffffffffffffff16815260200190815260200160002060008373ffffffffffffffffffffffffffffffffffffffff1673ffffffffffffffffffffffffffffffffffffffff16815260200190815260200160002060009054906101000a900460ff16905092915050565b610a68610b6b565b73ffffffffffffffffffffffffffffffffffffffff168573ffffffffffffffffffffffffffffffffffffffff161480610aae5750610aad85610aa8610b6b565b6109cc565b5b610aed576040517f08c379a0000000000000000000000000000000000000000000000000000000008152600401610ae490612a0c565b60405180910390fd5b610afa858585858561123d565b5050505050565b60007f01ffc9a7000000000000000000000000000000000000000000000000000000007bffffffffffffffffffffffffffffffffffffffffffffffffffffffff1916827bffffffffffffffffffffffffffffffffffffffffffffffffffffffff1916149050919050565b600033905090565b8151835114610bb7576040517f08c379a0000000000000000000000000000000000000000000000000000000008152600401610bae90612acc565b60405180910390fd5b600073ffffffffffffffffffffffffffffffffffffffff168473ffffffffffffffffffffffffffffffffffffffff161415610c27576040517f08c379a0000000000000000000000000000000000000000000000000000000008152600401610c1e90612a2c565b60405180910390fd5b6000610c31610b6b565b9050610c418187878787876114d9565b60005b8451811015610e3e576000858281518110610c88577f4e487b7100000000000000000000000000000000000000000000000000000000600052603260045260246000fd5b602002602001015190506000858381518110610ccd577f4e487b7100000000000000000000000000000000000000000000000000000000600052603260045260246000fd5b60200260200101519050600080600084815260200190815260200160002060008b73ffffffffffffffffffffffffffffffffffffffff1673ffffffffffffffffffffffffffffffffffffffff16815260200190815260200160002054905081811015610d6e576040517f08c379a0000000000000000000000000000000000000000000000000000000008152600401610d6590612a6c565b60405180910390fd5b81810360008085815260200190815260200160002060008c73ffffffffffffffffffffffffffffffffffffffff1673ffffffffffffffffffffffffffffffffffffffff168152602001908152602001600020819055508160008085815260200190815260200160002060008b73ffffffffffffffffffffffffffffffffffffffff1673ffffffffffffffffffffffffffffffffffffffff1681526020019081526020016000206000828254610e239190612da2565b9250508190555050505080610e3790612f11565b9050610c44565b508473ffffffffffffffffffffffffffffffffffffffff168673ffffffffffffffffffffffffffffffffffffffff168273ffffffffffffffffffffffffffffffffffffffff167f4a39dc06d4c0dbc64b70af90fd698a233a518aa5d07e595d983b8c0526c8f7fb8787604051610eb5929190612938565b60405180910390a4610ecb818787878787611573565b610ed981878787878761157b565b505050505050565b6001816000016000828254019250508190555050565b600081600001549050919050565b600073ffffffffffffffffffffffffffffffffffffffff168473ffffffffffffffffffffffffffffffffffffffff161415610f75576040517f08c379a0000000000000000000000000000000000000000000000000000000008152600401610f6c90612aec565b60405180910390fd5b6000610f7f610b6b565b90506000610f8c85611762565b90506000610f9985611762565b9050610faa836000898585896114d9565b8460008088815260200190815260200160002060008973ffffffffffffffffffffffffffffffffffffffff1673ffffffffffffffffffffffffffffffffffffffff16815260200190815260200160002060008282546110099190612da2565b925050819055508673ffffffffffffffffffffffffffffffffffffffff16600073ffffffffffffffffffffffffffffffffffffffff168473ffffffffffffffffffffffffffffffffffffffff167fc3d58168c5ae7397731d063d5bbf3d657854427343f4c083240f7aacaa2d0f628989604051611087929190612bb3565b60405180910390a461109e83600089858589611573565b6110ad83600089898989611828565b50505050505050565b80600290805190602001906110cc929190611a3a565b5050565b8173ffffffffffffffffffffffffffffffffffffffff168373ffffffffffffffffffffffffffffffffffffffff16141561113f576040517f08c379a000000000000000000000000000000000000000000000000000000000815260040161113690612a8c565b60405180910390fd5b80600160008573ffffffffffffffffffffffffffffffffffffffff1673ffffffffffffffffffffffffffffffffffffffff16815260200190815260200160002060008473ffffffffffffffffffffffffffffffffffffffff1673ffffffffffffffffffffffffffffffffffffffff16815260200190815260200160002060006101000a81548160ff0219169083151502179055508173ffffffffffffffffffffffffffffffffffffffff168373ffffffffffffffffffffffffffffffffffffffff167f17307eab39ab6107e8899845ad3d59bd9653f200f220920489ca2b5937696c3183604051611230919061296f565b60405180910390a3505050565b600073ffffffffffffffffffffffffffffffffffffffff168473ffffffffffffffffffffffffffffffffffffffff1614156112ad576040517f08c379a00000000000000000000000000000000000000000000000000000000081526004016112a490612a2c565b60405180910390fd5b60006112b7610b6b565b905060006112c485611762565b905060006112d185611762565b90506112e18389898585896114d9565b600080600088815260200190815260200160002060008a73ffffffffffffffffffffffffffffffffffffffff1673ffffffffffffffffffffffffffffffffffffffff16815260200190815260200160002054905085811015611378576040517f08c379a000000000000000000000000000000000000000000000000000000000815260040161136f90612a6c565b60405180910390fd5b85810360008089815260200190815260200160002060008b73ffffffffffffffffffffffffffffffffffffffff1673ffffffffffffffffffffffffffffffffffffffff168152602001908152602001600020819055508560008089815260200190815260200160002060008a73ffffffffffffffffffffffffffffffffffffffff1673ffffffffffffffffffffffffffffffffffffffff168152602001908152602001600020600082825461142d9190612da2565b925050819055508773ffffffffffffffffffffffffffffffffffffffff168973ffffffffffffffffffffffffffffffffffffffff168573ffffffffffffffffffffffffffffffffffffffff167fc3d58168c5ae7397731d063d5bbf3d657854427343f4c083240f7aacaa2d0f628a8a6040516114aa929190612bb3565b60405180910390a46114c0848a8a86868a611573565b6114ce848a8a8a8a8a611828565b505050505050505050565b6114e7868686868686611a0f565b8373ffffffffffffffffffffffffffffffffffffffff16600460009054906101000a900473ffffffffffffffffffffffffffffffffffffffff1673ffffffffffffffffffffffffffffffffffffffff161461156b5761156a84600460009054906101000a900473ffffffffffffffffffffffffffffffffffffffff1660016110d0565b5b505050505050565b505050505050565b61159a8473ffffffffffffffffffffffffffffffffffffffff16611a17565b1561175a578373ffffffffffffffffffffffffffffffffffffffff1663bc197c8187878686866040518663ffffffff1660e01b81526004016115e095949392919061280f565b602060405180830381600087803b1580156115fa57600080fd5b505af192505050801561162b57506040513d601f19601f820116820180604052508101906116289190612271565b60015b6116d157611637612fe7565b806308c379a01415611694575061164c61338c565b806116575750611696565b806040517f08c379a000000000000000000000000000000000000000000000000000000000815260040161168b919061298a565b60405180910390fd5b505b6040517f08c379a00000000000000000000000000000000000000000000000000000000081526004016116c8906129ac565b60405180910390fd5b63bc197c8160e01b7bffffffffffffffffffffffffffffffffffffffffffffffffffffffff1916817bffffffffffffffffffffffffffffffffffffffffffffffffffffffff191614611758576040517f08c379a000000000000000000000000000000000000000000000000000000000815260040161174f906129cc565b60405180910390fd5b505b505050505050565b60606000600167ffffffffffffffff8111156117a7577f4e487b7100000000000000000000000000000000000000000000000000000000600052604160045260246000fd5b6040519080825280602002602001820160405280156117d55781602001602082028036833780820191505090505b5090508281600081518110611813577f4e487b7100000000000000000000000000000000000000000000000000000000600052603260045260246000fd5b60200260200101818152505080915050919050565b6118478473ffffffffffffffffffffffffffffffffffffffff16611a17565b15611a07578373ffffffffffffffffffffffffffffffffffffffff1663f23a6e6187878686866040518663ffffffff1660e01b815260040161188d959493929190612877565b602060405180830381600087803b1580156118a757600080fd5b505af19250505080156118d857506040513d601f19601f820116820180604052508101906118d59190612271565b60015b61197e576118e4612fe7565b806308c379a0141561194157506118f961338c565b806119045750611943565b806040517f08c379a0000000000000000000000000000000000000000000000000000000008152600401611938919061298a565b60405180910390fd5b505b6040517f08c379a0000000000000000000000000000000000000000000000000000000008152600401611975906129ac565b60405180910390fd5b63f23a6e6160e01b7bffffffffffffffffffffffffffffffffffffffffffffffffffffffff1916817bffffffffffffffffffffffffffffffffffffffffffffffffffffffff191614611a05576040517f08c379a00000000000000000000000000000000000000000000000000000000081526004016119fc906129cc565b60405180910390fd5b505b505050505050565b505050505050565b6000808273ffffffffffffffffffffffffffffffffffffffff163b119050919050565b828054611a4690612eae565b90600052602060002090601f016020900481019282611a685760008555611aaf565b82601f10611a8157805160ff1916838001178555611aaf565b82800160010185558215611aaf579182015b82811115611aae578251825591602001919060010190611a93565b5b509050611abc9190611ac0565b5090565b5b80821115611ad9576000816000905550600101611ac1565b5090565b6000611af0611aeb84612c01565b612bdc565b90508083825260208201905082856020860282011115611b0f57600080fd5b60005b85811015611b3f5781611b258882611cb7565b845260208401935060208301925050600181019050611b12565b5050509392505050565b6000611b5c611b5784612c2d565b612bdc565b90508083825260208201905082856020860282011115611b7b57600080fd5b60005b85811015611bc557813567ffffffffffffffff811115611b9d57600080fd5b808601611baa8982611ddd565b85526020850194506020840193505050600181019050611b7e565b5050509392505050565b6000611be2611bdd84612c59565b612bdc565b90508083825260208201905082856020860282011115611c0157600080fd5b60005b85811015611c315781611c178882611fc5565b845260208401935060208301925050600181019050611c04565b5050509392505050565b6000611c4e611c4984612c85565b612bdc565b905082815260208101848484011115611c6657600080fd5b611c71848285612e6c565b509392505050565b6000611c8c611c8784612cb6565b612bdc565b905082815260208101848484011115611ca457600080fd5b611caf848285612e6c565b509392505050565b600081359050611cc681613422565b92915050565b600082601f830112611cdd57600080fd5b8135611ced848260208601611add565b91505092915050565b600082601f830112611d0757600080fd5b8135611d17848260208601611b49565b91505092915050565b600082601f830112611d3157600080fd5b8135611d41848260208601611bcf565b91505092915050565b600081359050611d5981613439565b92915050565b600081359050611d6e81613450565b92915050565b600081519050611d8381613450565b92915050565b600082601f830112611d9a57600080fd5b8135611daa848260208601611c3b565b91505092915050565b600082601f830112611dc457600080fd5b8135611dd4848260208601611c79565b91505092915050565b600060608284031215611def57600080fd5b611df96060612bdc565b9050600082013567ffffffffffffffff811115611e1557600080fd5b611e2184828501611db3565b600083015250602082013567ffffffffffffffff811115611e4157600080fd5b611e4d84828501611db3565b602083015250604082013567ffffffffffffffff811115611e6d57600080fd5b611e7984828501611db3565b60408301525092915050565b600060e08284031215611e9757600080fd5b611ea160e0612bdc565b9050600082013567ffffffffffffffff811115611ebd57600080fd5b611ec984828501611db3565b600083015250602082013567ffffffffffffffff811115611ee957600080fd5b611ef584828501611db3565b602083015250604082013567ffffffffffffffff811115611f1557600080fd5b611f2184828501611db3565b604083015250606082013567ffffffffffffffff811115611f4157600080fd5b611f4d84828501611cf6565b6060830152506080611f6184828501611d4a565b60808301525060a082013567ffffffffffffffff811115611f8157600080fd5b611f8d84828501611db3565b60a08301525060c082013567ffffffffffffffff811115611fad57600080fd5b611fb984828501611db3565b60c08301525092915050565b600081359050611fd481613467565b92915050565b60008060408385031215611fed57600080fd5b6000611ffb85828601611cb7565b925050602061200c85828601611cb7565b9150509250929050565b600080600080600060a0868803121561202e57600080fd5b600061203c88828901611cb7565b955050602061204d88828901611cb7565b945050604086013567ffffffffffffffff81111561206a57600080fd5b61207688828901611d20565b935050606086013567ffffffffffffffff81111561209357600080fd5b61209f88828901611d20565b925050608086013567ffffffffffffffff8111156120bc57600080fd5b6120c888828901611d89565b9150509295509295909350565b600080600080600060a086880312156120ed57600080fd5b60006120fb88828901611cb7565b955050602061210c88828901611cb7565b945050604061211d88828901611fc5565b935050606061212e88828901611fc5565b925050608086013567ffffffffffffffff81111561214b57600080fd5b61215788828901611d89565b9150509295509295909350565b6000806040838503121561217757600080fd5b600061218585828601611cb7565b925050602061219685828601611d4a565b9150509250929050565b600080604083850312156121b357600080fd5b60006121c185828601611cb7565b92505060206121d285828601611fc5565b9150509250929050565b600080604083850312156121ef57600080fd5b600083013567ffffffffffffffff81111561220957600080fd5b61221585828601611ccc565b925050602083013567ffffffffffffffff81111561223257600080fd5b61223e85828601611d20565b9150509250929050565b60006020828403121561225a57600080fd5b600061226884828501611d5f565b91505092915050565b60006020828403121561228357600080fd5b600061229184828501611d74565b91505092915050565b60008060008060008060c087890312156122b357600080fd5b600087013567ffffffffffffffff8111156122cd57600080fd5b6122d989828a01611db3565b96505060206122ea89828a01611fc5565b95505060406122fb89828a01611fc5565b945050606061230c89828a01611fc5565b935050608061231d89828a01611fc5565b92505060a087013567ffffffffffffffff81111561233a57600080fd5b61234689828a01611e85565b9150509295509295509295565b60006020828403121561236557600080fd5b600061237384828501611fc5565b91505092915050565b600061238883836126d4565b905092915050565b600061239c83836127f1565b60208301905092915050565b6123b181612df8565b82525050565b60006123c282612d07565b6123cc8185612d4d565b9350836020820285016123de85612ce7565b8060005b8581101561241a57848403895281516123fb858261237c565b945061240683612d33565b925060208a019950506001810190506123e2565b50829750879550505050505092915050565b600061243782612d12565b6124418185612d5e565b935061244c83612cf7565b8060005b8381101561247d5781516124648882612390565b975061246f83612d40565b925050600181019050612450565b5085935050505092915050565b61249381612e0a565b82525050565b6124a281612e0a565b82525050565b60006124b382612d1d565b6124bd8185612d6f565b93506124cd818560208601612e7b565b6124d681613009565b840191505092915050565b60006124ec82612d28565b6124f68185612d80565b9350612506818560208601612e7b565b61250f81613009565b840191505092915050565b600061252582612d28565b61252f8185612d91565b935061253f818560208601612e7b565b61254881613009565b840191505092915050565b6000612560603483612d91565b915061256b82613027565b604082019050919050565b6000612583602883612d91565b915061258e82613076565b604082019050919050565b60006125a6602b83612d91565b91506125b1826130c5565b604082019050919050565b60006125c9602983612d91565b91506125d482613114565b604082019050919050565b60006125ec602583612d91565b91506125f782613163565b604082019050919050565b600061260f603283612d91565b915061261a826131b2565b604082019050919050565b6000612632602a83612d91565b915061263d82613201565b604082019050919050565b6000612655602983612d91565b915061266082613250565b604082019050919050565b6000612678602983612d91565b91506126838261329f565b604082019050919050565b600061269b602883612d91565b91506126a6826132ee565b604082019050919050565b60006126be602183612d91565b91506126c98261333d565b604082019050919050565b600060608301600083015184820360008601526126f182826124e1565b9150506020830151848203602086015261270b82826124e1565b9150506040830151848203604086015261272582826124e1565b9150508091505092915050565b600060e083016000830151848203600086015261274f82826124e1565b9150506020830151848203602086015261276982826124e1565b9150506040830151848203604086015261278382826124e1565b9150506060830151848203606086015261279d82826123b7565b91505060808301516127b2608086018261248a565b5060a083015184820360a08601526127ca82826124e1565b91505060c083015184820360c08601526127e482826124e1565b9150508091505092915050565b6127fa81612e62565b82525050565b61280981612e62565b82525050565b600060a08201905061282460008301886123a8565b61283160208301876123a8565b8181036040830152612843818661242c565b90508181036060830152612857818561242c565b9050818103608083015261286b81846124a8565b90509695505050505050565b600060a08201905061288c60008301886123a8565b61289960208301876123a8565b6128a66040830186612800565b6128b36060830185612800565b81810360808301526128c581846124a8565b90509695505050505050565b60006080820190506128e660008301876123a8565b6128f36020830186612800565b61290060408301856123a8565b61290d6060830184612800565b95945050505050565b60006020820190508181036000830152612930818461242c565b905092915050565b60006040820190508181036000830152612952818561242c565b90508181036020830152612966818461242c565b90509392505050565b60006020820190506129846000830184612499565b92915050565b600060208201905081810360008301526129a4818461251a565b905092915050565b600060208201905081810360008301526129c581612553565b9050919050565b600060208201905081810360008301526129e581612576565b9050919050565b60006020820190508181036000830152612a0581612599565b9050919050565b60006020820190508181036000830152612a25816125bc565b9050919050565b60006020820190508181036000830152612a45816125df565b9050919050565b60006020820190508181036000830152612a6581612602565b9050919050565b60006020820190508181036000830152612a8581612625565b9050919050565b60006020820190508181036000830152612aa581612648565b9050919050565b60006020820190508181036000830152612ac58161266b565b9050919050565b60006020820190508181036000830152612ae58161268e565b9050919050565b60006020820190508181036000830152612b05816126b1565b9050919050565b6000602082019050612b216000830184612800565b92915050565b600061010082019050612b3d600083018b612800565b8181036020830152612b4f818a61251a565b9050612b5e6040830189612800565b612b6b6060830188612800565b612b7860808301876123a8565b612b8560a0830186612800565b612b9260c0830185612800565b81810360e0830152612ba48184612732565b90509998505050505050505050565b6000604082019050612bc86000830185612800565b612bd56020830184612800565b9392505050565b6000612be6612bf7565b9050612bf28282612ee0565b919050565b6000604051905090565b600067ffffffffffffffff821115612c1c57612c1b612fb8565b5b602082029050602081019050919050565b600067ffffffffffffffff821115612c4857612c47612fb8565b5b602082029050602081019050919050565b600067ffffffffffffffff821115612c7457612c73612fb8565b5b602082029050602081019050919050565b600067ffffffffffffffff821115612ca057612c9f612fb8565b5b612ca982613009565b9050602081019050919050565b600067ffffffffffffffff821115612cd157612cd0612fb8565b5b612cda82613009565b9050602081019050919050565b6000819050602082019050919050565b6000819050602082019050919050565b600081519050919050565b600081519050919050565b600081519050919050565b600081519050919050565b6000602082019050919050565b6000602082019050919050565b600082825260208201905092915050565b600082825260208201905092915050565b600082825260208201905092915050565b600082825260208201905092915050565b600082825260208201905092915050565b6000612dad82612e62565b9150612db883612e62565b9250827fffffffffffffffffffffffffffffffffffffffffffffffffffffffffffffffff03821115612ded57612dec612f5a565b5b828201905092915050565b6000612e0382612e42565b9050919050565b60008115159050919050565b60007fffffffff0000000000000000000000000000000000000000000000000000000082169050919050565b600073ffffffffffffffffffffffffffffffffffffffff82169050919050565b6000819050919050565b82818337600083830152505050565b60005b83811015612e99578082015181840152602081019050612e7e565b83811115612ea8576000848401525b50505050565b60006002820490506001821680612ec657607f821691505b60208210811415612eda57612ed9612f89565b5b50919050565b612ee982613009565b810181811067ffffffffffffffff82111715612f0857612f07612fb8565b5b80604052505050565b6000612f1c82612e62565b91507fffffffffffffffffffffffffffffffffffffffffffffffffffffffffffffffff821415612f4f57612f4e612f5a565b5b600182019050919050565b7f4e487b7100000000000000000000000000000000000000000000000000000000600052601160045260246000fd5b7f4e487b7100000000000000000000000000000000000000000000000000000000600052602260045260246000fd5b7f4e487b7100000000000000000000000000000000000000000000000000000000600052604160045260246000fd5b600060033d11156130065760046000803e61300360005161301a565b90505b90565b6000601f19601f8301169050919050565b60008160e01c9050919050565b7f455243313135353a207472616e7366657220746f206e6f6e204552433131353560008201527f526563656976657220696d706c656d656e746572000000000000000000000000602082015250565b7f455243313135353a204552433131353552656365697665722072656a6563746560008201527f6420746f6b656e73000000000000000000000000000000000000000000000000602082015250565b7f455243313135353a2062616c616e636520717565727920666f7220746865207a60008201527f65726f2061646472657373000000000000000000000000000000000000000000602082015250565b7f455243313135353a2063616c6c6572206973206e6f74206f776e6572206e6f7260008201527f20617070726f7665640000000000000000000000000000000000000000000000602082015250565b7f455243313135353a207472616e7366657220746f20746865207a65726f20616460008201527f6472657373000000000000000000000000000000000000000000000000000000602082015250565b7f455243313135353a207472616e736665722063616c6c6572206973206e6f742060008201527f6f776e6572206e6f7220617070726f7665640000000000000000000000000000602082015250565b7f455243313135353a20696e73756666696369656e742062616c616e636520666f60008201527f72207472616e7366657200000000000000000000000000000000000000000000602082015250565b7f455243313135353a2073657474696e6720617070726f76616c2073746174757360008201527f20666f722073656c660000000000000000000000000000000000000000000000602082015250565b7f455243313135353a206163636f756e747320616e6420696473206c656e67746860008201527f206d69736d617463680000000000000000000000000000000000000000000000602082015250565b7f455243313135353a2069647320616e6420616d6f756e7473206c656e6774682060008201527f6d69736d61746368000000000000000000000000000000000000000000000000602082015250565b7f455243313135353a206d696e7420746f20746865207a65726f2061646472657360008201527f7300000000000000000000000000000000000000000000000000000000000000602082015250565b600060443d101561339c5761341f565b6133a4612bf7565b60043d036004823e80513d602482011167ffffffffffffffff821117156133cc57505061341f565b808201805167ffffffffffffffff8111156133ea575050505061341f565b80602083010160043d03850181111561340757505050505061341f565b61341682602001850186612ee0565b82955050505050505b90565b61342b81612df8565b811461343657600080fd5b50565b61344281612e0a565b811461344d57600080fd5b50565b61345981612e16565b811461346457600080fd5b50565b61347081612e62565b811461347b57600080fd5b5056fea2646970667358221220c85ca120d67fb11d782af62577d23f89fb0fefdf351f2135705a19eb738ca2f364736f6c63430008040033",
  "immutableReferences": {},
  "source": "// SPDX-License-Identifier: MIT\npragma solidity ^0.8.4;\n\n// erc 721\n// import \"@openzeppelin/contracts/token/ERC721/ERC721.sol\";\nimport \"@openzeppelin/contracts/token/ERC1155/ERC1155.sol\";\nimport \"@openzeppelin/contracts/token/ERC1155/extensions/ERC1155Supply.sol\";\n// ERC721URIStorage (inherits from erc 721)\n// import \"@openzeppelin/contracts/token/ERC721/extensions/ERC721URIStorage.sol\";\n\n// utils\nimport \"@openzeppelin/contracts/utils/Counters.sol\";\nimport \"./INFTMarket.sol\";\nimport \"./NFTMarket.sol\";\n\ncontract NFT is ERC1155 {\n    using Counters for Counters.Counter;\n    Counters.Counter public _tokensIds; // for minting incrementing\n    address _marketplaceAddress; // market place address we gonna give ability to transact the tokens;\n    string public name = \"HowToPulse\";\n    string public symbol = \"HTP\";\n\n    constructor(address marketplaceAddress) ERC1155(\"\") {\n        _marketplaceAddress = marketplaceAddress;\n    }\n\n    event Mint(\n        uint256 newItemId,\n        string tokenURI,\n        uint256 amount,\n        uint256 royalty,\n        address creator,\n        uint256 startPrice,\n        uint256 deadline,\n        NFTMarket.FrontData frontData\n    );\n\n    function createToken(\n        string memory tokenURI,\n        uint256 amount,\n        uint256 royalty,\n        uint256 startPrice,\n        uint256 deadline,\n        NFTMarket.FrontData memory frontData \n    ) public returns (uint256) {\n        _tokensIds.increment();\n        uint256 newItemId = _tokensIds.current();\n        // minting\n        _mint(msg.sender, newItemId, amount, \"00x0\");\n        //\n        _setURI(tokenURI);\n        // give the marketplace approval to transcat this token between users\n        setApprovalForAll(_marketplaceAddress, true);\n\n        INFTMarket(_marketplaceAddress).initializeItem(\n            address(this),\n            newItemId,\n            msg.sender,\n            royalty\n            // frontData\n        );\n\n        emit Mint(\n            newItemId,\n            tokenURI,\n            amount,\n            royalty,\n            msg.sender,\n            startPrice,\n            deadline,\n            frontData\n        );\n        return newItemId;\n    }\n\n    // Whenever tokens are transferred, add the market contract allowance to handle the tokens\n    function _beforeTokenTransfer(\n        address operator,\n        address from,\n        address to,\n        uint256[] memory ids,\n        uint256[] memory amounts,\n        bytes memory data\n    ) internal virtual override {\n        super._beforeTokenTransfer(operator, from, to, ids, amounts, data);\n        if (_marketplaceAddress != to) {\n            // Allow marketplace to transfer tokens from the new owner\n            _setApprovalForAll(to, _marketplaceAddress, true);\n        }\n    }\n}\n",
  "sourcePath": "/Users/timor/Desktop/nftOnPulse/nft-front/src/contracts/NFT.sol",
  "compiler": {
    "name": "solc",
    "version": "0.8.4+commit.c7e474f2.Emscripten.clang"
  },
  "schemaVersion": "3.4.6",
  "updatedAt": "2022-06-07T18:36:11.138Z",
  "networkType": "ethereum",
  "devdoc": {
    "kind": "dev",
    "methods": {
      "balanceOf(address,uint256)": {
        "details": "See {IERC1155-balanceOf}. Requirements: - `account` cannot be the zero address."
      },
      "balanceOfBatch(address[],uint256[])": {
        "details": "See {IERC1155-balanceOfBatch}. Requirements: - `accounts` and `ids` must have the same length."
      },
      "isApprovedForAll(address,address)": {
        "details": "See {IERC1155-isApprovedForAll}."
      },
      "safeBatchTransferFrom(address,address,uint256[],uint256[],bytes)": {
        "details": "See {IERC1155-safeBatchTransferFrom}."
      },
      "safeTransferFrom(address,address,uint256,uint256,bytes)": {
        "details": "See {IERC1155-safeTransferFrom}."
      },
      "setApprovalForAll(address,bool)": {
        "details": "See {IERC1155-setApprovalForAll}."
      },
      "supportsInterface(bytes4)": {
        "details": "See {IERC165-supportsInterface}."
      },
      "uri(uint256)": {
        "details": "See {IERC1155MetadataURI-uri}. This implementation returns the same URI for *all* token types. It relies on the token type ID substitution mechanism https://eips.ethereum.org/EIPS/eip-1155#metadata[defined in the EIP]. Clients calling this function must replace the `\\{id\\}` substring with the actual token type ID."
      }
    },
    "version": 1
  },
  "userdoc": {
    "kind": "user",
    "methods": {},
    "version": 1
  }
}