{
  "contractName": "NFT721",
  "abi": [
    {
      "inputs": [
        {
          "internalType": "address",
          "name": "marketplaceAddress",
          "type": "address"
        }
      ],
      "stateMutability": "nonpayable",
      "type": "constructor"
    },
    {
      "anonymous": false,
      "inputs": [
        {
          "indexed": true,
          "internalType": "address",
          "name": "owner",
          "type": "address"
        },
        {
          "indexed": true,
          "internalType": "address",
          "name": "approved",
          "type": "address"
        },
        {
          "indexed": true,
          "internalType": "uint256",
          "name": "tokenId",
          "type": "uint256"
        }
      ],
      "name": "Approval",
      "type": "event"
    },
    {
      "anonymous": false,
      "inputs": [
        {
          "indexed": true,
          "internalType": "address",
          "name": "owner",
          "type": "address"
        },
        {
          "indexed": true,
          "internalType": "address",
          "name": "operator",
          "type": "address"
        },
        {
          "indexed": false,
          "internalType": "bool",
          "name": "approved",
          "type": "bool"
        }
      ],
      "name": "ApprovalForAll",
      "type": "event"
    },
    {
      "anonymous": false,
      "inputs": [
        {
          "indexed": false,
          "internalType": "uint256",
          "name": "newItemId",
          "type": "uint256"
        }
      ],
      "name": "Mint",
      "type": "event"
    },
    {
      "anonymous": false,
      "inputs": [
        {
          "indexed": true,
          "internalType": "address",
          "name": "from",
          "type": "address"
        },
        {
          "indexed": true,
          "internalType": "address",
          "name": "to",
          "type": "address"
        },
        {
          "indexed": true,
          "internalType": "uint256",
          "name": "tokenId",
          "type": "uint256"
        }
      ],
      "name": "Transfer",
      "type": "event"
    },
    {
      "inputs": [],
      "name": "_tokensIds",
      "outputs": [
        {
          "internalType": "uint256",
          "name": "_value",
          "type": "uint256"
        }
      ],
      "stateMutability": "view",
      "type": "function"
    },
    {
      "inputs": [
        {
          "internalType": "address",
          "name": "to",
          "type": "address"
        },
        {
          "internalType": "uint256",
          "name": "tokenId",
          "type": "uint256"
        }
      ],
      "name": "approve",
      "outputs": [],
      "stateMutability": "nonpayable",
      "type": "function"
    },
    {
      "inputs": [
        {
          "internalType": "address",
          "name": "owner",
          "type": "address"
        }
      ],
      "name": "balanceOf",
      "outputs": [
        {
          "internalType": "uint256",
          "name": "",
          "type": "uint256"
        }
      ],
      "stateMutability": "view",
      "type": "function"
    },
    {
      "inputs": [
        {
          "internalType": "uint256",
          "name": "tokenId",
          "type": "uint256"
        }
      ],
      "name": "getApproved",
      "outputs": [
        {
          "internalType": "address",
          "name": "",
          "type": "address"
        }
      ],
      "stateMutability": "view",
      "type": "function"
    },
    {
      "inputs": [
        {
          "internalType": "address",
          "name": "owner",
          "type": "address"
        },
        {
          "internalType": "address",
          "name": "operator",
          "type": "address"
        }
      ],
      "name": "isApprovedForAll",
      "outputs": [
        {
          "internalType": "bool",
          "name": "",
          "type": "bool"
        }
      ],
      "stateMutability": "view",
      "type": "function"
    },
    {
      "inputs": [],
      "name": "name",
      "outputs": [
        {
          "internalType": "string",
          "name": "",
          "type": "string"
        }
      ],
      "stateMutability": "view",
      "type": "function"
    },
    {
      "inputs": [
        {
          "internalType": "uint256",
          "name": "tokenId",
          "type": "uint256"
        }
      ],
      "name": "ownerOf",
      "outputs": [
        {
          "internalType": "address",
          "name": "",
          "type": "address"
        }
      ],
      "stateMutability": "view",
      "type": "function"
    },
    {
      "inputs": [
        {
          "internalType": "address",
          "name": "from",
          "type": "address"
        },
        {
          "internalType": "address",
          "name": "to",
          "type": "address"
        },
        {
          "internalType": "uint256",
          "name": "tokenId",
          "type": "uint256"
        }
      ],
      "name": "safeTransferFrom",
      "outputs": [],
      "stateMutability": "nonpayable",
      "type": "function"
    },
    {
      "inputs": [
        {
          "internalType": "address",
          "name": "from",
          "type": "address"
        },
        {
          "internalType": "address",
          "name": "to",
          "type": "address"
        },
        {
          "internalType": "uint256",
          "name": "tokenId",
          "type": "uint256"
        },
        {
          "internalType": "bytes",
          "name": "_data",
          "type": "bytes"
        }
      ],
      "name": "safeTransferFrom",
      "outputs": [],
      "stateMutability": "nonpayable",
      "type": "function"
    },
    {
      "inputs": [
        {
          "internalType": "address",
          "name": "operator",
          "type": "address"
        },
        {
          "internalType": "bool",
          "name": "approved",
          "type": "bool"
        }
      ],
      "name": "setApprovalForAll",
      "outputs": [],
      "stateMutability": "nonpayable",
      "type": "function"
    },
    {
      "inputs": [
        {
          "internalType": "bytes4",
          "name": "interfaceId",
          "type": "bytes4"
        }
      ],
      "name": "supportsInterface",
      "outputs": [
        {
          "internalType": "bool",
          "name": "",
          "type": "bool"
        }
      ],
      "stateMutability": "view",
      "type": "function"
    },
    {
      "inputs": [],
      "name": "symbol",
      "outputs": [
        {
          "internalType": "string",
          "name": "",
          "type": "string"
        }
      ],
      "stateMutability": "view",
      "type": "function"
    },
    {
      "inputs": [
        {
          "internalType": "uint256",
          "name": "tokenId",
          "type": "uint256"
        }
      ],
      "name": "tokenURI",
      "outputs": [
        {
          "internalType": "string",
          "name": "",
          "type": "string"
        }
      ],
      "stateMutability": "view",
      "type": "function"
    },
    {
      "inputs": [
        {
          "internalType": "address",
          "name": "from",
          "type": "address"
        },
        {
          "internalType": "address",
          "name": "to",
          "type": "address"
        },
        {
          "internalType": "uint256",
          "name": "tokenId",
          "type": "uint256"
        }
      ],
      "name": "transferFrom",
      "outputs": [],
      "stateMutability": "nonpayable",
      "type": "function"
    },
    {
      "inputs": [
        {
          "internalType": "string",
          "name": "tokenURI",
          "type": "string"
        }
      ],
      "name": "createToken",
      "outputs": [
        {
          "internalType": "uint256",
          "name": "",
          "type": "uint256"
        }
      ],
      "stateMutability": "nonpayable",
      "type": "function"
    },
    {
      "inputs": [],
      "name": "approveAll",
      "outputs": [],
      "stateMutability": "nonpayable",
      "type": "function"
    }
  ],
  "bytecode": "0x60806040523480156200001157600080fd5b5060405162002f3838038062002f388339818101604052810190620000379190620001e6565b6040518060400160405280601081526020017f4d657461766572736520546f6b656e73000000000000000000000000000000008152506040518060400160405280600481526020017f4d455454000000000000000000000000000000000000000000000000000000008152508160009080519060200190620000bb9291906200011f565b508060019080519060200190620000d49291906200011f565b50505080600860006101000a81548173ffffffffffffffffffffffffffffffffffffffff021916908373ffffffffffffffffffffffffffffffffffffffff16021790555050620002c5565b8280546200012d9062000246565b90600052602060002090601f0160209004810192826200015157600085556200019d565b82601f106200016c57805160ff19168380011785556200019d565b828001600101855582156200019d579182015b828111156200019c5782518255916020019190600101906200017f565b5b509050620001ac9190620001b0565b5090565b5b80821115620001cb576000816000905550600101620001b1565b5090565b600081519050620001e081620002ab565b92915050565b600060208284031215620001f957600080fd5b60006200020984828501620001cf565b91505092915050565b60006200021f8262000226565b9050919050565b600073ffffffffffffffffffffffffffffffffffffffff82169050919050565b600060028204905060018216806200025f57607f821691505b602082108114156200027657620002756200027c565b5b50919050565b7f4e487b7100000000000000000000000000000000000000000000000000000000600052602260045260246000fd5b620002b68162000212565b8114620002c257600080fd5b50565b612c6380620002d56000396000f3fe608060405234801561001057600080fd5b50600436106101005760003560e01c806345576f9411610097578063a22cb46511610066578063a22cb465146102ad578063b88d4fde146102c9578063c87b56dd146102e5578063e985e9c51461031557610100565b806345576f94146101ff5780636352211e1461022f57806370a082311461025f57806395d89b411461028f57610100565b806323b872dd116100d357806323b872dd1461019f578063380d0c08146101bb57806342842e0e146101c557806342b1c6af146101e157610100565b806301ffc9a71461010557806306fdde0314610135578063081812fc14610153578063095ea7b314610183575b600080fd5b61011f600480360381019061011a9190611ccf565b610345565b60405161012c9190612116565b60405180910390f35b61013d610427565b60405161014a9190612131565b60405180910390f35b61016d60048036038101906101689190611d62565b6104b9565b60405161017a91906120af565b60405180910390f35b61019d60048036038101906101989190611c93565b61053e565b005b6101b960048036038101906101b49190611b8d565b610656565b005b6101c36106b6565b005b6101df60048036038101906101da9190611b8d565b6106e5565b005b6101e9610705565b6040516101f69190612353565b60405180910390f35b61021960048036038101906102149190611d21565b610711565b6040516102269190612353565b60405180910390f35b61024960048036038101906102449190611d62565b6107ac565b60405161025691906120af565b60405180910390f35b61027960048036038101906102749190611b28565b61085e565b6040516102869190612353565b60405180910390f35b610297610916565b6040516102a49190612131565b60405180910390f35b6102c760048036038101906102c29190611c57565b6109a8565b005b6102e360048036038101906102de9190611bdc565b6109be565b005b6102ff60048036038101906102fa9190611d62565b610a20565b60405161030c9190612131565b60405180910390f35b61032f600480360381019061032a9190611b51565b610b72565b60405161033c9190612116565b60405180910390f35b60007f80ac58cd000000000000000000000000000000000000000000000000000000007bffffffffffffffffffffffffffffffffffffffffffffffffffffffff1916827bffffffffffffffffffffffffffffffffffffffffffffffffffffffff1916148061041057507f5b5e139f000000000000000000000000000000000000000000000000000000007bffffffffffffffffffffffffffffffffffffffffffffffffffffffff1916827bffffffffffffffffffffffffffffffffffffffffffffffffffffffff1916145b80610420575061041f82610c06565b5b9050919050565b606060008054610436906125a9565b80601f0160208091040260200160405190810160405280929190818152602001828054610462906125a9565b80156104af5780601f10610484576101008083540402835291602001916104af565b820191906000526020600020905b81548152906001019060200180831161049257829003601f168201915b5050505050905090565b60006104c482610c70565b610503576040517f08c379a00000000000000000000000000000000000000000000000000000000081526004016104fa906122d3565b60405180910390fd5b6004600083815260200190815260200160002060009054906101000a900473ffffffffffffffffffffffffffffffffffffffff169050919050565b6000610549826107ac565b90508073ffffffffffffffffffffffffffffffffffffffff168373ffffffffffffffffffffffffffffffffffffffff1614156105ba576040517f08c379a00000000000000000000000000000000000000000000000000000000081526004016105b190612313565b60405180910390fd5b8073ffffffffffffffffffffffffffffffffffffffff166105d9610cdc565b73ffffffffffffffffffffffffffffffffffffffff161480610608575061060781610602610cdc565b610b72565b5b610647576040517f08c379a000000000000000000000000000000000000000000000000000000000815260040161063e90612213565b60405180910390fd5b6106518383610ce4565b505050565b610667610661610cdc565b82610d9d565b6106a6576040517f08c379a000000000000000000000000000000000000000000000000000000000815260040161069d90612333565b60405180910390fd5b6106b1838383610e7b565b505050565b6106e3600860009054906101000a900473ffffffffffffffffffffffffffffffffffffffff1660016109a8565b565b610700838383604051806020016040528060008152506109be565b505050565b60078060000154905081565b600061071d60076110e2565b600061072960076110f8565b90506107353382611106565b61073f81846112e0565b61076c600860009054906101000a900473ffffffffffffffffffffffffffffffffffffffff1660016109a8565b7f07883703ed0e86588a40d76551c92f8a4b329e3bf19765e0e6749473c1a846658160405161079b9190612353565b60405180910390a180915050919050565b6000806002600084815260200190815260200160002060009054906101000a900473ffffffffffffffffffffffffffffffffffffffff169050600073ffffffffffffffffffffffffffffffffffffffff168173ffffffffffffffffffffffffffffffffffffffff161415610855576040517f08c379a000000000000000000000000000000000000000000000000000000000815260040161084c90612253565b60405180910390fd5b80915050919050565b60008073ffffffffffffffffffffffffffffffffffffffff168273ffffffffffffffffffffffffffffffffffffffff1614156108cf576040517f08c379a00000000000000000000000000000000000000000000000000000000081526004016108c690612233565b60405180910390fd5b600360008373ffffffffffffffffffffffffffffffffffffffff1673ffffffffffffffffffffffffffffffffffffffff168152602001908152602001600020549050919050565b606060018054610925906125a9565b80601f0160208091040260200160405190810160405280929190818152602001828054610951906125a9565b801561099e5780601f106109735761010080835404028352916020019161099e565b820191906000526020600020905b81548152906001019060200180831161098157829003601f168201915b5050505050905090565b6109ba6109b3610cdc565b8383611354565b5050565b6109cf6109c9610cdc565b83610d9d565b610a0e576040517f08c379a0000000000000000000000000000000000000000000000000000000008152600401610a0590612333565b60405180910390fd5b610a1a848484846114c1565b50505050565b6060610a2b82610c70565b610a6a576040517f08c379a0000000000000000000000000000000000000000000000000000000008152600401610a61906122b3565b60405180910390fd5b6000600660008481526020019081526020016000208054610a8a906125a9565b80601f0160208091040260200160405190810160405280929190818152602001828054610ab6906125a9565b8015610b035780601f10610ad857610100808354040283529160200191610b03565b820191906000526020600020905b815481529060010190602001808311610ae657829003601f168201915b505050505090506000610b1461151d565b9050600081511415610b2a578192505050610b6d565b600082511115610b5f578082604051602001610b4792919061208b565b60405160208183030381529060405292505050610b6d565b610b6884611534565b925050505b919050565b6000600560008473ffffffffffffffffffffffffffffffffffffffff1673ffffffffffffffffffffffffffffffffffffffff16815260200190815260200160002060008373ffffffffffffffffffffffffffffffffffffffff1673ffffffffffffffffffffffffffffffffffffffff16815260200190815260200160002060009054906101000a900460ff16905092915050565b60007f01ffc9a7000000000000000000000000000000000000000000000000000000007bffffffffffffffffffffffffffffffffffffffffffffffffffffffff1916827bffffffffffffffffffffffffffffffffffffffffffffffffffffffff1916149050919050565b60008073ffffffffffffffffffffffffffffffffffffffff166002600084815260200190815260200160002060009054906101000a900473ffffffffffffffffffffffffffffffffffffffff1673ffffffffffffffffffffffffffffffffffffffff1614159050919050565b600033905090565b816004600083815260200190815260200160002060006101000a81548173ffffffffffffffffffffffffffffffffffffffff021916908373ffffffffffffffffffffffffffffffffffffffff160217905550808273ffffffffffffffffffffffffffffffffffffffff16610d57836107ac565b73ffffffffffffffffffffffffffffffffffffffff167f8c5be1e5ebec7d5bd14f71427d1e84f3dd0314c0f7b2291e5b200ac8c7c3b92560405160405180910390a45050565b6000610da882610c70565b610de7576040517f08c379a0000000000000000000000000000000000000000000000000000000008152600401610dde906121f3565b60405180910390fd5b6000610df2836107ac565b90508073ffffffffffffffffffffffffffffffffffffffff168473ffffffffffffffffffffffffffffffffffffffff161480610e345750610e338185610b72565b5b80610e7257508373ffffffffffffffffffffffffffffffffffffffff16610e5a846104b9565b73ffffffffffffffffffffffffffffffffffffffff16145b91505092915050565b8273ffffffffffffffffffffffffffffffffffffffff16610e9b826107ac565b73ffffffffffffffffffffffffffffffffffffffff1614610ef1576040517f08c379a0000000000000000000000000000000000000000000000000000000008152600401610ee890612173565b60405180910390fd5b600073ffffffffffffffffffffffffffffffffffffffff168273ffffffffffffffffffffffffffffffffffffffff161415610f61576040517f08c379a0000000000000000000000000000000000000000000000000000000008152600401610f58906121b3565b60405180910390fd5b610f6c8383836115db565b610f77600082610ce4565b6001600360008573ffffffffffffffffffffffffffffffffffffffff1673ffffffffffffffffffffffffffffffffffffffff1681526020019081526020016000206000828254610fc791906124bf565b925050819055506001600360008473ffffffffffffffffffffffffffffffffffffffff1673ffffffffffffffffffffffffffffffffffffffff168152602001908152602001600020600082825461101e9190612438565b92505081905550816002600083815260200190815260200160002060006101000a81548173ffffffffffffffffffffffffffffffffffffffff021916908373ffffffffffffffffffffffffffffffffffffffff160217905550808273ffffffffffffffffffffffffffffffffffffffff168473ffffffffffffffffffffffffffffffffffffffff167fddf252ad1be2c89b69c2b068fc378daa952ba7f163c4a11628f55a4df523b3ef60405160405180910390a46110dd8383836115e0565b505050565b6001816000016000828254019250508190555050565b600081600001549050919050565b600073ffffffffffffffffffffffffffffffffffffffff168273ffffffffffffffffffffffffffffffffffffffff161415611176576040517f08c379a000000000000000000000000000000000000000000000000000000000815260040161116d90612293565b60405180910390fd5b61117f81610c70565b156111bf576040517f08c379a00000000000000000000000000000000000000000000000000000000081526004016111b690612193565b60405180910390fd5b6111cb600083836115db565b6001600360008473ffffffffffffffffffffffffffffffffffffffff1673ffffffffffffffffffffffffffffffffffffffff168152602001908152602001600020600082825461121b9190612438565b92505081905550816002600083815260200190815260200160002060006101000a81548173ffffffffffffffffffffffffffffffffffffffff021916908373ffffffffffffffffffffffffffffffffffffffff160217905550808273ffffffffffffffffffffffffffffffffffffffff16600073ffffffffffffffffffffffffffffffffffffffff167fddf252ad1be2c89b69c2b068fc378daa952ba7f163c4a11628f55a4df523b3ef60405160405180910390a46112dc600083836115e0565b5050565b6112e982610c70565b611328576040517f08c379a000000000000000000000000000000000000000000000000000000000815260040161131f90612273565b60405180910390fd5b8060066000848152602001908152602001600020908051906020019061134f92919061194c565b505050565b8173ffffffffffffffffffffffffffffffffffffffff168373ffffffffffffffffffffffffffffffffffffffff1614156113c3576040517f08c379a00000000000000000000000000000000000000000000000000000000081526004016113ba906121d3565b60405180910390fd5b80600560008573ffffffffffffffffffffffffffffffffffffffff1673ffffffffffffffffffffffffffffffffffffffff16815260200190815260200160002060008473ffffffffffffffffffffffffffffffffffffffff1673ffffffffffffffffffffffffffffffffffffffff16815260200190815260200160002060006101000a81548160ff0219169083151502179055508173ffffffffffffffffffffffffffffffffffffffff168373ffffffffffffffffffffffffffffffffffffffff167f17307eab39ab6107e8899845ad3d59bd9653f200f220920489ca2b5937696c31836040516114b49190612116565b60405180910390a3505050565b6114cc848484610e7b565b6114d8848484846115e5565b611517576040517f08c379a000000000000000000000000000000000000000000000000000000000815260040161150e90612153565b60405180910390fd5b50505050565b606060405180602001604052806000815250905090565b606061153f82610c70565b61157e576040517f08c379a0000000000000000000000000000000000000000000000000000000008152600401611575906122f3565b60405180910390fd5b600061158861151d565b905060008151116115a857604051806020016040528060008152506115d3565b806115b28461177c565b6040516020016115c392919061208b565b6040516020818303038152906040525b915050919050565b505050565b505050565b60006116068473ffffffffffffffffffffffffffffffffffffffff16611929565b1561176f578373ffffffffffffffffffffffffffffffffffffffff1663150b7a0261162f610cdc565b8786866040518563ffffffff1660e01b815260040161165194939291906120ca565b602060405180830381600087803b15801561166b57600080fd5b505af192505050801561169c57506040513d601f19601f820116820180604052508101906116999190611cf8565b60015b61171f573d80600081146116cc576040519150601f19603f3d011682016040523d82523d6000602084013e6116d1565b606091505b50600081511415611717576040517f08c379a000000000000000000000000000000000000000000000000000000000815260040161170e90612153565b60405180910390fd5b805181602001fd5b63150b7a0260e01b7bffffffffffffffffffffffffffffffffffffffffffffffffffffffff1916817bffffffffffffffffffffffffffffffffffffffffffffffffffffffff191614915050611774565b600190505b949350505050565b606060008214156117c4576040518060400160405280600181526020017f30000000000000000000000000000000000000000000000000000000000000008152509050611924565b600082905060005b600082146117f65780806117df9061260c565b915050600a826117ef919061248e565b91506117cc565b60008167ffffffffffffffff811115611838577f4e487b7100000000000000000000000000000000000000000000000000000000600052604160045260246000fd5b6040519080825280601f01601f19166020018201604052801561186a5781602001600182028036833780820191505090505b5090505b6000851461191d5760018261188391906124bf565b9150600a856118929190612655565b603061189e9190612438565b60f81b8183815181106118da577f4e487b7100000000000000000000000000000000000000000000000000000000600052603260045260246000fd5b60200101907effffffffffffffffffffffffffffffffffffffffffffffffffffffffffffff1916908160001a905350600a85611916919061248e565b945061186e565b8093505050505b919050565b6000808273ffffffffffffffffffffffffffffffffffffffff163b119050919050565b828054611958906125a9565b90600052602060002090601f01602090048101928261197a57600085556119c1565b82601f1061199357805160ff19168380011785556119c1565b828001600101855582156119c1579182015b828111156119c05782518255916020019190600101906119a5565b5b5090506119ce91906119d2565b5090565b5b808211156119eb5760008160009055506001016119d3565b5090565b6000611a026119fd84612393565b61236e565b905082815260208101848484011115611a1a57600080fd5b611a25848285612567565b509392505050565b6000611a40611a3b846123c4565b61236e565b905082815260208101848484011115611a5857600080fd5b611a63848285612567565b509392505050565b600081359050611a7a81612bd1565b92915050565b600081359050611a8f81612be8565b92915050565b600081359050611aa481612bff565b92915050565b600081519050611ab981612bff565b92915050565b600082601f830112611ad057600080fd5b8135611ae08482602086016119ef565b91505092915050565b600082601f830112611afa57600080fd5b8135611b0a848260208601611a2d565b91505092915050565b600081359050611b2281612c16565b92915050565b600060208284031215611b3a57600080fd5b6000611b4884828501611a6b565b91505092915050565b60008060408385031215611b6457600080fd5b6000611b7285828601611a6b565b9250506020611b8385828601611a6b565b9150509250929050565b600080600060608486031215611ba257600080fd5b6000611bb086828701611a6b565b9350506020611bc186828701611a6b565b9250506040611bd286828701611b13565b9150509250925092565b60008060008060808587031215611bf257600080fd5b6000611c0087828801611a6b565b9450506020611c1187828801611a6b565b9350506040611c2287828801611b13565b925050606085013567ffffffffffffffff811115611c3f57600080fd5b611c4b87828801611abf565b91505092959194509250565b60008060408385031215611c6a57600080fd5b6000611c7885828601611a6b565b9250506020611c8985828601611a80565b9150509250929050565b60008060408385031215611ca657600080fd5b6000611cb485828601611a6b565b9250506020611cc585828601611b13565b9150509250929050565b600060208284031215611ce157600080fd5b6000611cef84828501611a95565b91505092915050565b600060208284031215611d0a57600080fd5b6000611d1884828501611aaa565b91505092915050565b600060208284031215611d3357600080fd5b600082013567ffffffffffffffff811115611d4d57600080fd5b611d5984828501611ae9565b91505092915050565b600060208284031215611d7457600080fd5b6000611d8284828501611b13565b91505092915050565b611d94816124f3565b82525050565b611da381612505565b82525050565b6000611db4826123f5565b611dbe818561240b565b9350611dce818560208601612576565b611dd781612742565b840191505092915050565b6000611ded82612400565b611df7818561241c565b9350611e07818560208601612576565b611e1081612742565b840191505092915050565b6000611e2682612400565b611e30818561242d565b9350611e40818560208601612576565b80840191505092915050565b6000611e5960328361241c565b9150611e6482612753565b604082019050919050565b6000611e7c60258361241c565b9150611e87826127a2565b604082019050919050565b6000611e9f601c8361241c565b9150611eaa826127f1565b602082019050919050565b6000611ec260248361241c565b9150611ecd8261281a565b604082019050919050565b6000611ee560198361241c565b9150611ef082612869565b602082019050919050565b6000611f08602c8361241c565b9150611f1382612892565b604082019050919050565b6000611f2b60388361241c565b9150611f36826128e1565b604082019050919050565b6000611f4e602a8361241c565b9150611f5982612930565b604082019050919050565b6000611f7160298361241c565b9150611f7c8261297f565b604082019050919050565b6000611f94602e8361241c565b9150611f9f826129ce565b604082019050919050565b6000611fb760208361241c565b9150611fc282612a1d565b602082019050919050565b6000611fda60318361241c565b9150611fe582612a46565b604082019050919050565b6000611ffd602c8361241c565b915061200882612a95565b604082019050919050565b6000612020602f8361241c565b915061202b82612ae4565b604082019050919050565b600061204360218361241c565b915061204e82612b33565b604082019050919050565b600061206660318361241c565b915061207182612b82565b604082019050919050565b6120858161255d565b82525050565b60006120978285611e1b565b91506120a38284611e1b565b91508190509392505050565b60006020820190506120c46000830184611d8b565b92915050565b60006080820190506120df6000830187611d8b565b6120ec6020830186611d8b565b6120f9604083018561207c565b818103606083015261210b8184611da9565b905095945050505050565b600060208201905061212b6000830184611d9a565b92915050565b6000602082019050818103600083015261214b8184611de2565b905092915050565b6000602082019050818103600083015261216c81611e4c565b9050919050565b6000602082019050818103600083015261218c81611e6f565b9050919050565b600060208201905081810360008301526121ac81611e92565b9050919050565b600060208201905081810360008301526121cc81611eb5565b9050919050565b600060208201905081810360008301526121ec81611ed8565b9050919050565b6000602082019050818103600083015261220c81611efb565b9050919050565b6000602082019050818103600083015261222c81611f1e565b9050919050565b6000602082019050818103600083015261224c81611f41565b9050919050565b6000602082019050818103600083015261226c81611f64565b9050919050565b6000602082019050818103600083015261228c81611f87565b9050919050565b600060208201905081810360008301526122ac81611faa565b9050919050565b600060208201905081810360008301526122cc81611fcd565b9050919050565b600060208201905081810360008301526122ec81611ff0565b9050919050565b6000602082019050818103600083015261230c81612013565b9050919050565b6000602082019050818103600083015261232c81612036565b9050919050565b6000602082019050818103600083015261234c81612059565b9050919050565b6000602082019050612368600083018461207c565b92915050565b6000612378612389565b905061238482826125db565b919050565b6000604051905090565b600067ffffffffffffffff8211156123ae576123ad612713565b5b6123b782612742565b9050602081019050919050565b600067ffffffffffffffff8211156123df576123de612713565b5b6123e882612742565b9050602081019050919050565b600081519050919050565b600081519050919050565b600082825260208201905092915050565b600082825260208201905092915050565b600081905092915050565b60006124438261255d565b915061244e8361255d565b9250827fffffffffffffffffffffffffffffffffffffffffffffffffffffffffffffffff0382111561248357612482612686565b5b828201905092915050565b60006124998261255d565b91506124a48361255d565b9250826124b4576124b36126b5565b5b828204905092915050565b60006124ca8261255d565b91506124d58361255d565b9250828210156124e8576124e7612686565b5b828203905092915050565b60006124fe8261253d565b9050919050565b60008115159050919050565b60007fffffffff0000000000000000000000000000000000000000000000000000000082169050919050565b600073ffffffffffffffffffffffffffffffffffffffff82169050919050565b6000819050919050565b82818337600083830152505050565b60005b83811015612594578082015181840152602081019050612579565b838111156125a3576000848401525b50505050565b600060028204905060018216806125c157607f821691505b602082108114156125d5576125d46126e4565b5b50919050565b6125e482612742565b810181811067ffffffffffffffff8211171561260357612602612713565b5b80604052505050565b60006126178261255d565b91507fffffffffffffffffffffffffffffffffffffffffffffffffffffffffffffffff82141561264a57612649612686565b5b600182019050919050565b60006126608261255d565b915061266b8361255d565b92508261267b5761267a6126b5565b5b828206905092915050565b7f4e487b7100000000000000000000000000000000000000000000000000000000600052601160045260246000fd5b7f4e487b7100000000000000000000000000000000000000000000000000000000600052601260045260246000fd5b7f4e487b7100000000000000000000000000000000000000000000000000000000600052602260045260246000fd5b7f4e487b7100000000000000000000000000000000000000000000000000000000600052604160045260246000fd5b6000601f19601f8301169050919050565b7f4552433732313a207472616e7366657220746f206e6f6e20455243373231526560008201527f63656976657220696d706c656d656e7465720000000000000000000000000000602082015250565b7f4552433732313a207472616e736665722066726f6d20696e636f72726563742060008201527f6f776e6572000000000000000000000000000000000000000000000000000000602082015250565b7f4552433732313a20746f6b656e20616c7265616479206d696e74656400000000600082015250565b7f4552433732313a207472616e7366657220746f20746865207a65726f2061646460008201527f7265737300000000000000000000000000000000000000000000000000000000602082015250565b7f4552433732313a20617070726f766520746f2063616c6c657200000000000000600082015250565b7f4552433732313a206f70657261746f7220717565727920666f72206e6f6e657860008201527f697374656e7420746f6b656e0000000000000000000000000000000000000000602082015250565b7f4552433732313a20617070726f76652063616c6c6572206973206e6f74206f7760008201527f6e6572206e6f7220617070726f76656420666f7220616c6c0000000000000000602082015250565b7f4552433732313a2062616c616e636520717565727920666f7220746865207a6560008201527f726f206164647265737300000000000000000000000000000000000000000000602082015250565b7f4552433732313a206f776e657220717565727920666f72206e6f6e657869737460008201527f656e7420746f6b656e0000000000000000000000000000000000000000000000602082015250565b7f45524337323155524953746f726167653a2055524920736574206f66206e6f6e60008201527f6578697374656e7420746f6b656e000000000000000000000000000000000000602082015250565b7f4552433732313a206d696e7420746f20746865207a65726f2061646472657373600082015250565b7f45524337323155524953746f726167653a2055524920717565727920666f722060008201527f6e6f6e6578697374656e7420746f6b656e000000000000000000000000000000602082015250565b7f4552433732313a20617070726f76656420717565727920666f72206e6f6e657860008201527f697374656e7420746f6b656e0000000000000000000000000000000000000000602082015250565b7f4552433732314d657461646174613a2055524920717565727920666f72206e6f60008201527f6e6578697374656e7420746f6b656e0000000000000000000000000000000000602082015250565b7f4552433732313a20617070726f76616c20746f2063757272656e74206f776e6560008201527f7200000000000000000000000000000000000000000000000000000000000000602082015250565b7f4552433732313a207472616e736665722063616c6c6572206973206e6f74206f60008201527f776e6572206e6f7220617070726f766564000000000000000000000000000000602082015250565b612bda816124f3565b8114612be557600080fd5b50565b612bf181612505565b8114612bfc57600080fd5b50565b612c0881612511565b8114612c1357600080fd5b50565b612c1f8161255d565b8114612c2a57600080fd5b5056fea2646970667358221220828373867e4262a3dcfb9543312092f337d366c9d8ac527eb8513875d958cffc64736f6c63430008040033",
  "immutableReferences": {},
  "source": "// SPDX-License-Identifier: MIT\r\npragma solidity ^0.8.4;\r\n\r\n// erc 721\r\nimport \"@openzeppelin/contracts/token/ERC721/ERC721.sol\";\r\n\r\n// ERC721URIStorage (inherits from erc 721)\r\nimport \"@openzeppelin/contracts/token/ERC721/extensions/ERC721URIStorage.sol\";\r\n\r\n// utils\r\nimport \"@openzeppelin/contracts/utils/Counters.sol\";\r\n\r\ncontract NFT721 is ERC721URIStorage {\r\n    using Counters for Counters.Counter;\r\n    Counters.Counter public _tokensIds; // for minting incrementing\r\n    address contractAddress; // market place address we gonna give ability to transact the tokens;\r\n\r\n    constructor(address marketplaceAddress) ERC721(\"Metaverse Tokens\", \"METT\") {\r\n        contractAddress = marketplaceAddress;\r\n    }\r\n\r\n    event Mint(uint256 newItemId);\r\n\r\n    function createToken(string memory tokenURI) public returns (uint256) {\r\n        _tokensIds.increment();\r\n        uint256 newItemId = _tokensIds.current();\r\n        // minting\r\n        _mint(msg.sender, newItemId);\r\n        //\r\n        _setTokenURI(newItemId, tokenURI);\r\n        // give the marketplace approval to transcat this token between users\r\n        setApprovalForAll(contractAddress, true);\r\n        \r\n        emit Mint(newItemId);\r\n        return newItemId;\r\n    }\r\n\r\n\r\n    function approveAll() public {\r\n        setApprovalForAll(contractAddress, true);\r\n    }\r\n}\r\n",
  "sourcePath": "E:\\Dev\\2022-4-25-pulsechain-nft\\nft-front-grey\\src\\contracts\\NFT721.sol",
  "compiler": {
    "name": "solc",
    "version": "0.8.4+commit.c7e474f2.Emscripten.clang"
  },
  "schemaVersion": "3.4.4",
  "updatedAt": "2022-06-29T11:27:08.577Z",
  "devdoc": {
    "kind": "dev",
    "methods": {
      "approve(address,uint256)": {
        "details": "See {IERC721-approve}."
      },
      "balanceOf(address)": {
        "details": "See {IERC721-balanceOf}."
      },
      "getApproved(uint256)": {
        "details": "See {IERC721-getApproved}."
      },
      "isApprovedForAll(address,address)": {
        "details": "See {IERC721-isApprovedForAll}."
      },
      "name()": {
        "details": "See {IERC721Metadata-name}."
      },
      "ownerOf(uint256)": {
        "details": "See {IERC721-ownerOf}."
      },
      "safeTransferFrom(address,address,uint256)": {
        "details": "See {IERC721-safeTransferFrom}."
      },
      "safeTransferFrom(address,address,uint256,bytes)": {
        "details": "See {IERC721-safeTransferFrom}."
      },
      "setApprovalForAll(address,bool)": {
        "details": "See {IERC721-setApprovalForAll}."
      },
      "supportsInterface(bytes4)": {
        "details": "See {IERC165-supportsInterface}."
      },
      "symbol()": {
        "details": "See {IERC721Metadata-symbol}."
      },
      "tokenURI(uint256)": {
        "details": "See {IERC721Metadata-tokenURI}."
      },
      "transferFrom(address,address,uint256)": {
        "details": "See {IERC721-transferFrom}."
      }
    },
    "version": 1
  },
  "userdoc": {
    "kind": "user",
    "methods": {},
    "version": 1
  }
}