{
  "contractName": "NFTMarket721",
  "abi": [
    {
      "inputs": [],
      "stateMutability": "nonpayable",
      "type": "constructor"
    },
    {
      "anonymous": false,
      "inputs": [
        {
          "indexed": true,
          "internalType": "uint256",
          "name": "itemId",
          "type": "uint256"
        },
        {
          "indexed": true,
          "internalType": "address",
          "name": "nftContract",
          "type": "address"
        },
        {
          "indexed": true,
          "internalType": "uint256",
          "name": "tokenId",
          "type": "uint256"
        },
        {
          "indexed": false,
          "internalType": "uint256",
          "name": "price",
          "type": "uint256"
        },
        {
          "indexed": false,
          "internalType": "address",
          "name": "ownerAddress",
          "type": "address"
        }
      ],
      "name": "MarketItemCreated",
      "type": "event"
    },
    {
      "inputs": [
        {
          "internalType": "uint256",
          "name": "",
          "type": "uint256"
        }
      ],
      "name": "idToMarketItem",
      "outputs": [
        {
          "internalType": "uint256",
          "name": "itemId",
          "type": "uint256"
        },
        {
          "internalType": "address",
          "name": "nftContract",
          "type": "address"
        },
        {
          "internalType": "uint256",
          "name": "tokenId",
          "type": "uint256"
        },
        {
          "internalType": "uint256",
          "name": "price",
          "type": "uint256"
        },
        {
          "internalType": "address",
          "name": "ownerAddress",
          "type": "address"
        }
      ],
      "stateMutability": "view",
      "type": "function"
    },
    {
      "inputs": [],
      "name": "getListingPrice",
      "outputs": [
        {
          "internalType": "uint256",
          "name": "",
          "type": "uint256"
        }
      ],
      "stateMutability": "view",
      "type": "function"
    },
    {
      "inputs": [
        {
          "internalType": "address",
          "name": "nftContract",
          "type": "address"
        },
        {
          "internalType": "uint256",
          "name": "tokenId",
          "type": "uint256"
        },
        {
          "internalType": "uint256",
          "name": "price",
          "type": "uint256"
        }
      ],
      "name": "createMarketItem",
      "outputs": [],
      "stateMutability": "payable",
      "type": "function"
    },
    {
      "inputs": [
        {
          "internalType": "uint256",
          "name": "amount",
          "type": "uint256"
        },
        {
          "internalType": "uint256",
          "name": "percent",
          "type": "uint256"
        }
      ],
      "name": "getAmountAfterPercent",
      "outputs": [
        {
          "internalType": "uint256",
          "name": "",
          "type": "uint256"
        }
      ],
      "stateMutability": "pure",
      "type": "function"
    },
    {
      "inputs": [
        {
          "internalType": "address",
          "name": "nftContract",
          "type": "address"
        },
        {
          "internalType": "uint256",
          "name": "itemId",
          "type": "uint256"
        },
        {
          "internalType": "uint256",
          "name": "royalty",
          "type": "uint256"
        },
        {
          "internalType": "address payable",
          "name": "creator",
          "type": "address"
        },
        {
          "internalType": "address payable",
          "name": "seller",
          "type": "address"
        },
        {
          "internalType": "address payable",
          "name": "buyer",
          "type": "address"
        }
      ],
      "name": "createMarketSale",
      "outputs": [],
      "stateMutability": "payable",
      "type": "function"
    },
    {
      "inputs": [
        {
          "internalType": "address",
          "name": "nftContract",
          "type": "address"
        },
        {
          "internalType": "uint256",
          "name": "itemId",
          "type": "uint256"
        },
        {
          "internalType": "uint256",
          "name": "royalty",
          "type": "uint256"
        },
        {
          "internalType": "address payable",
          "name": "creator",
          "type": "address"
        },
        {
          "internalType": "address payable",
          "name": "seller",
          "type": "address"
        },
        {
          "internalType": "address payable",
          "name": "buyer",
          "type": "address"
        }
      ],
      "name": "createAuctionMarketSale",
      "outputs": [],
      "stateMutability": "payable",
      "type": "function"
    },
    {
      "inputs": [
        {
          "internalType": "address",
          "name": "nftContract",
          "type": "address"
        },
        {
          "internalType": "uint256",
          "name": "itemId",
          "type": "uint256"
        }
      ],
      "name": "withdrawNft",
      "outputs": [],
      "stateMutability": "nonpayable",
      "type": "function"
    }
  ],
  "bytecode": "0x60806040526658d15e1762800060045534801561001b57600080fd5b50600160008190555033600360006101000a81548173ffffffffffffffffffffffffffffffffffffffff021916908373ffffffffffffffffffffffffffffffffffffffff16021790555061140c806100746000396000f3fe6080604052600436106100705760003560e01c8063894276d61161004e578063894276d6146100d8578063a0c6b4cf14610115578063d8fc651914610131578063e61a70c01461015a57610070565b806312e855851461007557806345450128146100a057806358eb2df5146100bc575b600080fd5b34801561008157600080fd5b5061008a61019b565b6040516100979190610fe0565b60405180910390f35b6100ba60048036038101906100b59190610cc5565b6101a5565b005b6100d660048036038101906100d19190610c76565b610455565b005b3480156100e457600080fd5b506100ff60048036038101906100fa9190610d77565b610726565b60405161010c9190610fe0565b60405180910390f35b61012f600480360381019061012a9190610cc5565b610793565b005b34801561013d57600080fd5b5061015860048036038101906101539190610c3a565b610a28565b005b34801561016657600080fd5b50610181600480360381019061017c9190610d4e565b610b61565b604051610192959493929190611024565b60405180910390f35b6000600454905090565b600260005414156101eb576040517f08c379a00000000000000000000000000000000000000000000000000000000081526004016101e290610fa0565b60405180910390fd5b600260008190555060006005600087815260200190815260200160002060030154905060006005600088815260200190815260200160002060020154905081341461026b576040517f08c379a000000000000000000000000000000000000000000000000000000000815260040161026290610f60565b60405180910390fd5b60008611156103215760006102803488610726565b90508573ffffffffffffffffffffffffffffffffffffffff166108fc829081150290604051600060405180830381858888f193505050501580156102c8573d6000803e3d6000fd5b508473ffffffffffffffffffffffffffffffffffffffff166108fc82346102ef9190611113565b9081150290604051600060405180830381858888f1935050505015801561031a573d6000803e3d6000fd5b5050610369565b8373ffffffffffffffffffffffffffffffffffffffff166108fc349081150290604051600060405180830381858888f19350505050158015610367573d6000803e3d6000fd5b505b8773ffffffffffffffffffffffffffffffffffffffff166323b872dd3085846040518463ffffffff1660e01b81526004016103a693929190610eb2565b600060405180830381600087803b1580156103c057600080fd5b505af11580156103d4573d6000803e3d6000fd5b50505050600360009054906101000a900473ffffffffffffffffffffffffffffffffffffffff1673ffffffffffffffffffffffffffffffffffffffff166108fc6004549081150290604051600060405180830381858888f19350505050158015610442573d6000803e3d6000fd5b5050506001600081905550505050505050565b6002600054141561049b576040517f08c379a000000000000000000000000000000000000000000000000000000000815260040161049290610fa0565b60405180910390fd5b6002600081905550600081116104e6576040517f08c379a00000000000000000000000000000000000000000000000000000000081526004016104dd90610fc0565b60405180910390fd5b600454341461052a576040517f08c379a000000000000000000000000000000000000000000000000000000000815260040161052190610f80565b60405180910390fd5b6105346001610bd7565b60006105406001610bed565b90506040518060a001604052808281526020018573ffffffffffffffffffffffffffffffffffffffff1681526020018481526020018381526020013373ffffffffffffffffffffffffffffffffffffffff16815250600560008381526020019081526020016000206000820151816000015560208201518160010160006101000a81548173ffffffffffffffffffffffffffffffffffffffff021916908373ffffffffffffffffffffffffffffffffffffffff160217905550604082015181600201556060820151816003015560808201518160040160006101000a81548173ffffffffffffffffffffffffffffffffffffffff021916908373ffffffffffffffffffffffffffffffffffffffff1602179055509050508373ffffffffffffffffffffffffffffffffffffffff166323b872dd3330866040518463ffffffff1660e01b815260040161069493929190610ee9565b600060405180830381600087803b1580156106ae57600080fd5b505af11580156106c2573d6000803e3d6000fd5b50505050828473ffffffffffffffffffffffffffffffffffffffff16827f387eea2ecd8ddf3b594c614603417115fa422dd42b6b7f4ab7a8a157a22339388533604051610710929190610ffb565b60405180910390a4506001600081905550505050565b600061271083101561076d576040517f08c379a000000000000000000000000000000000000000000000000000000000815260040161076490610f40565b60405180910390fd5b60008290506064818561078091906110b9565b61078a9190611088565b91505092915050565b600260005414156107d9576040517f08c379a00000000000000000000000000000000000000000000000000000000081526004016107d090610fa0565b60405180910390fd5b60026000819055506000600560008781526020019081526020016000206002015490506000341161083f576040517f08c379a000000000000000000000000000000000000000000000000000000000815260040161083690610f60565b60405180910390fd5b60008511156108f55760006108543487610726565b90508473ffffffffffffffffffffffffffffffffffffffff166108fc829081150290604051600060405180830381858888f1935050505015801561089c573d6000803e3d6000fd5b508373ffffffffffffffffffffffffffffffffffffffff166108fc82346108c39190611113565b9081150290604051600060405180830381858888f193505050501580156108ee573d6000803e3d6000fd5b505061093d565b8273ffffffffffffffffffffffffffffffffffffffff166108fc349081150290604051600060405180830381858888f1935050505015801561093b573d6000803e3d6000fd5b505b8673ffffffffffffffffffffffffffffffffffffffff166323b872dd3084846040518463ffffffff1660e01b815260040161097a93929190610eb2565b600060405180830381600087803b15801561099457600080fd5b505af11580156109a8573d6000803e3d6000fd5b50505050600360009054906101000a900473ffffffffffffffffffffffffffffffffffffffff1673ffffffffffffffffffffffffffffffffffffffff166108fc6004549081150290604051600060405180830381858888f19350505050158015610a16573d6000803e3d6000fd5b50506001600081905550505050505050565b60006005600083815260200190815260200160002060040160009054906101000a900473ffffffffffffffffffffffffffffffffffffffff1690506000600560008481526020019081526020016000206002015490508173ffffffffffffffffffffffffffffffffffffffff163373ffffffffffffffffffffffffffffffffffffffff1614610aec576040517f08c379a0000000000000000000000000000000000000000000000000000000008152600401610ae390610f20565b60405180910390fd5b8373ffffffffffffffffffffffffffffffffffffffff166323b872dd3084846040518463ffffffff1660e01b8152600401610b2993929190610ee9565b600060405180830381600087803b158015610b4357600080fd5b505af1158015610b57573d6000803e3d6000fd5b5050505050505050565b60056020528060005260406000206000915090508060000154908060010160009054906101000a900473ffffffffffffffffffffffffffffffffffffffff16908060020154908060030154908060040160009054906101000a900473ffffffffffffffffffffffffffffffffffffffff16905085565b6001816000016000828254019250508190555050565b600081600001549050919050565b600081359050610c0a81611391565b92915050565b600081359050610c1f816113a8565b92915050565b600081359050610c34816113bf565b92915050565b60008060408385031215610c4d57600080fd5b6000610c5b85828601610bfb565b9250506020610c6c85828601610c25565b9150509250929050565b600080600060608486031215610c8b57600080fd5b6000610c9986828701610bfb565b9350506020610caa86828701610c25565b9250506040610cbb86828701610c25565b9150509250925092565b60008060008060008060c08789031215610cde57600080fd5b6000610cec89828a01610bfb565b9650506020610cfd89828a01610c25565b9550506040610d0e89828a01610c25565b9450506060610d1f89828a01610c10565b9350506080610d3089828a01610c10565b92505060a0610d4189828a01610c10565b9150509295509295509295565b600060208284031215610d6057600080fd5b6000610d6e84828501610c25565b91505092915050565b60008060408385031215610d8a57600080fd5b6000610d9885828601610c25565b9250506020610da985828601610c25565b9150509250929050565b610dbc81611195565b82525050565b610dcb81611147565b82525050565b6000610dde602283611077565b9150610de982611229565b604082019050919050565b6000610e01601383611077565b9150610e0c82611278565b602082019050919050565b6000610e24604083611077565b9150610e2f826112a1565b604082019050919050565b6000610e47602483611077565b9150610e52826112f0565b604082019050919050565b6000610e6a601f83611077565b9150610e758261133f565b602082019050919050565b6000610e8d601c83611077565b9150610e9882611368565b602082019050919050565b610eac8161118b565b82525050565b6000606082019050610ec76000830186610dc2565b610ed46020830185610db3565b610ee16040830184610ea3565b949350505050565b6000606082019050610efe6000830186610dc2565b610f0b6020830185610dc2565b610f186040830184610ea3565b949350505050565b60006020820190508181036000830152610f3981610dd1565b9050919050565b60006020820190508181036000830152610f5981610df4565b9050919050565b60006020820190508181036000830152610f7981610e17565b9050919050565b60006020820190508181036000830152610f9981610e3a565b9050919050565b60006020820190508181036000830152610fb981610e5d565b9050919050565b60006020820190508181036000830152610fd981610e80565b9050919050565b6000602082019050610ff56000830184610ea3565b92915050565b60006040820190506110106000830185610ea3565b61101d6020830184610dc2565b9392505050565b600060a0820190506110396000830188610ea3565b6110466020830187610dc2565b6110536040830186610ea3565b6110606060830185610ea3565b61106d6080830184610dc2565b9695505050505050565b600082825260208201905092915050565b60006110938261118b565b915061109e8361118b565b9250826110ae576110ad6111fa565b5b828204905092915050565b60006110c48261118b565b91506110cf8361118b565b9250817fffffffffffffffffffffffffffffffffffffffffffffffffffffffffffffffff0483118215151615611108576111076111cb565b5b828202905092915050565b600061111e8261118b565b91506111298361118b565b92508282101561113c5761113b6111cb565b5b828203905092915050565b60006111528261116b565b9050919050565b60006111648261116b565b9050919050565b600073ffffffffffffffffffffffffffffffffffffffff82169050919050565b6000819050919050565b60006111a0826111a7565b9050919050565b60006111b2826111b9565b9050919050565b60006111c48261116b565b9050919050565b7f4e487b7100000000000000000000000000000000000000000000000000000000600052601160045260246000fd5b7f4e487b7100000000000000000000000000000000000000000000000000000000600052601260045260246000fd5b7f596f7520617265206e6f7420746865206f776e6572206f662074686973206e6660008201527f7421000000000000000000000000000000000000000000000000000000000000602082015250565b7f6e756d62657220697320746f6f20736d616c6c00000000000000000000000000600082015250565b7f506c65617365207375626d6974207468652061736b696e67207072696365206960008201527f6e206f7264657220746f20636f6d706c65746520746865207075726368617365602082015250565b7f5072696365206d75737420626520657175616c20746f206c697374696e67207060008201527f7269636500000000000000000000000000000000000000000000000000000000602082015250565b7f5265656e7472616e637947756172643a207265656e7472616e742063616c6c00600082015250565b7f5072696365206d757374206265206174206c6561737420312077656900000000600082015250565b61139a81611147565b81146113a557600080fd5b50565b6113b181611159565b81146113bc57600080fd5b50565b6113c88161118b565b81146113d357600080fd5b5056fea26469706673582212203755778e189ef8e3f79938fc50cf32329dccc39810c530bed21dda44c42dcf9e64736f6c63430008040033",
  "immutableReferences": {},
  "source": "// contracts/Market.sol\n// SPDX-License-Identifier: MIT OR Apache-2.0\npragma solidity ^0.8.4;\n\nimport \"@openzeppelin/contracts/token/ERC721/ERC721.sol\";\nimport \"@openzeppelin/contracts/utils/Counters.sol\";\n// security\nimport \"@openzeppelin/contracts/security/ReentrancyGuard.sol\";\n\ncontract NFTMarket721 is ReentrancyGuard {\n    using Counters for Counters.Counter;\n    Counters.Counter private _itemIds;\n    Counters.Counter private _itemsSold;\n    address payable owner;\n    uint256 listingPrice = 0.025 ether;\n\n    constructor() {\n        owner = payable(msg.sender);\n    }\n\n    struct MarketItem {\n        uint256 itemId; // this\n        address nftContract; // this\n        uint256 tokenId; // this\n        uint256 price; // this\n        address ownerAddress;\n    }\n\n    mapping(uint256 => MarketItem) public idToMarketItem;\n\n    event MarketItemCreated(\n        uint256 indexed itemId,\n        address indexed nftContract,\n        uint256 indexed tokenId,\n        uint256 price,\n        address ownerAddress\n    );\n\n    /* Returns the listing price of the contract */\n    function getListingPrice() public view returns (uint256) {\n        return listingPrice;\n    }\n\n    /* Places an item for sale on the marketplace */\n    function createMarketItem(\n        address nftContract,\n        uint256 tokenId,\n        uint256 price\n    ) public payable nonReentrant {\n        require(price > 0, \"Price must be at least 1 wei\");\n        require(\n            msg.value == listingPrice,\n            \"Price must be equal to listing price\"\n        );\n\n        _itemIds.increment();\n        uint256 itemId = _itemIds.current();\n\n        idToMarketItem[itemId] = MarketItem(\n            itemId,\n            nftContract,\n            tokenId,\n            price,\n            msg.sender\n        );\n\n        IERC721(nftContract).transferFrom(msg.sender, address(this), tokenId);\n\n        emit MarketItemCreated(\n            itemId,\n            nftContract,\n            tokenId,\n            price,\n            msg.sender\n        );\n    }\n\n    function getAmountAfterPercent(uint256 amount, uint256 percent)\n        public\n        pure\n        returns (uint256)\n    {\n        require(amount >= 10000, \"number is too small\");\n        uint256 _percent = percent;\n        return (amount * _percent) / 100;\n    }\n\n    /* Creates the sale of a marketplace item */\n    /* Transfers ownership of the item, as well as funds between parties */\n    function createMarketSale(\n        address nftContract,\n        uint256 itemId, // buy!!!!\n        uint256 royalty,\n        address payable creator,\n        address payable seller,\n        address payable buyer\n    ) public payable nonReentrant {\n        uint256 price = idToMarketItem[itemId].price;\n        uint256 tokenId = idToMarketItem[itemId].tokenId;\n        require(\n            msg.value == price,\n            \"Please submit the asking price in order to complete the purchase\"\n        );\n\n        // handeling royalties\n        if (royalty > 0) {\n            uint256 creatorComission = getAmountAfterPercent(\n                msg.value,\n                royalty\n            );\n            creator.transfer(creatorComission);\n            seller.transfer(msg.value - creatorComission);\n        } else {\n            seller.transfer(msg.value);\n        }\n\n        IERC721(nftContract).transferFrom(address(this), buyer, tokenId);\n        payable(owner).transfer(listingPrice);\n    }\n\n    function createAuctionMarketSale(\n        address nftContract,\n        uint256 itemId, // buy!!!!\n        uint256 royalty,\n        address payable creator,\n        address payable seller,\n        address payable buyer\n    ) public payable nonReentrant {\n        // uint256 price = idToMarketItem[itemId].price;\n        uint256 tokenId = idToMarketItem[itemId].tokenId;\n        require(\n            msg.value > 0,\n            \"Please submit the asking price in order to complete the purchase\"\n        );\n\n        // handeling royalties\n        if (royalty > 0) {\n            uint256 creatorComission = getAmountAfterPercent(\n                msg.value,\n                royalty\n            );\n            creator.transfer(creatorComission); // send to the createor\n            seller.transfer(msg.value - creatorComission); // send to the seller\n        } else {\n            seller.transfer(msg.value); // send to the seller\n        }\n\n        IERC721(nftContract).transferFrom(address(this), buyer, tokenId); // transfer the nft\n        payable(owner).transfer(listingPrice);\n    }\n\n    function withdrawNft(address nftContract, uint256 itemId) public {\n        address ownerAddress = idToMarketItem[itemId].ownerAddress;\n        uint256 tokenId = idToMarketItem[itemId].tokenId;\n\n        require(\n            msg.sender == ownerAddress,\n            \"You are not the owner of this nft!\"\n        );\n\n        IERC721(nftContract).transferFrom(address(this), ownerAddress, tokenId); // getting the nft back\n    }\n}\n",
  "sourcePath": "/Users/timor/Desktop/nftOnPulse/nft-front/src/contracts/NFTMarket721.sol",
  "compiler": {
    "name": "solc",
    "version": "0.8.4+commit.c7e474f2.Emscripten.clang"
  },
  "schemaVersion": "3.4.6",
  "updatedAt": "2022-06-07T17:36:30.322Z",
  "devdoc": {
    "kind": "dev",
    "methods": {},
    "version": 1
  },
  "userdoc": {
    "kind": "user",
    "methods": {},
    "version": 1
  }
}