{
  "contractName": "NFTMarket",
  "abi": [
    {
      "inputs": [],
      "stateMutability": "nonpayable",
      "type": "constructor"
    },
    {
      "anonymous": false,
      "inputs": [
        {
          "indexed": true,
          "internalType": "uint256",
          "name": "listingId",
          "type": "uint256"
        },
        {
          "indexed": true,
          "internalType": "address",
          "name": "nftContract",
          "type": "address"
        },
        {
          "indexed": true,
          "internalType": "uint256",
          "name": "tokenId",
          "type": "uint256"
        },
        {
          "indexed": false,
          "internalType": "uint256",
          "name": "startPrice",
          "type": "uint256"
        },
        {
          "indexed": false,
          "internalType": "uint256",
          "name": "deadline",
          "type": "uint256"
        },
        {
          "indexed": false,
          "internalType": "address",
          "name": "creatorAddress",
          "type": "address"
        },
        {
          "indexed": false,
          "internalType": "uint256",
          "name": "royalty",
          "type": "uint256"
        },
        {
          "indexed": false,
          "internalType": "address",
          "name": "sellerAddress",
          "type": "address"
        },
        {
          "components": [
            {
              "internalType": "string",
              "name": "name",
              "type": "string"
            },
            {
              "internalType": "string",
              "name": "description",
              "type": "string"
            },
            {
              "internalType": "string",
              "name": "imageUrl",
              "type": "string"
            },
            {
              "components": [
                {
                  "internalType": "string",
                  "name": "display_type",
                  "type": "string"
                },
                {
                  "internalType": "string",
                  "name": "trait_type",
                  "type": "string"
                },
                {
                  "internalType": "string",
                  "name": "value",
                  "type": "string"
                }
              ],
              "internalType": "struct NFTMarket.Attribute[]",
              "name": "attributes",
              "type": "tuple[]"
            },
            {
              "internalType": "bool",
              "name": "multiple",
              "type": "bool"
            },
            {
              "internalType": "string",
              "name": "collectionId",
              "type": "string"
            },
            {
              "internalType": "string",
              "name": "category",
              "type": "string"
            }
          ],
          "indexed": false,
          "internalType": "struct NFTMarket.FrontData",
          "name": "frontData",
          "type": "tuple"
        }
      ],
      "name": "AuctionMarketItemCreated",
      "type": "event"
    },
    {
      "anonymous": false,
      "inputs": [
        {
          "indexed": true,
          "internalType": "uint256",
          "name": "listingId",
          "type": "uint256"
        },
        {
          "indexed": false,
          "internalType": "address",
          "name": "bidderAddress",
          "type": "address"
        },
        {
          "indexed": false,
          "internalType": "uint256",
          "name": "price",
          "type": "uint256"
        },
        {
          "indexed": false,
          "internalType": "uint256",
          "name": "tokenId",
          "type": "uint256"
        }
      ],
      "name": "BidCreated",
      "type": "event"
    },
    {
      "anonymous": false,
      "inputs": [
        {
          "indexed": false,
          "internalType": "uint256",
          "name": "listingId",
          "type": "uint256"
        },
        {
          "indexed": false,
          "internalType": "uint256",
          "name": "tokenId",
          "type": "uint256"
        },
        {
          "indexed": false,
          "internalType": "address",
          "name": "creatorAddress",
          "type": "address"
        },
        {
          "indexed": false,
          "internalType": "address",
          "name": "sellerAddress",
          "type": "address"
        },
        {
          "indexed": false,
          "internalType": "address",
          "name": "buyerAddress",
          "type": "address"
        },
        {
          "indexed": false,
          "internalType": "uint256",
          "name": "price",
          "type": "uint256"
        },
        {
          "indexed": false,
          "internalType": "uint256",
          "name": "quantity",
          "type": "uint256"
        },
        {
          "indexed": false,
          "internalType": "uint256",
          "name": "royalty",
          "type": "uint256"
        },
        {
          "components": [
            {
              "internalType": "string",
              "name": "name",
              "type": "string"
            },
            {
              "internalType": "string",
              "name": "description",
              "type": "string"
            },
            {
              "internalType": "string",
              "name": "imageUrl",
              "type": "string"
            },
            {
              "components": [
                {
                  "internalType": "string",
                  "name": "display_type",
                  "type": "string"
                },
                {
                  "internalType": "string",
                  "name": "trait_type",
                  "type": "string"
                },
                {
                  "internalType": "string",
                  "name": "value",
                  "type": "string"
                }
              ],
              "internalType": "struct NFTMarket.Attribute[]",
              "name": "attributes",
              "type": "tuple[]"
            },
            {
              "internalType": "bool",
              "name": "multiple",
              "type": "bool"
            },
            {
              "internalType": "string",
              "name": "collectionId",
              "type": "string"
            },
            {
              "internalType": "string",
              "name": "category",
              "type": "string"
            }
          ],
          "indexed": false,
          "internalType": "struct NFTMarket.FrontData",
          "name": "frontData",
          "type": "tuple"
        }
      ],
      "name": "BuySimpleEvent",
      "type": "event"
    },
    {
      "anonymous": false,
      "inputs": [
        {
          "indexed": false,
          "internalType": "uint256",
          "name": "listingId",
          "type": "uint256"
        },
        {
          "indexed": false,
          "internalType": "uint256",
          "name": "tokenId",
          "type": "uint256"
        },
        {
          "indexed": false,
          "internalType": "address",
          "name": "creatorAddress",
          "type": "address"
        },
        {
          "indexed": false,
          "internalType": "address",
          "name": "sellerAddress",
          "type": "address"
        },
        {
          "indexed": false,
          "internalType": "uint256",
          "name": "royalty",
          "type": "uint256"
        },
        {
          "components": [
            {
              "internalType": "string",
              "name": "name",
              "type": "string"
            },
            {
              "internalType": "string",
              "name": "description",
              "type": "string"
            },
            {
              "internalType": "string",
              "name": "imageUrl",
              "type": "string"
            },
            {
              "components": [
                {
                  "internalType": "string",
                  "name": "display_type",
                  "type": "string"
                },
                {
                  "internalType": "string",
                  "name": "trait_type",
                  "type": "string"
                },
                {
                  "internalType": "string",
                  "name": "value",
                  "type": "string"
                }
              ],
              "internalType": "struct NFTMarket.Attribute[]",
              "name": "attributes",
              "type": "tuple[]"
            },
            {
              "internalType": "bool",
              "name": "multiple",
              "type": "bool"
            },
            {
              "internalType": "string",
              "name": "collectionId",
              "type": "string"
            },
            {
              "internalType": "string",
              "name": "category",
              "type": "string"
            }
          ],
          "indexed": false,
          "internalType": "struct NFTMarket.FrontData",
          "name": "frontData",
          "type": "tuple"
        }
      ],
      "name": "CancelAuctionEvent",
      "type": "event"
    },
    {
      "anonymous": false,
      "inputs": [
        {
          "indexed": false,
          "internalType": "uint256",
          "name": "listingId",
          "type": "uint256"
        },
        {
          "indexed": false,
          "internalType": "uint256",
          "name": "tokenId",
          "type": "uint256"
        },
        {
          "indexed": false,
          "internalType": "address",
          "name": "creatorAddress",
          "type": "address"
        },
        {
          "indexed": false,
          "internalType": "address",
          "name": "sellerAddress",
          "type": "address"
        },
        {
          "indexed": false,
          "internalType": "uint256",
          "name": "quantity",
          "type": "uint256"
        },
        {
          "indexed": false,
          "internalType": "uint256",
          "name": "royalty",
          "type": "uint256"
        },
        {
          "components": [
            {
              "internalType": "string",
              "name": "name",
              "type": "string"
            },
            {
              "internalType": "string",
              "name": "description",
              "type": "string"
            },
            {
              "internalType": "string",
              "name": "imageUrl",
              "type": "string"
            },
            {
              "components": [
                {
                  "internalType": "string",
                  "name": "display_type",
                  "type": "string"
                },
                {
                  "internalType": "string",
                  "name": "trait_type",
                  "type": "string"
                },
                {
                  "internalType": "string",
                  "name": "value",
                  "type": "string"
                }
              ],
              "internalType": "struct NFTMarket.Attribute[]",
              "name": "attributes",
              "type": "tuple[]"
            },
            {
              "internalType": "bool",
              "name": "multiple",
              "type": "bool"
            },
            {
              "internalType": "string",
              "name": "collectionId",
              "type": "string"
            },
            {
              "internalType": "string",
              "name": "category",
              "type": "string"
            }
          ],
          "indexed": false,
          "internalType": "struct NFTMarket.FrontData",
          "name": "frontData",
          "type": "tuple"
        }
      ],
      "name": "CancelSimpleEvent",
      "type": "event"
    },
    {
      "anonymous": false,
      "inputs": [
        {
          "indexed": true,
          "internalType": "uint256",
          "name": "listingId",
          "type": "uint256"
        },
        {
          "indexed": true,
          "internalType": "address",
          "name": "nftContract",
          "type": "address"
        },
        {
          "indexed": true,
          "internalType": "uint256",
          "name": "tokenId",
          "type": "uint256"
        },
        {
          "indexed": false,
          "internalType": "uint256",
          "name": "price",
          "type": "uint256"
        },
        {
          "indexed": false,
          "internalType": "address",
          "name": "creatorAddress",
          "type": "address"
        },
        {
          "indexed": false,
          "internalType": "uint256",
          "name": "royalty",
          "type": "uint256"
        },
        {
          "indexed": false,
          "internalType": "uint256",
          "name": "quantity",
          "type": "uint256"
        },
        {
          "indexed": false,
          "internalType": "address",
          "name": "sellerAddress",
          "type": "address"
        },
        {
          "components": [
            {
              "internalType": "string",
              "name": "name",
              "type": "string"
            },
            {
              "internalType": "string",
              "name": "description",
              "type": "string"
            },
            {
              "internalType": "string",
              "name": "imageUrl",
              "type": "string"
            },
            {
              "components": [
                {
                  "internalType": "string",
                  "name": "display_type",
                  "type": "string"
                },
                {
                  "internalType": "string",
                  "name": "trait_type",
                  "type": "string"
                },
                {
                  "internalType": "string",
                  "name": "value",
                  "type": "string"
                }
              ],
              "internalType": "struct NFTMarket.Attribute[]",
              "name": "attributes",
              "type": "tuple[]"
            },
            {
              "internalType": "bool",
              "name": "multiple",
              "type": "bool"
            },
            {
              "internalType": "string",
              "name": "collectionId",
              "type": "string"
            },
            {
              "internalType": "string",
              "name": "category",
              "type": "string"
            }
          ],
          "indexed": false,
          "internalType": "struct NFTMarket.FrontData",
          "name": "frontData",
          "type": "tuple"
        }
      ],
      "name": "SimpleMarketItemCreated",
      "type": "event"
    },
    {
      "anonymous": false,
      "inputs": [
        {
          "indexed": false,
          "internalType": "uint256",
          "name": "listingId",
          "type": "uint256"
        },
        {
          "indexed": false,
          "internalType": "uint256",
          "name": "tokenId",
          "type": "uint256"
        },
        {
          "indexed": false,
          "internalType": "address",
          "name": "creatorAddress",
          "type": "address"
        },
        {
          "indexed": false,
          "internalType": "address",
          "name": "sellerAddress",
          "type": "address"
        },
        {
          "indexed": false,
          "internalType": "address",
          "name": "bidderAddress",
          "type": "address"
        },
        {
          "indexed": false,
          "internalType": "address",
          "name": "terminatorAddress",
          "type": "address"
        },
        {
          "indexed": false,
          "internalType": "uint256",
          "name": "royalty",
          "type": "uint256"
        },
        {
          "components": [
            {
              "internalType": "string",
              "name": "name",
              "type": "string"
            },
            {
              "internalType": "string",
              "name": "description",
              "type": "string"
            },
            {
              "internalType": "string",
              "name": "imageUrl",
              "type": "string"
            },
            {
              "components": [
                {
                  "internalType": "string",
                  "name": "display_type",
                  "type": "string"
                },
                {
                  "internalType": "string",
                  "name": "trait_type",
                  "type": "string"
                },
                {
                  "internalType": "string",
                  "name": "value",
                  "type": "string"
                }
              ],
              "internalType": "struct NFTMarket.Attribute[]",
              "name": "attributes",
              "type": "tuple[]"
            },
            {
              "internalType": "bool",
              "name": "multiple",
              "type": "bool"
            },
            {
              "internalType": "string",
              "name": "collectionId",
              "type": "string"
            },
            {
              "internalType": "string",
              "name": "category",
              "type": "string"
            }
          ],
          "indexed": false,
          "internalType": "struct NFTMarket.FrontData",
          "name": "frontData",
          "type": "tuple"
        }
      ],
      "name": "TerminateAuctionEvent",
      "type": "event"
    },
    {
      "inputs": [
        {
          "internalType": "uint256",
          "name": "",
          "type": "uint256"
        }
      ],
      "name": "auctionListingIdToMarketItem",
      "outputs": [
        {
          "internalType": "address",
          "name": "nftContract",
          "type": "address"
        },
        {
          "internalType": "uint256",
          "name": "tokenId",
          "type": "uint256"
        },
        {
          "internalType": "uint256",
          "name": "startPrice",
          "type": "uint256"
        },
        {
          "internalType": "uint256",
          "name": "currentBid",
          "type": "uint256"
        },
        {
          "internalType": "address",
          "name": "currentBidderAddress",
          "type": "address"
        },
        {
          "internalType": "address",
          "name": "ownerAddress",
          "type": "address"
        },
        {
          "internalType": "uint256",
          "name": "deadline",
          "type": "uint256"
        },
        {
          "internalType": "bool",
          "name": "isClosed",
          "type": "bool"
        }
      ],
      "stateMutability": "view",
      "type": "function",
      "constant": true
    },
    {
      "inputs": [
        {
          "internalType": "address",
          "name": "",
          "type": "address"
        },
        {
          "internalType": "uint256",
          "name": "",
          "type": "uint256"
        }
      ],
      "name": "initialItems",
      "outputs": [
        {
          "internalType": "uint256",
          "name": "royalty",
          "type": "uint256"
        },
        {
          "internalType": "address",
          "name": "creator",
          "type": "address"
        }
      ],
      "stateMutability": "view",
      "type": "function",
      "constant": true
    },
    {
      "inputs": [
        {
          "internalType": "uint256",
          "name": "",
          "type": "uint256"
        }
      ],
      "name": "listingIdToFrontData",
      "outputs": [
        {
          "internalType": "string",
          "name": "name",
          "type": "string"
        },
        {
          "internalType": "string",
          "name": "description",
          "type": "string"
        },
        {
          "internalType": "string",
          "name": "imageUrl",
          "type": "string"
        },
        {
          "internalType": "bool",
          "name": "multiple",
          "type": "bool"
        },
        {
          "internalType": "string",
          "name": "collectionId",
          "type": "string"
        },
        {
          "internalType": "string",
          "name": "category",
          "type": "string"
        }
      ],
      "stateMutability": "view",
      "type": "function",
      "constant": true
    },
    {
      "inputs": [],
      "name": "owner",
      "outputs": [
        {
          "internalType": "address payable",
          "name": "",
          "type": "address"
        }
      ],
      "stateMutability": "view",
      "type": "function",
      "constant": true
    },
    {
      "inputs": [
        {
          "internalType": "uint256",
          "name": "",
          "type": "uint256"
        }
      ],
      "name": "simpleListingIdToMarketItem",
      "outputs": [
        {
          "internalType": "address",
          "name": "nftContract",
          "type": "address"
        },
        {
          "internalType": "uint256",
          "name": "tokenId",
          "type": "uint256"
        },
        {
          "internalType": "uint256",
          "name": "price",
          "type": "uint256"
        },
        {
          "internalType": "uint256",
          "name": "originalQuantity",
          "type": "uint256"
        },
        {
          "internalType": "uint256",
          "name": "remainingQuantity",
          "type": "uint256"
        },
        {
          "internalType": "address",
          "name": "ownerAddress",
          "type": "address"
        }
      ],
      "stateMutability": "view",
      "type": "function",
      "constant": true
    },
    {
      "inputs": [
        {
          "internalType": "address",
          "name": "",
          "type": "address"
        },
        {
          "internalType": "address",
          "name": "",
          "type": "address"
        },
        {
          "internalType": "uint256",
          "name": "",
          "type": "uint256"
        }
      ],
      "name": "userListedTokens",
      "outputs": [
        {
          "internalType": "uint256",
          "name": "",
          "type": "uint256"
        }
      ],
      "stateMutability": "view",
      "type": "function",
      "constant": true
    },
    {
      "inputs": [
        {
          "internalType": "uint256",
          "name": "price",
          "type": "uint256"
        },
        {
          "internalType": "uint256",
          "name": "quantity",
          "type": "uint256"
        },
        {
          "internalType": "uint256",
          "name": "percent",
          "type": "uint256"
        }
      ],
      "name": "getPriceAfterPercent",
      "outputs": [
        {
          "internalType": "uint256",
          "name": "",
          "type": "uint256"
        }
      ],
      "stateMutability": "pure",
      "type": "function",
      "constant": true
    },
    {
      "inputs": [
        {
          "internalType": "address",
          "name": "nftContract",
          "type": "address"
        },
        {
          "internalType": "uint256",
          "name": "tokenId",
          "type": "uint256"
        },
        {
          "internalType": "address",
          "name": "creator",
          "type": "address"
        },
        {
          "internalType": "uint256",
          "name": "royalty",
          "type": "uint256"
        }
      ],
      "name": "initializeItem",
      "outputs": [],
      "stateMutability": "nonpayable",
      "type": "function"
    },
    {
      "inputs": [],
      "name": "getLatestListItemId",
      "outputs": [
        {
          "internalType": "uint256",
          "name": "",
          "type": "uint256"
        }
      ],
      "stateMutability": "view",
      "type": "function",
      "constant": true
    },
    {
      "inputs": [
        {
          "internalType": "address",
          "name": "nftContract",
          "type": "address"
        },
        {
          "internalType": "uint256",
          "name": "tokenId",
          "type": "uint256"
        },
        {
          "internalType": "uint256",
          "name": "price",
          "type": "uint256"
        },
        {
          "internalType": "uint256",
          "name": "quantity",
          "type": "uint256"
        },
        {
          "components": [
            {
              "internalType": "string",
              "name": "name",
              "type": "string"
            },
            {
              "internalType": "string",
              "name": "description",
              "type": "string"
            },
            {
              "internalType": "string",
              "name": "imageUrl",
              "type": "string"
            },
            {
              "components": [
                {
                  "internalType": "string",
                  "name": "display_type",
                  "type": "string"
                },
                {
                  "internalType": "string",
                  "name": "trait_type",
                  "type": "string"
                },
                {
                  "internalType": "string",
                  "name": "value",
                  "type": "string"
                }
              ],
              "internalType": "struct NFTMarket.Attribute[]",
              "name": "attributes",
              "type": "tuple[]"
            },
            {
              "internalType": "bool",
              "name": "multiple",
              "type": "bool"
            },
            {
              "internalType": "string",
              "name": "collectionId",
              "type": "string"
            },
            {
              "internalType": "string",
              "name": "category",
              "type": "string"
            }
          ],
          "internalType": "struct NFTMarket.FrontData",
          "name": "frontData",
          "type": "tuple"
        }
      ],
      "name": "createSimpleMarketItem",
      "outputs": [],
      "stateMutability": "nonpayable",
      "type": "function"
    },
    {
      "inputs": [
        {
          "internalType": "address",
          "name": "nftContract",
          "type": "address"
        },
        {
          "internalType": "uint256",
          "name": "tokenId",
          "type": "uint256"
        },
        {
          "internalType": "uint256",
          "name": "startPrice",
          "type": "uint256"
        },
        {
          "internalType": "uint256",
          "name": "deadline",
          "type": "uint256"
        },
        {
          "components": [
            {
              "internalType": "string",
              "name": "name",
              "type": "string"
            },
            {
              "internalType": "string",
              "name": "description",
              "type": "string"
            },
            {
              "internalType": "string",
              "name": "imageUrl",
              "type": "string"
            },
            {
              "components": [
                {
                  "internalType": "string",
                  "name": "display_type",
                  "type": "string"
                },
                {
                  "internalType": "string",
                  "name": "trait_type",
                  "type": "string"
                },
                {
                  "internalType": "string",
                  "name": "value",
                  "type": "string"
                }
              ],
              "internalType": "struct NFTMarket.Attribute[]",
              "name": "attributes",
              "type": "tuple[]"
            },
            {
              "internalType": "bool",
              "name": "multiple",
              "type": "bool"
            },
            {
              "internalType": "string",
              "name": "collectionId",
              "type": "string"
            },
            {
              "internalType": "string",
              "name": "category",
              "type": "string"
            }
          ],
          "internalType": "struct NFTMarket.FrontData",
          "name": "frontData",
          "type": "tuple"
        }
      ],
      "name": "createAuctionMarketItem",
      "outputs": [],
      "stateMutability": "nonpayable",
      "type": "function"
    },
    {
      "inputs": [
        {
          "internalType": "uint256",
          "name": "listingId",
          "type": "uint256"
        },
        {
          "internalType": "uint256",
          "name": "quantity",
          "type": "uint256"
        }
      ],
      "name": "buySimple",
      "outputs": [],
      "stateMutability": "payable",
      "type": "function",
      "payable": true
    },
    {
      "inputs": [
        {
          "internalType": "uint256",
          "name": "listingId",
          "type": "uint256"
        }
      ],
      "name": "bid",
      "outputs": [],
      "stateMutability": "payable",
      "type": "function",
      "payable": true
    },
    {
      "inputs": [
        {
          "internalType": "uint256",
          "name": "listingId",
          "type": "uint256"
        }
      ],
      "name": "terminateAuction",
      "outputs": [],
      "stateMutability": "nonpayable",
      "type": "function"
    },
    {
      "inputs": [
        {
          "internalType": "uint256",
          "name": "listingId",
          "type": "uint256"
        }
      ],
      "name": "cancelAuctionListing",
      "outputs": [],
      "stateMutability": "nonpayable",
      "type": "function"
    },
    {
      "inputs": [
        {
          "internalType": "uint256",
          "name": "listingId",
          "type": "uint256"
        }
      ],
      "name": "cancelSimpleListing",
      "outputs": [],
      "stateMutability": "nonpayable",
      "type": "function"
    },
    {
      "inputs": [],
      "name": "withdraw",
      "outputs": [],
      "stateMutability": "nonpayable",
      "type": "function"
    },
    {
      "inputs": [
        {
          "internalType": "address",
          "name": "",
          "type": "address"
        },
        {
          "internalType": "address",
          "name": "",
          "type": "address"
        },
        {
          "internalType": "uint256",
          "name": "",
          "type": "uint256"
        },
        {
          "internalType": "uint256",
          "name": "",
          "type": "uint256"
        },
        {
          "internalType": "bytes",
          "name": "",
          "type": "bytes"
        }
      ],
      "name": "onERC1155Received",
      "outputs": [
        {
          "internalType": "bytes4",
          "name": "",
          "type": "bytes4"
        }
      ],
      "stateMutability": "nonpayable",
      "type": "function"
    },
    {
      "inputs": [
        {
          "internalType": "address",
          "name": "",
          "type": "address"
        },
        {
          "internalType": "address",
          "name": "",
          "type": "address"
        },
        {
          "internalType": "uint256[]",
          "name": "",
          "type": "uint256[]"
        },
        {
          "internalType": "uint256[]",
          "name": "",
          "type": "uint256[]"
        },
        {
          "internalType": "bytes",
          "name": "",
          "type": "bytes"
        }
      ],
      "name": "onERC1155BatchReceived",
      "outputs": [
        {
          "internalType": "bytes4",
          "name": "",
          "type": "bytes4"
        }
      ],
      "stateMutability": "nonpayable",
      "type": "function"
    }
  ],
  "bytecode": "0x6080604052600160035534801561001557600080fd5b50600160008190555033600260006101000a81548173ffffffffffffffffffffffffffffffffffffffff021916908373ffffffffffffffffffffffffffffffffffffffff1602179055506155f9806200006f6000396000f3fe6080604052600436106101145760003560e01c80638da5cb5b116100a0578063bc197c8111610064578063bc197c81146103ad578063c444b07a146103ea578063d651345814610413578063f23a6e611461042f578063f5ca15621461046c57610114565b80638da5cb5b1461029b57806393e8ef70146102c6578063992cfdc3146102ef5780639ae8665d1461032c578063b370fa711461037057610114565b8063454a2ab3116100e7578063454a2ab3146101c65780635276175b146101e25780636b5f18471461022057806375b0be56146102495780637e5e96251461027257610114565b806308a0744d146101195780630eb06ff11461015b5780632a5a9435146101865780633ccfd60b146101af575b600080fd5b34801561012557600080fd5b50610140600480360381019061013b9190613a86565b6104ae565b604051610152969594939291906145ef565b60405180910390f35b34801561016757600080fd5b5061017061079f565b60405161017d9190614913565b60405180910390f35b34801561019257600080fd5b506101ad60048036038101906101a89190613a86565b6107b0565b005b3480156101bb57600080fd5b506101c4610cae565b005b6101e060048036038101906101db9190613a86565b610daf565b005b3480156101ee57600080fd5b5061020960048036038101906102049190613958565b6111af565b60405161021792919061492e565b60405180910390f35b34801561022c57600080fd5b5061024760048036038101906102429190613994565b611200565b005b34801561025557600080fd5b50610270600480360381019061026b91906139f7565b6113b7565b005b34801561027e57600080fd5b5061029960048036038101906102949190613a86565b6118e1565b005b3480156102a757600080fd5b506102b0611f27565b6040516102bd9190614343565b60405180910390f35b3480156102d257600080fd5b506102ed60048036038101906102e891906139f7565b611f4d565b005b3480156102fb57600080fd5b5061031660048036038101906103119190613aeb565b6124c3565b6040516103239190614913565b60405180910390f35b34801561033857600080fd5b50610353600480360381019061034e9190613a86565b6124f6565b6040516103679897969594939291906144f5565b60405180910390f35b34801561037c57600080fd5b506103976004803603810190610392919061387a565b6125ab565b6040516103a49190614913565b60405180910390f35b3480156103b957600080fd5b506103d460048036038101906103cf91906137bb565b6125dd565b6040516103e191906145d4565b60405180910390f35b3480156103f657600080fd5b50610411600480360381019061040c9190613a86565b6125f2565b005b61042d60048036038101906104289190613aaf565b612a4e565b005b34801561043b57600080fd5b50610456600480360381019061045191906138c9565b612fee565b60405161046391906145d4565b60405180910390f35b34801561047857600080fd5b50610493600480360381019061048e9190613a86565b613003565b6040516104a596959493929190614573565b60405180910390f35b60086020528060005260406000206000915090508060000180546104d190614fbd565b80601f01602080910402602001604051908101604052809291908181526020018280546104fd90614fbd565b801561054a5780601f1061051f5761010080835404028352916020019161054a565b820191906000526020600020905b81548152906001019060200180831161052d57829003601f168201915b50505050509080600101805461055f90614fbd565b80601f016020809104026020016040519081016040528092919081815260200182805461058b90614fbd565b80156105d85780601f106105ad576101008083540402835291602001916105d8565b820191906000526020600020905b8154815290600101906020018083116105bb57829003601f168201915b5050505050908060020180546105ed90614fbd565b80601f016020809104026020016040519081016040528092919081815260200182805461061990614fbd565b80156106665780601f1061063b57610100808354040283529160200191610666565b820191906000526020600020905b81548152906001019060200180831161064957829003601f168201915b5050505050908060040160009054906101000a900460ff169080600501805461068e90614fbd565b80601f01602080910402602001604051908101604052809291908181526020018280546106ba90614fbd565b80156107075780601f106106dc57610100808354040283529160200191610707565b820191906000526020600020905b8154815290600101906020018083116106ea57829003601f168201915b50505050509080600601805461071c90614fbd565b80601f016020809104026020016040519081016040528092919081815260200182805461074890614fbd565b80156107955780601f1061076a57610100808354040283529160200191610795565b820191906000526020600020905b81548152906001019060200180831161077857829003601f168201915b5050505050905086565b60006107ab600161307f565b905090565b6000600660008381526020019081526020016000209050600081600601541161080e576040517f08c379a000000000000000000000000000000000000000000000000000000000815260040161080590614733565b60405180910390fd5b3373ffffffffffffffffffffffffffffffffffffffff168160050160009054906101000a900473ffffffffffffffffffffffffffffffffffffffff1673ffffffffffffffffffffffffffffffffffffffff16146108a0576040517f08c379a0000000000000000000000000000000000000000000000000000000008152600401610897906146f3565b60405180910390fd5b8060070160009054906101000a900460ff16156108f2576040517f08c379a00000000000000000000000000000000000000000000000000000000081526004016108e990614793565b60405180910390fd5b600073ffffffffffffffffffffffffffffffffffffffff168160040160009054906101000a900473ffffffffffffffffffffffffffffffffffffffff1673ffffffffffffffffffffffffffffffffffffffff1614610985576040517f08c379a000000000000000000000000000000000000000000000000000000000815260040161097c90614753565b60405180910390fd5b60018160070160006101000a81548160ff0219169083151502179055508060000160009054906101000a900473ffffffffffffffffffffffffffffffffffffffff1673ffffffffffffffffffffffffffffffffffffffff1663f242432a308360050160009054906101000a900473ffffffffffffffffffffffffffffffffffffffff16846001015460016040518563ffffffff1660e01b8152600401610a2e949392919061435e565b600060405180830381600087803b158015610a4857600080fd5b505af1158015610a5c573d6000803e3d6000fd5b505050506000600760008360050160009054906101000a900473ffffffffffffffffffffffffffffffffffffffff1673ffffffffffffffffffffffffffffffffffffffff1673ffffffffffffffffffffffffffffffffffffffff16815260200190815260200160002060008360000160009054906101000a900473ffffffffffffffffffffffffffffffffffffffff1673ffffffffffffffffffffffffffffffffffffffff1673ffffffffffffffffffffffffffffffffffffffff168152602001908152602001600020600083600101548152602001908152602001600020819055506000600460008360000160009054906101000a900473ffffffffffffffffffffffffffffffffffffffff1673ffffffffffffffffffffffffffffffffffffffff1673ffffffffffffffffffffffffffffffffffffffff168152602001908152602001600020600083600101548152602001908152602001600020604051806040016040529081600082015481526020016001820160009054906101000a900473ffffffffffffffffffffffffffffffffffffffff1673ffffffffffffffffffffffffffffffffffffffff1673ffffffffffffffffffffffffffffffffffffffff168152505090507fb009bc6be4f1d11b3bc2289d47de21ae0fca037f94f5bd777519e7f73646b3da83836001015483602001518560050160009054906101000a900473ffffffffffffffffffffffffffffffffffffffff168560000151600860008a8152602001908152602001600020604051610ca196959493929190614ad8565b60405180910390a1505050565b60004711610cf1576040517f08c379a0000000000000000000000000000000000000000000000000000000008152600401610ce8906147d3565b60405180910390fd5b3373ffffffffffffffffffffffffffffffffffffffff16600260009054906101000a900473ffffffffffffffffffffffffffffffffffffffff1673ffffffffffffffffffffffffffffffffffffffff1614610d81576040517f08c379a0000000000000000000000000000000000000000000000000000000008152600401610d78906146b3565b60405180910390fd5b610dad600260009054906101000a900473ffffffffffffffffffffffffffffffffffffffff164761308d565b565b60026000541415610df5576040517f08c379a0000000000000000000000000000000000000000000000000000000008152600401610dec906148d3565b60405180910390fd5b600260008190555060006006600083815260200190815260200160002090508060070160009054906101000a900460ff1615610e66576040517f08c379a0000000000000000000000000000000000000000000000000000000008152600401610e5d90614793565b60405180910390fd5b8060050160009054906101000a900473ffffffffffffffffffffffffffffffffffffffff1673ffffffffffffffffffffffffffffffffffffffff163373ffffffffffffffffffffffffffffffffffffffff161415610ef9576040517f08c379a0000000000000000000000000000000000000000000000000000000008152600401610ef090614833565b60405180910390fd5b60006064600354610f0a9190614dc1565b606434610f179190614e48565b610f219190614e17565b905081600301548111610f69576040517f08c379a0000000000000000000000000000000000000000000000000000000008152600401610f6090614873565b60405180910390fd5b81600601544210610faf576040517f08c379a0000000000000000000000000000000000000000000000000000000008152600401610fa6906147b3565b60405180910390fd5b8160070160009054906101000a900460ff1615611001576040517f08c379a0000000000000000000000000000000000000000000000000000000008152600401610ff890614793565b60405180910390fd5b6000611015836003015460016003546124c3565b9050600073ffffffffffffffffffffffffffffffffffffffff168360040160009054906101000a900473ffffffffffffffffffffffffffffffffffffffff1673ffffffffffffffffffffffffffffffffffffffff16146111155760008360040160009054906101000a900473ffffffffffffffffffffffffffffffffffffffff1673ffffffffffffffffffffffffffffffffffffffff168285600301546110bc9190614dc1565b610bb8906040516110cc9061432e565b600060405180830381858888f193505050503d806000811461110a576040519150601f19603f3d011682016040523d82523d6000602084013e61110f565b606091505b50509050505b338360040160006101000a81548173ffffffffffffffffffffffffffffffffffffffff021916908373ffffffffffffffffffffffffffffffffffffffff160217905550818360030181905550837f77689ebf788c0f9d9e045fa81e22903cc7a1e34686c3fa4874c9a6a4d8a239f533848660010154604051611199939291906144be565b60405180910390a2505050600160008190555050565b6004602052816000526040600020602052806000526040600020600091509150508060000154908060010160009054906101000a900473ffffffffffffffffffffffffffffffffffffffff16905082565b600073ffffffffffffffffffffffffffffffffffffffff16600460008673ffffffffffffffffffffffffffffffffffffffff1673ffffffffffffffffffffffffffffffffffffffff168152602001908152602001600020600085815260200190815260200160002060010160009054906101000a900473ffffffffffffffffffffffffffffffffffffffff1673ffffffffffffffffffffffffffffffffffffffff16146112e2576040517f08c379a00000000000000000000000000000000000000000000000000000000081526004016112d9906147f3565b60405180910390fd5b60405180604001604052808281526020018373ffffffffffffffffffffffffffffffffffffffff16815250600460008673ffffffffffffffffffffffffffffffffffffffff1673ffffffffffffffffffffffffffffffffffffffff16815260200190815260200160002060008581526020019081526020016000206000820151816000015560208201518160010160006101000a81548173ffffffffffffffffffffffffffffffffffffffff021916908373ffffffffffffffffffffffffffffffffffffffff16021790555090505050505050565b600260005414156113fd576040517f08c379a00000000000000000000000000000000000000000000000000000000081526004016113f4906148d3565b60405180910390fd5b600260008190555060008311611448576040517f08c379a000000000000000000000000000000000000000000000000000000000815260040161143f906148f3565b60405180910390fd5b6000821161148b576040517f08c379a000000000000000000000000000000000000000000000000000000000815260040161148290614853565b60405180910390fd5b6000600760003373ffffffffffffffffffffffffffffffffffffffff1673ffffffffffffffffffffffffffffffffffffffff16815260200190815260200160002060008773ffffffffffffffffffffffffffffffffffffffff1673ffffffffffffffffffffffffffffffffffffffff1681526020019081526020016000206000868152602001908152602001600020541461155b576040517f08c379a0000000000000000000000000000000000000000000000000000000008152600401611552906146d3565b60405180910390fd5b6115656001613103565b6000611571600161307f565b90506040518060c001604052808773ffffffffffffffffffffffffffffffffffffffff1681526020018681526020018581526020018481526020018481526020013373ffffffffffffffffffffffffffffffffffffffff168152506005600083815260200190815260200160002060008201518160000160006101000a81548173ffffffffffffffffffffffffffffffffffffffff021916908373ffffffffffffffffffffffffffffffffffffffff1602179055506020820151816001015560408201518160020155606082015181600301556080820151816004015560a08201518160050160006101000a81548173ffffffffffffffffffffffffffffffffffffffff021916908373ffffffffffffffffffffffffffffffffffffffff16021790555090505082600760003373ffffffffffffffffffffffffffffffffffffffff1673ffffffffffffffffffffffffffffffffffffffff16815260200190815260200160002060008873ffffffffffffffffffffffffffffffffffffffff1673ffffffffffffffffffffffffffffffffffffffff1681526020019081526020016000206000878152602001908152602001600020819055508573ffffffffffffffffffffffffffffffffffffffff1663f242432a333088876040518563ffffffff1660e01b81526004016117699493929190614466565b600060405180830381600087803b15801561178357600080fd5b505af1158015611797573d6000803e3d6000fd5b505050506000600460008873ffffffffffffffffffffffffffffffffffffffff1673ffffffffffffffffffffffffffffffffffffffff16815260200190815260200160002060008781526020019081526020016000206000015490506000600460008973ffffffffffffffffffffffffffffffffffffffff1673ffffffffffffffffffffffffffffffffffffffff168152602001908152602001600020600088815260200190815260200160002060010160009054906101000a900473ffffffffffffffffffffffffffffffffffffffff1690506118758385613119565b868873ffffffffffffffffffffffffffffffffffffffff16847f8a23444ba9511093f318a9d3fb0cf9f63d7ff87e741f49f1bc46f40f5aa7f1168985878b338c6040516118c796959493929190614957565b60405180910390a450505060016000819055505050505050565b60006006600083815260200190815260200160002090508060070160009054906101000a900460ff161561194a576040517f08c379a000000000000000000000000000000000000000000000000000000000815260040161194190614793565b60405180910390fd5b8060060154421015611991576040517f08c379a000000000000000000000000000000000000000000000000000000000815260040161198890614773565b60405180910390fd5b6000600460008360000160009054906101000a900473ffffffffffffffffffffffffffffffffffffffff1673ffffffffffffffffffffffffffffffffffffffff1673ffffffffffffffffffffffffffffffffffffffff168152602001908152602001600020600083600101548152602001908152602001600020604051806040016040529081600082015481526020016001820160009054906101000a900473ffffffffffffffffffffffffffffffffffffffff1673ffffffffffffffffffffffffffffffffffffffff1673ffffffffffffffffffffffffffffffffffffffff16815250509050600073ffffffffffffffffffffffffffffffffffffffff168260040160009054906101000a900473ffffffffffffffffffffffffffffffffffffffff1673ffffffffffffffffffffffffffffffffffffffff1614611cbc576000611ae4836003015460016003546124c3565b905060008260000151118015611b2b5750600073ffffffffffffffffffffffffffffffffffffffff16826020015173ffffffffffffffffffffffffffffffffffffffff1614155b15611b99576000611b468460030154600185600001516124c3565b9050611b5683602001518261308d565b611b938460050160009054906101000a900473ffffffffffffffffffffffffffffffffffffffff16828660030154611b8e9190614ea2565b61308d565b50611bcc565b611bcb8360050160009054906101000a900473ffffffffffffffffffffffffffffffffffffffff16846003015461308d565b5b611bf8600260009054906101000a900473ffffffffffffffffffffffffffffffffffffffff168261308d565b8260000160009054906101000a900473ffffffffffffffffffffffffffffffffffffffff1673ffffffffffffffffffffffffffffffffffffffff1663f242432a308560040160009054906101000a900473ffffffffffffffffffffffffffffffffffffffff16866001015460016040518563ffffffff1660e01b8152600401611c84949392919061435e565b600060405180830381600087803b158015611c9e57600080fd5b505af1158015611cb2573d6000803e3d6000fd5b5050505050611d7b565b8160000160009054906101000a900473ffffffffffffffffffffffffffffffffffffffff1673ffffffffffffffffffffffffffffffffffffffff1663f242432a308460050160009054906101000a900473ffffffffffffffffffffffffffffffffffffffff16856001015460016040518563ffffffff1660e01b8152600401611d48949392919061435e565b600060405180830381600087803b158015611d6257600080fd5b505af1158015611d76573d6000803e3d6000fd5b505050505b6000600760008460050160009054906101000a900473ffffffffffffffffffffffffffffffffffffffff1673ffffffffffffffffffffffffffffffffffffffff1673ffffffffffffffffffffffffffffffffffffffff16815260200190815260200160002060008460000160009054906101000a900473ffffffffffffffffffffffffffffffffffffffff1673ffffffffffffffffffffffffffffffffffffffff1673ffffffffffffffffffffffffffffffffffffffff1681526020019081526020016000206000846001015481526020019081526020016000208190555060018260070160006101000a81548160ff0219169083151502179055507f9e6203f4e369e5938cd66810ead1a0a3525d88fc746c94c85bd403619b13bfd383836001015483602001518560050160009054906101000a900473ffffffffffffffffffffffffffffffffffffffff168660040160009054906101000a900473ffffffffffffffffffffffffffffffffffffffff16338760000151600860008c8152602001908152602001600020604051611f1a9897969594939291906149bf565b60405180910390a1505050565b600260009054906101000a900473ffffffffffffffffffffffffffffffffffffffff1681565b60026000541415611f93576040517f08c379a0000000000000000000000000000000000000000000000000000000008152600401611f8a906148d3565b60405180910390fd5b6002600081905550428211611fdd576040517f08c379a0000000000000000000000000000000000000000000000000000000008152600401611fd490614813565b60405180910390fd5b6000600760003373ffffffffffffffffffffffffffffffffffffffff1673ffffffffffffffffffffffffffffffffffffffff16815260200190815260200160002060008773ffffffffffffffffffffffffffffffffffffffff1673ffffffffffffffffffffffffffffffffffffffff168152602001908152602001600020600086815260200190815260200160002054146120ad576040517f08c379a00000000000000000000000000000000000000000000000000000000081526004016120a4906146d3565b60405180910390fd5b6120b76001613103565b60006120c3600161307f565b90506040518061010001604052808773ffffffffffffffffffffffffffffffffffffffff168152602001868152602001858152602001858152602001600073ffffffffffffffffffffffffffffffffffffffff1681526020013373ffffffffffffffffffffffffffffffffffffffff168152602001848152602001600015158152506006600083815260200190815260200160002060008201518160000160006101000a81548173ffffffffffffffffffffffffffffffffffffffff021916908373ffffffffffffffffffffffffffffffffffffffff16021790555060208201518160010155604082015181600201556060820151816003015560808201518160040160006101000a81548173ffffffffffffffffffffffffffffffffffffffff021916908373ffffffffffffffffffffffffffffffffffffffff16021790555060a08201518160050160006101000a81548173ffffffffffffffffffffffffffffffffffffffff021916908373ffffffffffffffffffffffffffffffffffffffff16021790555060c0820151816006015560e08201518160070160006101000a81548160ff0219169083151502179055509050506001600760003373ffffffffffffffffffffffffffffffffffffffff1673ffffffffffffffffffffffffffffffffffffffff16815260200190815260200160002060008873ffffffffffffffffffffffffffffffffffffffff1673ffffffffffffffffffffffffffffffffffffffff1681526020019081526020016000206000878152602001908152602001600020819055508573ffffffffffffffffffffffffffffffffffffffff1663f242432a33308860016040518563ffffffff1660e01b815260040161234b94939291906143b6565b600060405180830381600087803b15801561236557600080fd5b505af1158015612379573d6000803e3d6000fd5b505050506123878183613119565b6000600460008873ffffffffffffffffffffffffffffffffffffffff1673ffffffffffffffffffffffffffffffffffffffff16815260200190815260200160002060008781526020019081526020016000206000015490506000600460008973ffffffffffffffffffffffffffffffffffffffff1673ffffffffffffffffffffffffffffffffffffffff168152602001908152602001600020600088815260200190815260200160002060010160009054906101000a900473ffffffffffffffffffffffffffffffffffffffff169050868873ffffffffffffffffffffffffffffffffffffffff16847f2b1bff9076a7b0d38a17af23b12a58efefb29542d324af5e535bd38443627ea589898688338c6040516124a996959493929190614bb6565b60405180910390a450505060016000819055505050505050565b60008082905060648185876124d89190614e48565b6124e29190614e48565b6124ec9190614e17565b9150509392505050565b60066020528060005260406000206000915090508060000160009054906101000a900473ffffffffffffffffffffffffffffffffffffffff16908060010154908060020154908060030154908060040160009054906101000a900473ffffffffffffffffffffffffffffffffffffffff16908060050160009054906101000a900473ffffffffffffffffffffffffffffffffffffffff16908060060154908060070160009054906101000a900460ff16905088565b600760205282600052604060002060205281600052604060002060205280600052604060002060009250925050505481565b600063bc197c8160e01b905095945050505050565b60006005600083815260200190815260200160002090506000816003015411612650576040517f08c379a000000000000000000000000000000000000000000000000000000000815260040161264790614693565b60405180910390fd5b3373ffffffffffffffffffffffffffffffffffffffff168160050160009054906101000a900473ffffffffffffffffffffffffffffffffffffffff1673ffffffffffffffffffffffffffffffffffffffff16146126e2576040517f08c379a00000000000000000000000000000000000000000000000000000000081526004016126d9906146f3565b60405180910390fd5b6000816004015411612729576040517f08c379a0000000000000000000000000000000000000000000000000000000008152600401612720906148b3565b60405180910390fd5b600081600401549050600082600401819055508160000160009054906101000a900473ffffffffffffffffffffffffffffffffffffffff1673ffffffffffffffffffffffffffffffffffffffff1663f242432a308460050160009054906101000a900473ffffffffffffffffffffffffffffffffffffffff168560010154856040518563ffffffff1660e01b81526004016127c7949392919061440e565b600060405180830381600087803b1580156127e157600080fd5b505af11580156127f5573d6000803e3d6000fd5b505050506000600760008460050160009054906101000a900473ffffffffffffffffffffffffffffffffffffffff1673ffffffffffffffffffffffffffffffffffffffff1673ffffffffffffffffffffffffffffffffffffffff16815260200190815260200160002060008460000160009054906101000a900473ffffffffffffffffffffffffffffffffffffffff1673ffffffffffffffffffffffffffffffffffffffff1673ffffffffffffffffffffffffffffffffffffffff168152602001908152602001600020600084600101548152602001908152602001600020819055506000600460008460000160009054906101000a900473ffffffffffffffffffffffffffffffffffffffff1673ffffffffffffffffffffffffffffffffffffffff1673ffffffffffffffffffffffffffffffffffffffff168152602001908152602001600020600084600101548152602001908152602001600020604051806040016040529081600082015481526020016001820160009054906101000a900473ffffffffffffffffffffffffffffffffffffffff1673ffffffffffffffffffffffffffffffffffffffff1673ffffffffffffffffffffffffffffffffffffffff168152505090507f784d55c967f098f9abd37609a168074d2828081c7e3deef9a188b59e1dcf16da84846001015483602001518660050160009054906101000a900473ffffffffffffffffffffffffffffffffffffffff1687600401548660000151600860008c8152602001908152602001600020604051612a409796959493929190614b40565b60405180910390a150505050565b60026000541415612a94576040517f08c379a0000000000000000000000000000000000000000000000000000000008152600401612a8b906148d3565b60405180910390fd5b6002600081905550600060056000848152602001908152602001600020905060008211612af6576040517f08c379a0000000000000000000000000000000000000000000000000000000008152600401612aed90614893565b60405180910390fd5b8060040154821115612b3d576040517f08c379a0000000000000000000000000000000000000000000000000000000008152600401612b3490614673565b60405180910390fd5b6000612b508260020154846003546124c3565b905080838360020154612b639190614e48565b612b6d9190614dc1565b3414612bae576040517f08c379a0000000000000000000000000000000000000000000000000000000008152600401612ba590614713565b60405180910390fd5b82826004016000828254612bc29190614ea2565b925050819055506000600460008460000160009054906101000a900473ffffffffffffffffffffffffffffffffffffffff1673ffffffffffffffffffffffffffffffffffffffff1673ffffffffffffffffffffffffffffffffffffffff168152602001908152602001600020600084600101548152602001908152602001600020604051806040016040529081600082015481526020016001820160009054906101000a900473ffffffffffffffffffffffffffffffffffffffff1673ffffffffffffffffffffffffffffffffffffffff1673ffffffffffffffffffffffffffffffffffffffff1681525050905060008160000151118015612cf55750600073ffffffffffffffffffffffffffffffffffffffff16816020015173ffffffffffffffffffffffffffffffffffffffff1614155b15612d6d576000612d0f84600201548684600001516124c3565b9050612d1f82602001518261308d565b612d678460050160009054906101000a900473ffffffffffffffffffffffffffffffffffffffff1682878760020154612d589190614e48565b612d629190614ea2565b61308d565b50612dab565b612daa8360050160009054906101000a900473ffffffffffffffffffffffffffffffffffffffff16858560020154612da59190614e48565b61308d565b5b612dd7600260009054906101000a900473ffffffffffffffffffffffffffffffffffffffff168361308d565b8260040154600760008560050160009054906101000a900473ffffffffffffffffffffffffffffffffffffffff1673ffffffffffffffffffffffffffffffffffffffff1673ffffffffffffffffffffffffffffffffffffffff16815260200190815260200160002060008560000160009054906101000a900473ffffffffffffffffffffffffffffffffffffffff1673ffffffffffffffffffffffffffffffffffffffff1673ffffffffffffffffffffffffffffffffffffffff168152602001908152602001600020600085600101548152602001908152602001600020819055508260000160009054906101000a900473ffffffffffffffffffffffffffffffffffffffff1673ffffffffffffffffffffffffffffffffffffffff1663f242432a30338660010154886040518563ffffffff1660e01b8152600401612f20949392919061440e565b600060405180830381600087803b158015612f3a57600080fd5b505af1158015612f4e573d6000803e3d6000fd5b505050507fc632ae974e69cd7bacada4f8a4f65005c65e2fd88a330105f0783b08a3022b9885846001015483602001518660050160009054906101000a900473ffffffffffffffffffffffffffffffffffffffff163388600201548a8860000151600860008f8152602001908152602001600020604051612fd799989796959493929190614a44565b60405180910390a150505060016000819055505050565b600063f23a6e6160e01b905095945050505050565b60056020528060005260406000206000915090508060000160009054906101000a900473ffffffffffffffffffffffffffffffffffffffff16908060010154908060020154908060030154908060040154908060050160009054906101000a900473ffffffffffffffffffffffffffffffffffffffff16905086565b600081600001549050919050565b60008273ffffffffffffffffffffffffffffffffffffffff1682610bb8906040516130b79061432e565b600060405180830381858888f193505050503d80600081146130f5576040519150601f19603f3d011682016040523d82523d6000602084013e6130fa565b606091505b50509050505050565b6001816000016000828254019250508190555050565b6000600860008481526020019081526020016000209050816000015181600001908051906020019061314c9291906132db565b5081602001518160010190805190602001906131699291906132db565b5081604001518160020190805190602001906131869291906132db565b5081608001518160040160006101000a81548160ff0219169083151502179055508160a001518160050190805190602001906131c39291906132db565b508160c001518160060190805190602001906131e09291906132db565b5060005b8260600151518110156132d557600083606001518281518110613230577f4e487b7100000000000000000000000000000000000000000000000000000000600052603260045260246000fd5b602002602001015190508260030181908060018154018082558091505060019003906000526020600020906003020160009091909190915060008201518160000190805190602001906132849291906132db565b5060208201518160010190805190602001906132a19291906132db565b5060408201518160020190805190602001906132be9291906132db565b5050505080806132cd9061503a565b9150506131e4565b50505050565b8280546132e790614fbd565b90600052602060002090601f0160209004810192826133095760008555613350565b82601f1061332257805160ff1916838001178555613350565b82800160010185558215613350579182015b8281111561334f578251825591602001919060010190613334565b5b50905061335d9190613361565b5090565b5b8082111561337a576000816000905550600101613362565b5090565b600061339161338c84614c43565b614c1e565b905080838252602082019050828560208602820111156133b057600080fd5b60005b858110156133fa57813567ffffffffffffffff8111156133d257600080fd5b8086016133df89826135be565b855260208501945060208401935050506001810190506133b3565b5050509392505050565b600061341761341284614c6f565b614c1e565b9050808382526020820190508285602086028201111561343657600080fd5b60005b85811015613466578161344c88826137a6565b845260208401935060208301925050600181019050613439565b5050509392505050565b600061348361347e84614c9b565b614c1e565b90508281526020810184848401111561349b57600080fd5b6134a6848285614f7b565b509392505050565b60006134c16134bc84614ccc565b614c1e565b9050828152602081018484840111156134d957600080fd5b6134e4848285614f7b565b509392505050565b6000813590506134fb8161557e565b92915050565b600082601f83011261351257600080fd5b813561352284826020860161337e565b91505092915050565b600082601f83011261353c57600080fd5b813561354c848260208601613404565b91505092915050565b60008135905061356481615595565b92915050565b600082601f83011261357b57600080fd5b813561358b848260208601613470565b91505092915050565b600082601f8301126135a557600080fd5b81356135b58482602086016134ae565b91505092915050565b6000606082840312156135d057600080fd5b6135da6060614c1e565b9050600082013567ffffffffffffffff8111156135f657600080fd5b61360284828501613594565b600083015250602082013567ffffffffffffffff81111561362257600080fd5b61362e84828501613594565b602083015250604082013567ffffffffffffffff81111561364e57600080fd5b61365a84828501613594565b60408301525092915050565b600060e0828403121561367857600080fd5b61368260e0614c1e565b9050600082013567ffffffffffffffff81111561369e57600080fd5b6136aa84828501613594565b600083015250602082013567ffffffffffffffff8111156136ca57600080fd5b6136d684828501613594565b602083015250604082013567ffffffffffffffff8111156136f657600080fd5b61370284828501613594565b604083015250606082013567ffffffffffffffff81111561372257600080fd5b61372e84828501613501565b606083015250608061374284828501613555565b60808301525060a082013567ffffffffffffffff81111561376257600080fd5b61376e84828501613594565b60a08301525060c082013567ffffffffffffffff81111561378e57600080fd5b61379a84828501613594565b60c08301525092915050565b6000813590506137b5816155ac565b92915050565b600080600080600060a086880312156137d357600080fd5b60006137e1888289016134ec565b95505060206137f2888289016134ec565b945050604086013567ffffffffffffffff81111561380f57600080fd5b61381b8882890161352b565b935050606086013567ffffffffffffffff81111561383857600080fd5b6138448882890161352b565b925050608086013567ffffffffffffffff81111561386157600080fd5b61386d8882890161356a565b9150509295509295909350565b60008060006060848603121561388f57600080fd5b600061389d868287016134ec565b93505060206138ae868287016134ec565b92505060406138bf868287016137a6565b9150509250925092565b600080600080600060a086880312156138e157600080fd5b60006138ef888289016134ec565b9550506020613900888289016134ec565b9450506040613911888289016137a6565b9350506060613922888289016137a6565b925050608086013567ffffffffffffffff81111561393f57600080fd5b61394b8882890161356a565b9150509295509295909350565b6000806040838503121561396b57600080fd5b6000613979858286016134ec565b925050602061398a858286016137a6565b9150509250929050565b600080600080608085870312156139aa57600080fd5b60006139b8878288016134ec565b94505060206139c9878288016137a6565b93505060406139da878288016134ec565b92505060606139eb878288016137a6565b91505092959194509250565b600080600080600060a08688031215613a0f57600080fd5b6000613a1d888289016134ec565b9550506020613a2e888289016137a6565b9450506040613a3f888289016137a6565b9350506060613a50888289016137a6565b925050608086013567ffffffffffffffff811115613a6d57600080fd5b613a7988828901613666565b9150509295509295909350565b600060208284031215613a9857600080fd5b6000613aa6848285016137a6565b91505092915050565b60008060408385031215613ac257600080fd5b6000613ad0858286016137a6565b9250506020613ae1858286016137a6565b9150509250929050565b600080600060608486031215613b0057600080fd5b6000613b0e868287016137a6565b9350506020613b1f868287016137a6565b9250506040613b30868287016137a6565b9150509250925092565b6000613b4683836140df565b905092915050565b6000613b5a838361413d565b905092915050565b613b6b81614ef5565b82525050565b613b7a81614ee3565b82525050565b6000613b8b82614d37565b613b958185614d72565b935083602082028501613ba785614cfd565b8060005b85811015613be35784840389528151613bc48582613b3a565b9450613bcf83614d58565b925060208a01995050600181019050613bab565b50829750879550505050505092915050565b6000613c0082614d42565b613c0a8185614d72565b935083602082028501613c1c85614d0d565b8060005b85811015613c5757848403895281613c388582613b4e565b9450613c4383614d65565b925060208a01995050600181019050613c20565b50829750879550505050505092915050565b613c7281614f07565b82525050565b613c8181614f07565b82525050565b613c9081614f13565b82525050565b613c9f81614f69565b82525050565b6000613cb082614d4d565b613cba8185614d9f565b9350613cca818560208601614f8a565b613cd38161513f565b840191505092915050565b6000613ce982614d4d565b613cf38185614db0565b9350613d03818560208601614f8a565b613d0c8161513f565b840191505092915050565b60008154613d2481614fbd565b613d2e8186614d9f565b94506001821660008114613d495760018114613d5b57613d8e565b60ff1983168652602086019350613d8e565b613d6485614d22565b60005b83811015613d8657815481890152600182019150602081019050613d67565b808801955050505b50505092915050565b6000613da4601983614db0565b9150613daf8261515d565b602082019050919050565b6000613dc7601f83614db0565b9150613dd282615186565b602082019050919050565b6000613dea601783614db0565b9150613df5826151af565b602082019050919050565b6000613e0d602683614db0565b9150613e18826151d8565b604082019050919050565b6000613e30600383614d83565b9150613e3b82615227565b602082019050919050565b6000613e53601583614db0565b9150613e5e82615250565b602082019050919050565b6000613e76604083614db0565b9150613e8182615279565b604082019050919050565b6000613e99601883614db0565b9150613ea4826152c8565b602082019050919050565b6000613ebc602983614db0565b9150613ec7826152f1565b604082019050919050565b6000613edf601883614db0565b9150613eea82615340565b602082019050919050565b6000613f02600e83614db0565b9150613f0d82615369565b602082019050919050565b6000613f25600083614d83565b9150613f3082615392565b600082019050919050565b6000613f48600083614d94565b9150613f5382615392565b600082019050919050565b6000613f6b601583614db0565b9150613f7682615395565b602082019050919050565b6000613f8e600c83614db0565b9150613f99826153be565b602082019050919050565b6000613fb1601383614db0565b9150613fbc826153e7565b602082019050919050565b6000613fd4601e83614db0565b9150613fdf82615410565b602082019050919050565b6000613ff7602c83614db0565b915061400282615439565b604082019050919050565b600061401a601d83614db0565b915061402582615488565b602082019050919050565b600061403d601a83614db0565b9150614048826154b1565b602082019050919050565b6000614060601583614db0565b915061406b826154da565b602082019050919050565b6000614083601a83614db0565b915061408e82615503565b602082019050919050565b60006140a6601f83614db0565b91506140b18261552c565b602082019050919050565b60006140c9601c83614db0565b91506140d482615555565b602082019050919050565b600060608301600083015184820360008601526140fc8282613ca5565b915050602083015184820360208601526141168282613ca5565b915050604083015184820360408601526141308282613ca5565b9150508091505092915050565b6000606083016000808401858303600087015261415a8382613d17565b9250506001840185830360208701526141738382613d17565b92505060028401858303604087015261418c8382613d17565b925050819250505092915050565b600060e08301600083015184820360008601526141b78282613ca5565b915050602083015184820360208601526141d18282613ca5565b915050604083015184820360408601526141eb8282613ca5565b915050606083015184820360608601526142058282613b80565b915050608083015161421a6080860182613c69565b5060a083015184820360a08601526142328282613ca5565b91505060c083015184820360c086015261424c8282613ca5565b9150508091505092915050565b600060e08301600080840185830360008701526142768382613d17565b92505060018401858303602087015261428f8382613d17565b9250506002840185830360408701526142a88382613d17565b9250506003840185830360608701526142c18382613bf5565b925050600484015490506142d481614fef565b6142e16080870182613c69565b506005840185830360a08701526142f88382613d17565b9250506006840185830360c08701526143118382613d17565b925050819250505092915050565b61432881614f5f565b82525050565b600061433982613f3b565b9150819050919050565b60006020820190506143586000830184613b62565b92915050565b600060a0820190506143736000830187613b71565b6143806020830186613b71565b61438d604083018561431f565b61439a6060830184613c96565b81810360808301526143ab81613e23565b905095945050505050565b600060a0820190506143cb6000830187613b71565b6143d86020830186613b71565b6143e5604083018561431f565b6143f26060830184613c96565b818103608083015261440381613f18565b905095945050505050565b600060a0820190506144236000830187613b71565b6144306020830186613b71565b61443d604083018561431f565b61444a606083018461431f565b818103608083015261445b81613e23565b905095945050505050565b600060a08201905061447b6000830187613b71565b6144886020830186613b71565b614495604083018561431f565b6144a2606083018461431f565b81810360808301526144b381613f18565b905095945050505050565b60006060820190506144d36000830186613b71565b6144e0602083018561431f565b6144ed604083018461431f565b949350505050565b60006101008201905061450b600083018b613b71565b614518602083018a61431f565b614525604083018961431f565b614532606083018861431f565b61453f6080830187613b71565b61454c60a0830186613b71565b61455960c083018561431f565b61456660e0830184613c78565b9998505050505050505050565b600060c0820190506145886000830189613b71565b614595602083018861431f565b6145a2604083018761431f565b6145af606083018661431f565b6145bc608083018561431f565b6145c960a0830184613b71565b979650505050505050565b60006020820190506145e96000830184613c87565b92915050565b600060c08201905081810360008301526146098189613cde565b9050818103602083015261461d8188613cde565b905081810360408301526146318187613cde565b90506146406060830186613c78565b81810360808301526146528185613cde565b905081810360a08301526146668184613cde565b9050979650505050505050565b6000602082019050818103600083015261468c81613d97565b9050919050565b600060208201905081810360008301526146ac81613dba565b9050919050565b600060208201905081810360008301526146cc81613ddd565b9050919050565b600060208201905081810360008301526146ec81613e00565b9050919050565b6000602082019050818103600083015261470c81613e46565b9050919050565b6000602082019050818103600083015261472c81613e69565b9050919050565b6000602082019050818103600083015261474c81613e8c565b9050919050565b6000602082019050818103600083015261476c81613eaf565b9050919050565b6000602082019050818103600083015261478c81613ed2565b9050919050565b600060208201905081810360008301526147ac81613ef5565b9050919050565b600060208201905081810360008301526147cc81613f5e565b9050919050565b600060208201905081810360008301526147ec81613f81565b9050919050565b6000602082019050818103600083015261480c81613fa4565b9050919050565b6000602082019050818103600083015261482c81613fc7565b9050919050565b6000602082019050818103600083015261484c81613fea565b9050919050565b6000602082019050818103600083015261486c8161400d565b9050919050565b6000602082019050818103600083015261488c81614030565b9050919050565b600060208201905081810360008301526148ac81614053565b9050919050565b600060208201905081810360008301526148cc81614076565b9050919050565b600060208201905081810360008301526148ec81614099565b9050919050565b6000602082019050818103600083015261490c816140bc565b9050919050565b6000602082019050614928600083018461431f565b92915050565b6000604082019050614943600083018561431f565b6149506020830184613b71565b9392505050565b600060c08201905061496c600083018961431f565b6149796020830188613b71565b614986604083018761431f565b614993606083018661431f565b6149a06080830185613b71565b81810360a08301526149b2818461419a565b9050979650505050505050565b6000610100820190506149d5600083018b61431f565b6149e2602083018a61431f565b6149ef6040830189613b71565b6149fc6060830188613b71565b614a096080830187613b71565b614a1660a0830186613b71565b614a2360c083018561431f565b81810360e0830152614a358184614259565b90509998505050505050505050565b600061012082019050614a5a600083018c61431f565b614a67602083018b61431f565b614a74604083018a613b71565b614a816060830189613b71565b614a8e6080830188613b71565b614a9b60a083018761431f565b614aa860c083018661431f565b614ab560e083018561431f565b818103610100830152614ac88184614259565b90509a9950505050505050505050565b600060c082019050614aed600083018961431f565b614afa602083018861431f565b614b076040830187613b71565b614b146060830186613b71565b614b21608083018561431f565b81810360a0830152614b338184614259565b9050979650505050505050565b600060e082019050614b55600083018a61431f565b614b62602083018961431f565b614b6f6040830188613b71565b614b7c6060830187613b71565b614b89608083018661431f565b614b9660a083018561431f565b81810360c0830152614ba88184614259565b905098975050505050505050565b600060c082019050614bcb600083018961431f565b614bd8602083018861431f565b614be56040830187613b71565b614bf2606083018661431f565b614bff6080830185613b71565b81810360a0830152614c11818461419a565b9050979650505050505050565b6000614c28614c39565b9050614c348282615009565b919050565b6000604051905090565b600067ffffffffffffffff821115614c5e57614c5d615110565b5b602082029050602081019050919050565b600067ffffffffffffffff821115614c8a57614c89615110565b5b602082029050602081019050919050565b600067ffffffffffffffff821115614cb657614cb5615110565b5b614cbf8261513f565b9050602081019050919050565b600067ffffffffffffffff821115614ce757614ce6615110565b5b614cf08261513f565b9050602081019050919050565b6000819050602082019050919050565b60008190508160005260206000209050919050565b60008190508160005260206000209050919050565b600081519050919050565b600081549050919050565b600081519050919050565b6000602082019050919050565b6000600382019050919050565b600082825260208201905092915050565b600082825260208201905092915050565b600081905092915050565b600082825260208201905092915050565b600082825260208201905092915050565b6000614dcc82614f5f565b9150614dd783614f5f565b9250827fffffffffffffffffffffffffffffffffffffffffffffffffffffffffffffffff03821115614e0c57614e0b615083565b5b828201905092915050565b6000614e2282614f5f565b9150614e2d83614f5f565b925082614e3d57614e3c6150b2565b5b828204905092915050565b6000614e5382614f5f565b9150614e5e83614f5f565b9250817fffffffffffffffffffffffffffffffffffffffffffffffffffffffffffffffff0483118215151615614e9757614e96615083565b5b828202905092915050565b6000614ead82614f5f565b9150614eb883614f5f565b925082821015614ecb57614eca615083565b5b828203905092915050565b600060ff82169050919050565b6000614eee82614f3f565b9050919050565b6000614f0082614f3f565b9050919050565b60008115159050919050565b60007fffffffff0000000000000000000000000000000000000000000000000000000082169050919050565b600073ffffffffffffffffffffffffffffffffffffffff82169050919050565b6000819050919050565b6000614f7482614f5f565b9050919050565b82818337600083830152505050565b60005b83811015614fa8578082015181840152602081019050614f8d565b83811115614fb7576000848401525b50505050565b60006002820490506001821680614fd557607f821691505b60208210811415614fe957614fe86150e1565b5b50919050565b6000615002614ffd83615150565b614ed6565b9050919050565b6150128261513f565b810181811067ffffffffffffffff8211171561503157615030615110565b5b80604052505050565b600061504582614f5f565b91507fffffffffffffffffffffffffffffffffffffffffffffffffffffffffffffffff82141561507857615077615083565b5b600182019050919050565b7f4e487b7100000000000000000000000000000000000000000000000000000000600052601160045260246000fd5b7f4e487b7100000000000000000000000000000000000000000000000000000000600052601260045260246000fd5b7f4e487b7100000000000000000000000000000000000000000000000000000000600052602260045260246000fd5b7f4e487b7100000000000000000000000000000000000000000000000000000000600052604160045260246000fd5b6000601f19601f8301169050919050565b60008160001c9050919050565b7f4e6f7420656e6f756768206974656d7320666f722073616c6500000000000000600082015250565b7f43616e2063616e63656c206f6e6c792073696d706c65206c697374696e677300600082015250565b7f4f6e6c79206f776e65722063616e207769746864726177000000000000000000600082015250565b7f41206c697374696e6720616c72656164792065786973747320666f722074686560008201527f20746f6b656e0000000000000000000000000000000000000000000000000000602082015250565b7f3078300000000000000000000000000000000000000000000000000000000000600082015250565b7f4f6e6c79206f776e65722063616e2063616e63656c0000000000000000000000600082015250565b7f506c65617365207375626d6974207468652061736b696e67207072696365206960008201527f6e206f7264657220746f20636f6d706c65746520746865207075726368617365602082015250565b7f43616e2063616e63656c206f6e6c792061756374696f6e730000000000000000600082015250565b7f43616e27742063616e63656c20616e2061756374696f6e20696620746865726560008201527f2061726520626964730000000000000000000000000000000000000000000000602082015250565b7f5468652061756374696f6e206861736e277420656e6465640000000000000000600082015250565b7f416c726561647920636c6f736564000000000000000000000000000000000000600082015250565b50565b7f5468652061756374696f6e2068617320656e6465640000000000000000000000600082015250565b7f62616c616e636520697320300000000000000000000000000000000000000000600082015250565b7f416c726561647920696e697469616c697a656400000000000000000000000000600082015250565b7f446561646c696e65206d75737420626520696e20746865206675747572650000600082015250565b7f41756374696f6e206f776e65722063616e277420706c61636520626964206f6e60008201527f206869732041756374696f6e0000000000000000000000000000000000000000602082015250565b7f4861766520746f2070726f7669646520736f6d65207175616e74697479000000600082015250565b7f4861766520746f206f6666657220686967686572207072696365000000000000600082015250565b7f4861766520746f2062757920736f6d657468696e670000000000000000000000600082015250565b7f5468657265206973206e6f7468696e6720746f2063616e63656c000000000000600082015250565b7f5265656e7472616e637947756172643a207265656e7472616e742063616c6c00600082015250565b7f5072696365206d757374206265206174206c6561737420312077656900000000600082015250565b61558781614ee3565b811461559257600080fd5b50565b61559e81614f07565b81146155a957600080fd5b50565b6155b581614f5f565b81146155c057600080fd5b5056fea2646970667358221220aaaa8d97ab75644170276019153b5c814e7f1ba885bc443cf9f35fa217a0bb4364736f6c63430008040033",
  "immutableReferences": {},
  "source": "// contracts/Market.sol\n// SPDX-License-Identifier: MIT OR Apache-2.0\npragma solidity ^0.8.4;\n\n// import \"@openzeppelin/contracts/token/ERC721/ERC721.sol\";\nimport \"@openzeppelin/contracts/token/ERC1155/ERC1155.sol\";\nimport \"@openzeppelin/contracts/token/ERC1155/IERC1155.sol\";\nimport \"@openzeppelin/contracts/utils/Counters.sol\";\nimport \"@openzeppelin/contracts/token/ERC1155/IERC1155Receiver.sol\";\n\n// security\nimport \"@openzeppelin/contracts/security/ReentrancyGuard.sol\";\n\ncontract NFTMarket is ReentrancyGuard {\n    using Counters for Counters.Counter;\n    Counters.Counter private _listingIds;\n\n    address payable public owner;\n    uint256 internal commissionPercent = 1; // check instructions about using other values\n\n    // NFT address -> token id -> (royalty + creator address)\n    mapping(address => mapping(uint256 => InitialItem)) public initialItems;\n    mapping(uint256 => SimpleMarketItem) public simpleListingIdToMarketItem;\n    mapping(uint256 => AuctionMarketItem) public auctionListingIdToMarketItem;\n    // Amount of tokens a user has for sale, per contract and per tokenId\n    mapping(address => mapping(address => mapping(uint256 => uint256)))\n        public userListedTokens;\n\n    struct Attribute {\n        string display_type;\n        string trait_type;\n        string value;\n    }\n\n    struct FrontData {\n        string name;\n        string description;\n        string imageUrl;\n        Attribute[] attributes;\n        bool multiple;\n        string collectionId;\n        string category;\n    }\n\n    mapping(uint256 => FrontData) public listingIdToFrontData;\n\n    constructor() {\n        owner = payable(msg.sender);\n    }\n\n    struct InitialItem {\n        uint256 royalty;\n        address creator;\n    }\n\n    struct SimpleMarketItem {\n        address nftContract;\n        uint256 tokenId;\n        uint256 price;\n        uint256 originalQuantity;\n        uint256 remainingQuantity;\n        address ownerAddress;\n    }\n\n    struct AuctionMarketItem {\n        address nftContract;\n        uint256 tokenId;\n        uint256 startPrice;\n        uint256 currentBid;\n        address currentBidderAddress;\n        address ownerAddress;\n        uint256 deadline;\n        bool isClosed;\n    }\n\n    event SimpleMarketItemCreated(\n        uint256 indexed listingId,\n        address indexed nftContract,\n        uint256 indexed tokenId,\n        uint256 price,\n        address creatorAddress,\n        uint256 royalty,\n        uint256 quantity,\n        address sellerAddress,\n        FrontData frontData\n    );\n\n    event AuctionMarketItemCreated(\n        uint256 indexed listingId,\n        address indexed nftContract,\n        uint256 indexed tokenId,\n        uint256 startPrice,\n        uint256 deadline,\n        address creatorAddress,\n        uint256 royalty,\n        address sellerAddress,\n        FrontData frontData\n    );\n\n    event BidCreated(\n        uint256 indexed listingId,\n        address bidderAddress,\n        uint256 price,\n        uint256 tokenId\n    );\n\n    event BuySimpleEvent(\n        uint256 listingId,\n        uint256 tokenId,\n        address creatorAddress,\n        address sellerAddress,\n        address buyerAddress,\n        uint256 price,\n        uint256 quantity,\n        uint256 royalty,\n        FrontData frontData\n    );\n\n    event CancelSimpleEvent(\n        uint256 listingId,\n        uint256 tokenId,\n        address creatorAddress,\n        address sellerAddress,\n        uint256 quantity,\n        uint256 royalty,\n        FrontData frontData\n    );\n\n    event CancelAuctionEvent(\n        uint256 listingId,\n        uint256 tokenId,\n        address creatorAddress,\n        address sellerAddress,\n        uint256 royalty,\n        FrontData frontData\n    );\n\n    event TerminateAuctionEvent(\n        uint256 listingId,\n        uint256 tokenId,\n        address creatorAddress,\n        address sellerAddress,\n        address bidderAddress,\n        address terminatorAddress,\n        uint256 royalty,\n        FrontData frontData\n    );\n\n    // get royalties amount\n    function getPriceAfterPercent(\n        uint256 price,\n        uint256 quantity,\n        uint256 percent\n    ) public pure returns (uint256) {\n        uint256 _percent = percent;\n        return ((price * quantity) * _percent) / 100;\n    }\n\n    // Called by NFT contract\n    function initializeItem(\n        address nftContract,\n        uint256 tokenId,\n        address creator,\n        uint256 royalty\n    ) public {\n        require(\n            initialItems[nftContract][tokenId].creator == address(0x0),\n            \"Already initialized\"\n        );\n        initialItems[nftContract][tokenId] = InitialItem(royalty, creator);\n    }\n\n    function getLatestListItemId() public view returns (uint256) {\n        return _listingIds.current();\n    }\n\n    function addFrontDataForListingId(\n        uint256 listingId,\n        FrontData memory frontData\n    ) internal {\n        FrontData storage newFrontData = listingIdToFrontData[listingId];\n        newFrontData.name = frontData.name;\n        newFrontData.description = frontData.description;\n        newFrontData.imageUrl = frontData.imageUrl;\n        newFrontData.multiple = frontData.multiple;\n        newFrontData.collectionId = frontData.collectionId;\n        newFrontData.category = frontData.category;\n        for (uint256 i = 0; i < frontData.attributes.length; i++) {\n            Attribute memory attribute = frontData.attributes[i];\n            newFrontData.attributes.push(attribute);\n        }\n    }\n\n    /* Places an item for sale on the marketplace */\n    function createSimpleMarketItem(\n        address nftContract,\n        uint256 tokenId,\n        uint256 price,\n        uint256 quantity,\n        FrontData memory frontData\n    ) public nonReentrant {\n        require(price > 0, \"Price must be at least 1 wei\");\n        require(quantity > 0, \"Have to provide some quantity\");\n        require(\n            userListedTokens[msg.sender][nftContract][tokenId] == 0,\n            \"A listing already exists for the token\"\n        );\n\n        _listingIds.increment();\n        uint256 listingId = _listingIds.current();\n\n        simpleListingIdToMarketItem[listingId] = SimpleMarketItem(\n            nftContract,\n            tokenId,\n            price,\n            quantity,\n            quantity,\n            msg.sender\n        );\n\n        userListedTokens[msg.sender][nftContract][tokenId] = quantity;\n\n        // transfer from the seller to here (the market contract)\n        IERC1155(nftContract).safeTransferFrom(\n            msg.sender,\n            address(this),\n            tokenId,\n            quantity,\n            \"\"\n        );\n        uint256 royalty = initialItems[nftContract][tokenId].royalty;\n        address creator = initialItems[nftContract][tokenId].creator;\n\n        addFrontDataForListingId(listingId, frontData);\n        emit SimpleMarketItemCreated(\n            listingId,\n            nftContract,\n            tokenId,\n            price,\n            creator,\n            royalty,\n            quantity,\n            msg.sender,\n            frontData\n        );\n    }\n\n    function createAuctionMarketItem(\n        address nftContract,\n        uint256 tokenId,\n        uint256 startPrice,\n        uint256 deadline,\n        FrontData memory frontData\n    ) public nonReentrant {\n        require(deadline > block.timestamp, \"Deadline must be in the future\");\n        require(\n            userListedTokens[msg.sender][nftContract][tokenId] == 0,\n            \"A listing already exists for the token\"\n        );\n        _listingIds.increment();\n        uint256 listingId = _listingIds.current();\n\n        auctionListingIdToMarketItem[listingId] = AuctionMarketItem(\n            nftContract,\n            tokenId,\n            startPrice,\n            startPrice,\n            address(0x0),\n            msg.sender,\n            deadline,\n            false\n        );\n\n        userListedTokens[msg.sender][nftContract][tokenId] = 1;\n\n        // transfer from the seller to here (the market contract)\n        IERC1155(nftContract).safeTransferFrom(\n            msg.sender,\n            address(this),\n            tokenId,\n            1,\n            \"\"\n        );\n        addFrontDataForListingId(listingId, frontData);\n        uint256 royalty = initialItems[nftContract][tokenId].royalty;\n        address creator = initialItems[nftContract][tokenId].creator;\n        emit AuctionMarketItemCreated(\n            listingId,\n            nftContract,\n            tokenId,\n            startPrice,\n            deadline,\n            creator,\n            royalty,\n            msg.sender,\n            frontData\n        );\n    }\n\n    /* Creates the sale of a simple marketplace item */\n    /* Transfers ownership of the item, as well as funds between parties */\n    function buySimple(\n        // ===> buying\n        uint256 listingId,\n        uint256 quantity\n    ) public payable nonReentrant {\n        SimpleMarketItem storage marketItem = simpleListingIdToMarketItem[\n            listingId\n        ];\n\n        require(quantity > 0, \"Have to buy something\");\n        require(\n            quantity <= marketItem.remainingQuantity,\n            \"Not enough items for sale\"\n        );\n\n        uint256 commission = getPriceAfterPercent(\n            marketItem.price,\n            quantity,\n            commissionPercent\n        );\n\n        require(\n            msg.value == (marketItem.price * quantity) + commission,\n            \"Please submit the asking price in order to complete the purchase\"\n        );\n\n        marketItem.remainingQuantity -= quantity;\n\n        InitialItem memory item = initialItems[marketItem.nftContract][\n            marketItem.tokenId\n        ];\n        if (item.royalty > 0 && item.creator != address(0x0)) {\n            uint256 creatorRoyalty = getPriceAfterPercent(\n                marketItem.price,\n                quantity,\n                item.royalty\n            );\n\n            sendAssets(item.creator, creatorRoyalty);\n            sendAssets(\n                marketItem.ownerAddress,\n                marketItem.price * quantity - creatorRoyalty\n            );\n        } else {\n            sendAssets(marketItem.ownerAddress, marketItem.price * quantity);\n        }\n\n        // pay commission to the market place\n        sendAssets(owner, commission);\n\n        userListedTokens[marketItem.ownerAddress][marketItem.nftContract][\n            marketItem.tokenId\n        ] = marketItem.remainingQuantity;\n\n        // transfer the nft fron here to the buyer\n        IERC1155(marketItem.nftContract).safeTransferFrom(\n            address(this),\n            msg.sender,\n            marketItem.tokenId,\n            quantity,\n            \"0x0\"\n        );\n        emit BuySimpleEvent(\n            listingId,\n            marketItem.tokenId,\n            item.creator,\n            marketItem.ownerAddress,\n            msg.sender,\n            marketItem.price,\n            quantity,\n            item.royalty,\n            listingIdToFrontData[listingId]\n        );\n    }\n\n    function bid(uint256 listingId) public payable nonReentrant {\n        AuctionMarketItem storage marketItem = auctionListingIdToMarketItem[\n            listingId\n        ];\n        require(!marketItem.isClosed, \"Already closed\");\n        require(\n            msg.sender != marketItem.ownerAddress,\n            \"Auction owner can't place bid on his Auction\"\n        );\n\n        uint256 pureBid = (msg.value * 100) / (commissionPercent + 100);\n\n        require(pureBid > marketItem.currentBid, \"Have to offer higher price\");\n        require(block.timestamp < marketItem.deadline, \"The auction has ended\");\n        require(!marketItem.isClosed, \"Already closed\");\n\n        uint256 oldCommission = getPriceAfterPercent(\n            marketItem.currentBid,\n            1,\n            commissionPercent\n        );\n\n        // If someone had placed a bid earlier, return that bid\n        if (marketItem.currentBidderAddress != address(0x0)) {\n            (bool success, ) = payable(marketItem.currentBidderAddress).call{\n                value: marketItem.currentBid + oldCommission,\n                gas: 3000\n            }(\"\");\n            if (!success) {\n                // What should happen if the receiver doesn't accept the assets?\n            }\n        }\n\n        marketItem.currentBidderAddress = msg.sender;\n        marketItem.currentBid = pureBid;\n\n        emit BidCreated(listingId, msg.sender, pureBid, marketItem.tokenId);\n    }\n\n    // Terminates an auction and settles its result\n    function terminateAuction(uint256 listingId) public {\n        AuctionMarketItem storage marketItem = auctionListingIdToMarketItem[\n            listingId\n        ];\n        require(!marketItem.isClosed, \"Already closed\");\n        require(\n            block.timestamp >= marketItem.deadline,\n            \"The auction hasn't ended\"\n        );\n\n        InitialItem memory item = initialItems[marketItem.nftContract][\n            marketItem.tokenId\n        ];\n        if (marketItem.currentBidderAddress != address(0x0)) {\n            uint256 commission = getPriceAfterPercent(\n                marketItem.currentBid,\n                1,\n                commissionPercent\n            );\n\n            if (item.royalty > 0 && item.creator != address(0x0)) {\n                uint256 creatorRoyalty = getPriceAfterPercent(\n                    marketItem.currentBid,\n                    1,\n                    item.royalty\n                );\n                sendAssets(item.creator, creatorRoyalty);\n                sendAssets(\n                    marketItem.ownerAddress,\n                    marketItem.currentBid - creatorRoyalty\n                );\n            } else {\n                sendAssets(marketItem.ownerAddress, marketItem.currentBid);\n            }\n\n            // pay commission to the market place\n            sendAssets(owner, commission);\n\n            // transfer the nft fron here to the buyer\n            IERC1155(marketItem.nftContract).safeTransferFrom(\n                address(this),\n                marketItem.currentBidderAddress,\n                marketItem.tokenId,\n                1,\n                \"0x0\"\n            );\n        } else {\n            // no bidders\n            // transfer the nft from here to the original owner\n            IERC1155(marketItem.nftContract).safeTransferFrom(\n                address(this),\n                marketItem.ownerAddress,\n                marketItem.tokenId,\n                1,\n                \"0x0\"\n            );\n        }\n        userListedTokens[marketItem.ownerAddress][marketItem.nftContract][\n            marketItem.tokenId\n        ] = 0;\n        marketItem.isClosed = true;\n\n        emit TerminateAuctionEvent(\n            listingId,\n            marketItem.tokenId,\n            item.creator,\n            marketItem.ownerAddress,\n            marketItem.currentBidderAddress,\n            msg.sender,\n            item.royalty,\n            listingIdToFrontData[listingId]\n        );\n    }\n\n    function cancelAuctionListing(uint256 listingId) public {\n        AuctionMarketItem storage marketItem = auctionListingIdToMarketItem[\n            listingId\n        ];\n        require(marketItem.deadline > 0, \"Can cancel only auctions\");\n        require(marketItem.ownerAddress == msg.sender, \"Only owner can cancel\");\n        require(!marketItem.isClosed, \"Already closed\");\n        require(\n            marketItem.currentBidderAddress == address(0x0),\n            \"Can't cancel an auction if there are bids\"\n        );\n\n        marketItem.isClosed = true;\n\n        // getting the nft back\n        IERC1155(marketItem.nftContract).safeTransferFrom(\n            address(this),\n            marketItem.ownerAddress,\n            marketItem.tokenId,\n            1,\n            \"0x0\"\n        );\n\n        userListedTokens[marketItem.ownerAddress][marketItem.nftContract][\n            marketItem.tokenId\n        ] = 0;\n\n        InitialItem memory item = initialItems[marketItem.nftContract][\n            marketItem.tokenId\n        ];\n        emit CancelAuctionEvent(\n            listingId,\n            marketItem.tokenId,\n            item.creator,\n            marketItem.ownerAddress,\n            item.royalty,\n            listingIdToFrontData[listingId]\n        );\n    }\n\n    function cancelSimpleListing(uint256 listingId) public {\n        SimpleMarketItem storage marketItem = simpleListingIdToMarketItem[\n            listingId\n        ];\n        require(\n            marketItem.originalQuantity > 0,\n            \"Can cancel only simple listings\"\n        );\n        require(marketItem.ownerAddress == msg.sender, \"Only owner can cancel\");\n        require(marketItem.remainingQuantity > 0, \"There is nothing to cancel\");\n\n        // should add another require marketItem.remainingQuantity > 0,\n        // in case nothing is to cancel\n\n        uint256 remaining = marketItem.remainingQuantity;\n        marketItem.remainingQuantity = 0;\n\n        // getting the nft back\n        IERC1155(marketItem.nftContract).safeTransferFrom(\n            address(this),\n            marketItem.ownerAddress,\n            marketItem.tokenId,\n            remaining,\n            \"0x0\"\n        );\n\n        userListedTokens[marketItem.ownerAddress][marketItem.nftContract][\n            marketItem.tokenId\n        ] = 0;\n        InitialItem memory item = initialItems[marketItem.nftContract][\n            marketItem.tokenId\n        ];\n\n        emit CancelSimpleEvent(\n            listingId,\n            marketItem.tokenId,\n            item.creator,\n            marketItem.ownerAddress,\n            marketItem.remainingQuantity,\n            item.royalty,\n            listingIdToFrontData[listingId]\n        );\n    }\n\n    function sendAssets(address receiver, uint256 amount) internal {\n        (bool success, ) = payable(receiver).call{value: amount, gas: 3000}(\"\");\n        if (!success) {\n            // What should happen if the receiver doesn't accept the assets? Probably just ignore it?\n        }\n    }\n\n    // owner withdraw money. The contract is useless after this. Unsure if you want this.\n    function withdraw() public {\n        require(address(this).balance > 0, \"balance is 0\");\n        require(owner == msg.sender, \"Only owner can withdraw\");\n        sendAssets(owner, address(this).balance);\n    }\n\n    function onERC1155Received(\n        address,\n        address,\n        uint256,\n        uint256,\n        bytes memory\n    ) public virtual returns (bytes4) {\n        return this.onERC1155Received.selector;\n    }\n\n    function onERC1155BatchReceived(\n        address,\n        address,\n        uint256[] memory,\n        uint256[] memory,\n        bytes memory\n    ) public virtual returns (bytes4) {\n        return this.onERC1155BatchReceived.selector;\n    }\n}\n",
  "sourcePath": "/Users/timor/Desktop/nftOnPulse/nft-front/src/contracts/NFTMarket.sol",
  "compiler": {
    "name": "solc",
    "version": "0.8.4+commit.c7e474f2.Emscripten.clang"
  },
  "schemaVersion": "3.4.6",
  "updatedAt": "2022-06-07T18:36:11.166Z",
  "networkType": "ethereum",
  "devdoc": {
    "kind": "dev",
    "methods": {},
    "version": 1
  },
  "userdoc": {
    "kind": "user",
    "methods": {},
    "version": 1
  }
}