{
  "contractName": "NFTMarket",
  "abi": [
    {
      "inputs": [],
      "stateMutability": "nonpayable",
      "type": "constructor"
    },
    {
      "anonymous": false,
      "inputs": [
        {
          "indexed": true,
          "internalType": "uint256",
          "name": "listingId",
          "type": "uint256"
        },
        {
          "indexed": true,
          "internalType": "address",
          "name": "nftContract",
          "type": "address"
        },
        {
          "indexed": true,
          "internalType": "uint256",
          "name": "tokenId",
          "type": "uint256"
        },
        {
          "indexed": false,
          "internalType": "uint256",
          "name": "startPrice",
          "type": "uint256"
        },
        {
          "indexed": false,
          "internalType": "uint256",
          "name": "deadline",
          "type": "uint256"
        },
        {
          "indexed": false,
          "internalType": "address",
          "name": "creatorAddress",
          "type": "address"
        },
        {
          "indexed": false,
          "internalType": "uint256",
          "name": "royalty",
          "type": "uint256"
        },
        {
          "indexed": false,
          "internalType": "address",
          "name": "sellerAddress",
          "type": "address"
        },
        {
          "components": [
            {
              "internalType": "string",
              "name": "name",
              "type": "string"
            },
            {
              "internalType": "string",
              "name": "description",
              "type": "string"
            },
            {
              "internalType": "string",
              "name": "imageUrl",
              "type": "string"
            },
            {
              "internalType": "string",
              "name": "previewImageUrl",
              "type": "string"
            },
            {
              "components": [
                {
                  "internalType": "string",
                  "name": "display_type",
                  "type": "string"
                },
                {
                  "internalType": "string",
                  "name": "trait_type",
                  "type": "string"
                },
                {
                  "internalType": "string",
                  "name": "value",
                  "type": "string"
                }
              ],
              "internalType": "struct NFTMarket.Attribute[]",
              "name": "attributes",
              "type": "tuple[]"
            },
            {
              "internalType": "bool",
              "name": "multiple",
              "type": "bool"
            },
            {
              "internalType": "string",
              "name": "collectionId",
              "type": "string"
            },
            {
              "internalType": "string",
              "name": "category",
              "type": "string"
            }
          ],
          "indexed": false,
          "internalType": "struct NFTMarket.FrontData",
          "name": "frontData",
          "type": "tuple"
        }
      ],
      "name": "AuctionMarketItemCreated",
      "type": "event"
    },
    {
      "anonymous": false,
      "inputs": [
        {
          "indexed": true,
          "internalType": "uint256",
          "name": "listingId",
          "type": "uint256"
        },
        {
          "indexed": false,
          "internalType": "address",
          "name": "bidderAddress",
          "type": "address"
        },
        {
          "indexed": false,
          "internalType": "uint256",
          "name": "price",
          "type": "uint256"
        },
        {
          "indexed": false,
          "internalType": "uint256",
          "name": "tokenId",
          "type": "uint256"
        }
      ],
      "name": "BidCreated",
      "type": "event"
    },
    {
      "anonymous": false,
      "inputs": [
        {
          "indexed": false,
          "internalType": "uint256",
          "name": "listingId",
          "type": "uint256"
        },
        {
          "indexed": false,
          "internalType": "uint256",
          "name": "tokenId",
          "type": "uint256"
        },
        {
          "indexed": false,
          "internalType": "address",
          "name": "creatorAddress",
          "type": "address"
        },
        {
          "indexed": false,
          "internalType": "address",
          "name": "sellerAddress",
          "type": "address"
        },
        {
          "indexed": false,
          "internalType": "address",
          "name": "buyerAddress",
          "type": "address"
        },
        {
          "indexed": false,
          "internalType": "uint256",
          "name": "price",
          "type": "uint256"
        },
        {
          "indexed": false,
          "internalType": "uint256",
          "name": "quantity",
          "type": "uint256"
        },
        {
          "indexed": false,
          "internalType": "uint256",
          "name": "royalty",
          "type": "uint256"
        },
        {
          "components": [
            {
              "internalType": "string",
              "name": "name",
              "type": "string"
            },
            {
              "internalType": "string",
              "name": "description",
              "type": "string"
            },
            {
              "internalType": "string",
              "name": "imageUrl",
              "type": "string"
            },
            {
              "internalType": "string",
              "name": "previewImageUrl",
              "type": "string"
            },
            {
              "components": [
                {
                  "internalType": "string",
                  "name": "display_type",
                  "type": "string"
                },
                {
                  "internalType": "string",
                  "name": "trait_type",
                  "type": "string"
                },
                {
                  "internalType": "string",
                  "name": "value",
                  "type": "string"
                }
              ],
              "internalType": "struct NFTMarket.Attribute[]",
              "name": "attributes",
              "type": "tuple[]"
            },
            {
              "internalType": "bool",
              "name": "multiple",
              "type": "bool"
            },
            {
              "internalType": "string",
              "name": "collectionId",
              "type": "string"
            },
            {
              "internalType": "string",
              "name": "category",
              "type": "string"
            }
          ],
          "indexed": false,
          "internalType": "struct NFTMarket.FrontData",
          "name": "frontData",
          "type": "tuple"
        }
      ],
      "name": "BuySimpleEvent",
      "type": "event"
    },
    {
      "anonymous": false,
      "inputs": [
        {
          "indexed": false,
          "internalType": "uint256",
          "name": "listingId",
          "type": "uint256"
        },
        {
          "indexed": false,
          "internalType": "uint256",
          "name": "tokenId",
          "type": "uint256"
        },
        {
          "indexed": false,
          "internalType": "address",
          "name": "creatorAddress",
          "type": "address"
        },
        {
          "indexed": false,
          "internalType": "address",
          "name": "sellerAddress",
          "type": "address"
        },
        {
          "indexed": false,
          "internalType": "uint256",
          "name": "royalty",
          "type": "uint256"
        },
        {
          "components": [
            {
              "internalType": "string",
              "name": "name",
              "type": "string"
            },
            {
              "internalType": "string",
              "name": "description",
              "type": "string"
            },
            {
              "internalType": "string",
              "name": "imageUrl",
              "type": "string"
            },
            {
              "internalType": "string",
              "name": "previewImageUrl",
              "type": "string"
            },
            {
              "components": [
                {
                  "internalType": "string",
                  "name": "display_type",
                  "type": "string"
                },
                {
                  "internalType": "string",
                  "name": "trait_type",
                  "type": "string"
                },
                {
                  "internalType": "string",
                  "name": "value",
                  "type": "string"
                }
              ],
              "internalType": "struct NFTMarket.Attribute[]",
              "name": "attributes",
              "type": "tuple[]"
            },
            {
              "internalType": "bool",
              "name": "multiple",
              "type": "bool"
            },
            {
              "internalType": "string",
              "name": "collectionId",
              "type": "string"
            },
            {
              "internalType": "string",
              "name": "category",
              "type": "string"
            }
          ],
          "indexed": false,
          "internalType": "struct NFTMarket.FrontData",
          "name": "frontData",
          "type": "tuple"
        }
      ],
      "name": "CancelAuctionEvent",
      "type": "event"
    },
    {
      "anonymous": false,
      "inputs": [
        {
          "indexed": false,
          "internalType": "uint256",
          "name": "listingId",
          "type": "uint256"
        },
        {
          "indexed": false,
          "internalType": "uint256",
          "name": "tokenId",
          "type": "uint256"
        },
        {
          "indexed": false,
          "internalType": "address",
          "name": "creatorAddress",
          "type": "address"
        },
        {
          "indexed": false,
          "internalType": "address",
          "name": "sellerAddress",
          "type": "address"
        },
        {
          "indexed": false,
          "internalType": "uint256",
          "name": "quantity",
          "type": "uint256"
        },
        {
          "indexed": false,
          "internalType": "uint256",
          "name": "royalty",
          "type": "uint256"
        },
        {
          "components": [
            {
              "internalType": "string",
              "name": "name",
              "type": "string"
            },
            {
              "internalType": "string",
              "name": "description",
              "type": "string"
            },
            {
              "internalType": "string",
              "name": "imageUrl",
              "type": "string"
            },
            {
              "internalType": "string",
              "name": "previewImageUrl",
              "type": "string"
            },
            {
              "components": [
                {
                  "internalType": "string",
                  "name": "display_type",
                  "type": "string"
                },
                {
                  "internalType": "string",
                  "name": "trait_type",
                  "type": "string"
                },
                {
                  "internalType": "string",
                  "name": "value",
                  "type": "string"
                }
              ],
              "internalType": "struct NFTMarket.Attribute[]",
              "name": "attributes",
              "type": "tuple[]"
            },
            {
              "internalType": "bool",
              "name": "multiple",
              "type": "bool"
            },
            {
              "internalType": "string",
              "name": "collectionId",
              "type": "string"
            },
            {
              "internalType": "string",
              "name": "category",
              "type": "string"
            }
          ],
          "indexed": false,
          "internalType": "struct NFTMarket.FrontData",
          "name": "frontData",
          "type": "tuple"
        }
      ],
      "name": "CancelSimpleEvent",
      "type": "event"
    },
    {
      "anonymous": false,
      "inputs": [
        {
          "indexed": true,
          "internalType": "uint256",
          "name": "listingId",
          "type": "uint256"
        },
        {
          "indexed": true,
          "internalType": "address",
          "name": "nftContract",
          "type": "address"
        },
        {
          "indexed": true,
          "internalType": "uint256",
          "name": "tokenId",
          "type": "uint256"
        },
        {
          "indexed": false,
          "internalType": "uint256",
          "name": "price",
          "type": "uint256"
        },
        {
          "indexed": false,
          "internalType": "address",
          "name": "creatorAddress",
          "type": "address"
        },
        {
          "indexed": false,
          "internalType": "uint256",
          "name": "royalty",
          "type": "uint256"
        },
        {
          "indexed": false,
          "internalType": "uint256",
          "name": "quantity",
          "type": "uint256"
        },
        {
          "indexed": false,
          "internalType": "address",
          "name": "sellerAddress",
          "type": "address"
        },
        {
          "components": [
            {
              "internalType": "string",
              "name": "name",
              "type": "string"
            },
            {
              "internalType": "string",
              "name": "description",
              "type": "string"
            },
            {
              "internalType": "string",
              "name": "imageUrl",
              "type": "string"
            },
            {
              "internalType": "string",
              "name": "previewImageUrl",
              "type": "string"
            },
            {
              "components": [
                {
                  "internalType": "string",
                  "name": "display_type",
                  "type": "string"
                },
                {
                  "internalType": "string",
                  "name": "trait_type",
                  "type": "string"
                },
                {
                  "internalType": "string",
                  "name": "value",
                  "type": "string"
                }
              ],
              "internalType": "struct NFTMarket.Attribute[]",
              "name": "attributes",
              "type": "tuple[]"
            },
            {
              "internalType": "bool",
              "name": "multiple",
              "type": "bool"
            },
            {
              "internalType": "string",
              "name": "collectionId",
              "type": "string"
            },
            {
              "internalType": "string",
              "name": "category",
              "type": "string"
            }
          ],
          "indexed": false,
          "internalType": "struct NFTMarket.FrontData",
          "name": "frontData",
          "type": "tuple"
        }
      ],
      "name": "SimpleMarketItemCreated",
      "type": "event"
    },
    {
      "anonymous": false,
      "inputs": [
        {
          "indexed": false,
          "internalType": "uint256",
          "name": "listingId",
          "type": "uint256"
        },
        {
          "indexed": false,
          "internalType": "uint256",
          "name": "tokenId",
          "type": "uint256"
        },
        {
          "indexed": false,
          "internalType": "address",
          "name": "creatorAddress",
          "type": "address"
        },
        {
          "indexed": false,
          "internalType": "address",
          "name": "sellerAddress",
          "type": "address"
        },
        {
          "indexed": false,
          "internalType": "address",
          "name": "bidderAddress",
          "type": "address"
        },
        {
          "indexed": false,
          "internalType": "address",
          "name": "terminatorAddress",
          "type": "address"
        },
        {
          "indexed": false,
          "internalType": "uint256",
          "name": "royalty",
          "type": "uint256"
        },
        {
          "components": [
            {
              "internalType": "string",
              "name": "name",
              "type": "string"
            },
            {
              "internalType": "string",
              "name": "description",
              "type": "string"
            },
            {
              "internalType": "string",
              "name": "imageUrl",
              "type": "string"
            },
            {
              "internalType": "string",
              "name": "previewImageUrl",
              "type": "string"
            },
            {
              "components": [
                {
                  "internalType": "string",
                  "name": "display_type",
                  "type": "string"
                },
                {
                  "internalType": "string",
                  "name": "trait_type",
                  "type": "string"
                },
                {
                  "internalType": "string",
                  "name": "value",
                  "type": "string"
                }
              ],
              "internalType": "struct NFTMarket.Attribute[]",
              "name": "attributes",
              "type": "tuple[]"
            },
            {
              "internalType": "bool",
              "name": "multiple",
              "type": "bool"
            },
            {
              "internalType": "string",
              "name": "collectionId",
              "type": "string"
            },
            {
              "internalType": "string",
              "name": "category",
              "type": "string"
            }
          ],
          "indexed": false,
          "internalType": "struct NFTMarket.FrontData",
          "name": "frontData",
          "type": "tuple"
        }
      ],
      "name": "TerminateAuctionEvent",
      "type": "event"
    },
    {
      "inputs": [
        {
          "internalType": "uint256",
          "name": "",
          "type": "uint256"
        }
      ],
      "name": "auctionListingIdToMarketItem",
      "outputs": [
        {
          "internalType": "address",
          "name": "nftContract",
          "type": "address"
        },
        {
          "internalType": "uint256",
          "name": "tokenId",
          "type": "uint256"
        },
        {
          "internalType": "uint256",
          "name": "startPrice",
          "type": "uint256"
        },
        {
          "internalType": "uint256",
          "name": "currentBid",
          "type": "uint256"
        },
        {
          "internalType": "address",
          "name": "currentBidderAddress",
          "type": "address"
        },
        {
          "internalType": "address",
          "name": "ownerAddress",
          "type": "address"
        },
        {
          "internalType": "uint256",
          "name": "deadline",
          "type": "uint256"
        },
        {
          "internalType": "bool",
          "name": "isClosed",
          "type": "bool"
        }
      ],
      "stateMutability": "view",
      "type": "function",
      "constant": true
    },
    {
      "inputs": [
        {
          "internalType": "address",
          "name": "",
          "type": "address"
        },
        {
          "internalType": "uint256",
          "name": "",
          "type": "uint256"
        }
      ],
      "name": "initialItems",
      "outputs": [
        {
          "internalType": "uint256",
          "name": "royalty",
          "type": "uint256"
        },
        {
          "internalType": "address",
          "name": "creator",
          "type": "address"
        }
      ],
      "stateMutability": "view",
      "type": "function",
      "constant": true
    },
    {
      "inputs": [
        {
          "internalType": "uint256",
          "name": "",
          "type": "uint256"
        }
      ],
      "name": "listingIdToFrontData",
      "outputs": [
        {
          "internalType": "string",
          "name": "name",
          "type": "string"
        },
        {
          "internalType": "string",
          "name": "description",
          "type": "string"
        },
        {
          "internalType": "string",
          "name": "imageUrl",
          "type": "string"
        },
        {
          "internalType": "string",
          "name": "previewImageUrl",
          "type": "string"
        },
        {
          "internalType": "bool",
          "name": "multiple",
          "type": "bool"
        },
        {
          "internalType": "string",
          "name": "collectionId",
          "type": "string"
        },
        {
          "internalType": "string",
          "name": "category",
          "type": "string"
        }
      ],
      "stateMutability": "view",
      "type": "function",
      "constant": true
    },
    {
      "inputs": [],
      "name": "owner",
      "outputs": [
        {
          "internalType": "address payable",
          "name": "",
          "type": "address"
        }
      ],
      "stateMutability": "view",
      "type": "function",
      "constant": true
    },
    {
      "inputs": [
        {
          "internalType": "uint256",
          "name": "",
          "type": "uint256"
        }
      ],
      "name": "simpleListingIdToMarketItem",
      "outputs": [
        {
          "internalType": "address",
          "name": "nftContract",
          "type": "address"
        },
        {
          "internalType": "uint256",
          "name": "tokenId",
          "type": "uint256"
        },
        {
          "internalType": "uint256",
          "name": "price",
          "type": "uint256"
        },
        {
          "internalType": "uint256",
          "name": "originalQuantity",
          "type": "uint256"
        },
        {
          "internalType": "uint256",
          "name": "remainingQuantity",
          "type": "uint256"
        },
        {
          "internalType": "address",
          "name": "ownerAddress",
          "type": "address"
        }
      ],
      "stateMutability": "view",
      "type": "function",
      "constant": true
    },
    {
      "inputs": [
        {
          "internalType": "address",
          "name": "",
          "type": "address"
        },
        {
          "internalType": "address",
          "name": "",
          "type": "address"
        },
        {
          "internalType": "uint256",
          "name": "",
          "type": "uint256"
        }
      ],
      "name": "userListedTokens",
      "outputs": [
        {
          "internalType": "uint256",
          "name": "",
          "type": "uint256"
        }
      ],
      "stateMutability": "view",
      "type": "function",
      "constant": true
    },
    {
      "inputs": [
        {
          "internalType": "uint256",
          "name": "price",
          "type": "uint256"
        },
        {
          "internalType": "uint256",
          "name": "quantity",
          "type": "uint256"
        },
        {
          "internalType": "uint256",
          "name": "percent",
          "type": "uint256"
        }
      ],
      "name": "getPriceAfterPercent",
      "outputs": [
        {
          "internalType": "uint256",
          "name": "",
          "type": "uint256"
        }
      ],
      "stateMutability": "pure",
      "type": "function",
      "constant": true
    },
    {
      "inputs": [
        {
          "internalType": "address",
          "name": "nftContract",
          "type": "address"
        },
        {
          "internalType": "uint256",
          "name": "tokenId",
          "type": "uint256"
        },
        {
          "internalType": "address",
          "name": "creator",
          "type": "address"
        },
        {
          "internalType": "uint256",
          "name": "royalty",
          "type": "uint256"
        }
      ],
      "name": "initializeItem",
      "outputs": [],
      "stateMutability": "nonpayable",
      "type": "function"
    },
    {
      "inputs": [],
      "name": "getLatestListItemId",
      "outputs": [
        {
          "internalType": "uint256",
          "name": "",
          "type": "uint256"
        }
      ],
      "stateMutability": "view",
      "type": "function",
      "constant": true
    },
    {
      "inputs": [
        {
          "internalType": "address",
          "name": "nftContract",
          "type": "address"
        },
        {
          "internalType": "uint256",
          "name": "tokenId",
          "type": "uint256"
        },
        {
          "internalType": "uint256",
          "name": "price",
          "type": "uint256"
        },
        {
          "internalType": "uint256",
          "name": "quantity",
          "type": "uint256"
        },
        {
          "components": [
            {
              "internalType": "string",
              "name": "name",
              "type": "string"
            },
            {
              "internalType": "string",
              "name": "description",
              "type": "string"
            },
            {
              "internalType": "string",
              "name": "imageUrl",
              "type": "string"
            },
            {
              "internalType": "string",
              "name": "previewImageUrl",
              "type": "string"
            },
            {
              "components": [
                {
                  "internalType": "string",
                  "name": "display_type",
                  "type": "string"
                },
                {
                  "internalType": "string",
                  "name": "trait_type",
                  "type": "string"
                },
                {
                  "internalType": "string",
                  "name": "value",
                  "type": "string"
                }
              ],
              "internalType": "struct NFTMarket.Attribute[]",
              "name": "attributes",
              "type": "tuple[]"
            },
            {
              "internalType": "bool",
              "name": "multiple",
              "type": "bool"
            },
            {
              "internalType": "string",
              "name": "collectionId",
              "type": "string"
            },
            {
              "internalType": "string",
              "name": "category",
              "type": "string"
            }
          ],
          "internalType": "struct NFTMarket.FrontData",
          "name": "frontData",
          "type": "tuple"
        }
      ],
      "name": "createSimpleMarketItem",
      "outputs": [],
      "stateMutability": "nonpayable",
      "type": "function"
    },
    {
      "inputs": [
        {
          "internalType": "address",
          "name": "nftContract",
          "type": "address"
        },
        {
          "internalType": "uint256",
          "name": "tokenId",
          "type": "uint256"
        },
        {
          "internalType": "uint256",
          "name": "startPrice",
          "type": "uint256"
        },
        {
          "internalType": "uint256",
          "name": "deadline",
          "type": "uint256"
        },
        {
          "components": [
            {
              "internalType": "string",
              "name": "name",
              "type": "string"
            },
            {
              "internalType": "string",
              "name": "description",
              "type": "string"
            },
            {
              "internalType": "string",
              "name": "imageUrl",
              "type": "string"
            },
            {
              "internalType": "string",
              "name": "previewImageUrl",
              "type": "string"
            },
            {
              "components": [
                {
                  "internalType": "string",
                  "name": "display_type",
                  "type": "string"
                },
                {
                  "internalType": "string",
                  "name": "trait_type",
                  "type": "string"
                },
                {
                  "internalType": "string",
                  "name": "value",
                  "type": "string"
                }
              ],
              "internalType": "struct NFTMarket.Attribute[]",
              "name": "attributes",
              "type": "tuple[]"
            },
            {
              "internalType": "bool",
              "name": "multiple",
              "type": "bool"
            },
            {
              "internalType": "string",
              "name": "collectionId",
              "type": "string"
            },
            {
              "internalType": "string",
              "name": "category",
              "type": "string"
            }
          ],
          "internalType": "struct NFTMarket.FrontData",
          "name": "frontData",
          "type": "tuple"
        }
      ],
      "name": "createAuctionMarketItem",
      "outputs": [],
      "stateMutability": "nonpayable",
      "type": "function"
    },
    {
      "inputs": [
        {
          "internalType": "uint256",
          "name": "listingId",
          "type": "uint256"
        },
        {
          "internalType": "uint256",
          "name": "quantity",
          "type": "uint256"
        }
      ],
      "name": "buySimple",
      "outputs": [],
      "stateMutability": "payable",
      "type": "function",
      "payable": true
    },
    {
      "inputs": [
        {
          "internalType": "uint256",
          "name": "listingId",
          "type": "uint256"
        }
      ],
      "name": "bid",
      "outputs": [],
      "stateMutability": "payable",
      "type": "function",
      "payable": true
    },
    {
      "inputs": [
        {
          "internalType": "uint256",
          "name": "listingId",
          "type": "uint256"
        }
      ],
      "name": "terminateAuction",
      "outputs": [],
      "stateMutability": "nonpayable",
      "type": "function"
    },
    {
      "inputs": [
        {
          "internalType": "uint256",
          "name": "listingId",
          "type": "uint256"
        }
      ],
      "name": "cancelAuctionListing",
      "outputs": [],
      "stateMutability": "nonpayable",
      "type": "function"
    },
    {
      "inputs": [
        {
          "internalType": "uint256",
          "name": "listingId",
          "type": "uint256"
        }
      ],
      "name": "cancelSimpleListing",
      "outputs": [],
      "stateMutability": "nonpayable",
      "type": "function"
    },
    {
      "inputs": [],
      "name": "withdraw",
      "outputs": [],
      "stateMutability": "nonpayable",
      "type": "function"
    },
    {
      "inputs": [
        {
          "internalType": "address",
          "name": "",
          "type": "address"
        },
        {
          "internalType": "address",
          "name": "",
          "type": "address"
        },
        {
          "internalType": "uint256",
          "name": "",
          "type": "uint256"
        },
        {
          "internalType": "uint256",
          "name": "",
          "type": "uint256"
        },
        {
          "internalType": "bytes",
          "name": "",
          "type": "bytes"
        }
      ],
      "name": "onERC1155Received",
      "outputs": [
        {
          "internalType": "bytes4",
          "name": "",
          "type": "bytes4"
        }
      ],
      "stateMutability": "nonpayable",
      "type": "function"
    },
    {
      "inputs": [
        {
          "internalType": "address",
          "name": "",
          "type": "address"
        },
        {
          "internalType": "address",
          "name": "",
          "type": "address"
        },
        {
          "internalType": "uint256[]",
          "name": "",
          "type": "uint256[]"
        },
        {
          "internalType": "uint256[]",
          "name": "",
          "type": "uint256[]"
        },
        {
          "internalType": "bytes",
          "name": "",
          "type": "bytes"
        }
      ],
      "name": "onERC1155BatchReceived",
      "outputs": [
        {
          "internalType": "bytes4",
          "name": "",
          "type": "bytes4"
        }
      ],
      "stateMutability": "nonpayable",
      "type": "function"
    }
  ],
  "bytecode": "0x6080604052600160035534801561001557600080fd5b50600160008190555033600260006101000a81548173ffffffffffffffffffffffffffffffffffffffff021916908373ffffffffffffffffffffffffffffffffffffffff16021790555061571d806200006f6000396000f3fe6080604052600436106101145760003560e01c80638da5cb5b116100a0578063bc197c8111610064578063bc197c81146103ae578063c444b07a146103eb578063d651345814610414578063f23a6e6114610430578063f5ca15621461046d57610114565b80638da5cb5b1461029c578063992cfdc3146102c75780639ae8665d14610304578063aa29440514610348578063b370fa711461037157610114565b80633ed357f5116100e75780633ed357f5146101c7578063454a2ab3146101f05780635276175b1461020c5780636b5f18471461024a5780637e5e96251461027357610114565b806308a0744d146101195780630eb06ff11461015c5780632a5a9435146101875780633ccfd60b146101b0575b600080fd5b34801561012557600080fd5b50610140600480360381019061013b9190613b60565b6104af565b60405161015397969594939291906146fe565b60405180910390f35b34801561016857600080fd5b5061017161082e565b60405161017e9190614a37565b60405180910390f35b34801561019357600080fd5b506101ae60048036038101906101a99190613b60565b61083f565b005b3480156101bc57600080fd5b506101c5610d3d565b005b3480156101d357600080fd5b506101ee60048036038101906101e99190613ad1565b610e3e565b005b61020a60048036038101906102059190613b60565b6113b4565b005b34801561021857600080fd5b50610233600480360381019061022e9190613a32565b6117b4565b604051610241929190614a52565b60405180910390f35b34801561025657600080fd5b50610271600480360381019061026c9190613a6e565b611805565b005b34801561027f57600080fd5b5061029a60048036038101906102959190613b60565b6119bc565b005b3480156102a857600080fd5b506102b1612002565b6040516102be9190614452565b60405180910390f35b3480156102d357600080fd5b506102ee60048036038101906102e99190613bc5565b612028565b6040516102fb9190614a37565b60405180910390f35b34801561031057600080fd5b5061032b60048036038101906103269190613b60565b61205b565b60405161033f989796959493929190614604565b60405180910390f35b34801561035457600080fd5b5061036f600480360381019061036a9190613ad1565b612110565b005b34801561037d57600080fd5b5061039860048036038101906103939190613954565b61263a565b6040516103a59190614a37565b60405180910390f35b3480156103ba57600080fd5b506103d560048036038101906103d09190613895565b61266c565b6040516103e291906146e3565b60405180910390f35b3480156103f757600080fd5b50610412600480360381019061040d9190613b60565b612681565b005b61042e60048036038101906104299190613b89565b612add565b005b34801561043c57600080fd5b50610457600480360381019061045291906139a3565b61307d565b60405161046491906146e3565b60405180910390f35b34801561047957600080fd5b50610494600480360381019061048f9190613b60565b613092565b6040516104a696959493929190614682565b60405180910390f35b60086020528060005260406000206000915090508060000180546104d2906150e1565b80601f01602080910402602001604051908101604052809291908181526020018280546104fe906150e1565b801561054b5780601f106105205761010080835404028352916020019161054b565b820191906000526020600020905b81548152906001019060200180831161052e57829003601f168201915b505050505090806001018054610560906150e1565b80601f016020809104026020016040519081016040528092919081815260200182805461058c906150e1565b80156105d95780601f106105ae576101008083540402835291602001916105d9565b820191906000526020600020905b8154815290600101906020018083116105bc57829003601f168201915b5050505050908060020180546105ee906150e1565b80601f016020809104026020016040519081016040528092919081815260200182805461061a906150e1565b80156106675780601f1061063c57610100808354040283529160200191610667565b820191906000526020600020905b81548152906001019060200180831161064a57829003601f168201915b50505050509080600301805461067c906150e1565b80601f01602080910402602001604051908101604052809291908181526020018280546106a8906150e1565b80156106f55780601f106106ca576101008083540402835291602001916106f5565b820191906000526020600020905b8154815290600101906020018083116106d857829003601f168201915b5050505050908060050160009054906101000a900460ff169080600601805461071d906150e1565b80601f0160208091040260200160405190810160405280929190818152602001828054610749906150e1565b80156107965780601f1061076b57610100808354040283529160200191610796565b820191906000526020600020905b81548152906001019060200180831161077957829003601f168201915b5050505050908060070180546107ab906150e1565b80601f01602080910402602001604051908101604052809291908181526020018280546107d7906150e1565b80156108245780601f106107f957610100808354040283529160200191610824565b820191906000526020600020905b81548152906001019060200180831161080757829003601f168201915b5050505050905087565b600061083a600161310e565b905090565b6000600660008381526020019081526020016000209050600081600601541161089d576040517f08c379a000000000000000000000000000000000000000000000000000000000815260040161089490614857565b60405180910390fd5b3373ffffffffffffffffffffffffffffffffffffffff168160050160009054906101000a900473ffffffffffffffffffffffffffffffffffffffff1673ffffffffffffffffffffffffffffffffffffffff161461092f576040517f08c379a000000000000000000000000000000000000000000000000000000000815260040161092690614817565b60405180910390fd5b8060070160009054906101000a900460ff1615610981576040517f08c379a0000000000000000000000000000000000000000000000000000000008152600401610978906148b7565b60405180910390fd5b600073ffffffffffffffffffffffffffffffffffffffff168160040160009054906101000a900473ffffffffffffffffffffffffffffffffffffffff1673ffffffffffffffffffffffffffffffffffffffff1614610a14576040517f08c379a0000000000000000000000000000000000000000000000000000000008152600401610a0b90614877565b60405180910390fd5b60018160070160006101000a81548160ff0219169083151502179055508060000160009054906101000a900473ffffffffffffffffffffffffffffffffffffffff1673ffffffffffffffffffffffffffffffffffffffff1663f242432a308360050160009054906101000a900473ffffffffffffffffffffffffffffffffffffffff16846001015460016040518563ffffffff1660e01b8152600401610abd949392919061446d565b600060405180830381600087803b158015610ad757600080fd5b505af1158015610aeb573d6000803e3d6000fd5b505050506000600760008360050160009054906101000a900473ffffffffffffffffffffffffffffffffffffffff1673ffffffffffffffffffffffffffffffffffffffff1673ffffffffffffffffffffffffffffffffffffffff16815260200190815260200160002060008360000160009054906101000a900473ffffffffffffffffffffffffffffffffffffffff1673ffffffffffffffffffffffffffffffffffffffff1673ffffffffffffffffffffffffffffffffffffffff168152602001908152602001600020600083600101548152602001908152602001600020819055506000600460008360000160009054906101000a900473ffffffffffffffffffffffffffffffffffffffff1673ffffffffffffffffffffffffffffffffffffffff1673ffffffffffffffffffffffffffffffffffffffff168152602001908152602001600020600083600101548152602001908152602001600020604051806040016040529081600082015481526020016001820160009054906101000a900473ffffffffffffffffffffffffffffffffffffffff1673ffffffffffffffffffffffffffffffffffffffff1673ffffffffffffffffffffffffffffffffffffffff168152505090507fc856f6cc2418a82fe61418f4d7a75e93ac2043ddaa37b994802f22245e3eba1683836001015483602001518560050160009054906101000a900473ffffffffffffffffffffffffffffffffffffffff168560000151600860008a8152602001908152602001600020604051610d3096959493929190614bfc565b60405180910390a1505050565b60004711610d80576040517f08c379a0000000000000000000000000000000000000000000000000000000008152600401610d77906148f7565b60405180910390fd5b3373ffffffffffffffffffffffffffffffffffffffff16600260009054906101000a900473ffffffffffffffffffffffffffffffffffffffff1673ffffffffffffffffffffffffffffffffffffffff1614610e10576040517f08c379a0000000000000000000000000000000000000000000000000000000008152600401610e07906147d7565b60405180910390fd5b610e3c600260009054906101000a900473ffffffffffffffffffffffffffffffffffffffff164761311c565b565b60026000541415610e84576040517f08c379a0000000000000000000000000000000000000000000000000000000008152600401610e7b906149f7565b60405180910390fd5b6002600081905550428211610ece576040517f08c379a0000000000000000000000000000000000000000000000000000000008152600401610ec590614937565b60405180910390fd5b6000600760003373ffffffffffffffffffffffffffffffffffffffff1673ffffffffffffffffffffffffffffffffffffffff16815260200190815260200160002060008773ffffffffffffffffffffffffffffffffffffffff1673ffffffffffffffffffffffffffffffffffffffff16815260200190815260200160002060008681526020019081526020016000205414610f9e576040517f08c379a0000000000000000000000000000000000000000000000000000000008152600401610f95906147f7565b60405180910390fd5b610fa86001613192565b6000610fb4600161310e565b90506040518061010001604052808773ffffffffffffffffffffffffffffffffffffffff168152602001868152602001858152602001858152602001600073ffffffffffffffffffffffffffffffffffffffff1681526020013373ffffffffffffffffffffffffffffffffffffffff168152602001848152602001600015158152506006600083815260200190815260200160002060008201518160000160006101000a81548173ffffffffffffffffffffffffffffffffffffffff021916908373ffffffffffffffffffffffffffffffffffffffff16021790555060208201518160010155604082015181600201556060820151816003015560808201518160040160006101000a81548173ffffffffffffffffffffffffffffffffffffffff021916908373ffffffffffffffffffffffffffffffffffffffff16021790555060a08201518160050160006101000a81548173ffffffffffffffffffffffffffffffffffffffff021916908373ffffffffffffffffffffffffffffffffffffffff16021790555060c0820151816006015560e08201518160070160006101000a81548160ff0219169083151502179055509050506001600760003373ffffffffffffffffffffffffffffffffffffffff1673ffffffffffffffffffffffffffffffffffffffff16815260200190815260200160002060008873ffffffffffffffffffffffffffffffffffffffff1673ffffffffffffffffffffffffffffffffffffffff1681526020019081526020016000206000878152602001908152602001600020819055508573ffffffffffffffffffffffffffffffffffffffff1663f242432a33308860016040518563ffffffff1660e01b815260040161123c94939291906144c5565b600060405180830381600087803b15801561125657600080fd5b505af115801561126a573d6000803e3d6000fd5b5050505061127881836131a8565b6000600460008873ffffffffffffffffffffffffffffffffffffffff1673ffffffffffffffffffffffffffffffffffffffff16815260200190815260200160002060008781526020019081526020016000206000015490506000600460008973ffffffffffffffffffffffffffffffffffffffff1673ffffffffffffffffffffffffffffffffffffffff168152602001908152602001600020600088815260200190815260200160002060010160009054906101000a900473ffffffffffffffffffffffffffffffffffffffff169050868873ffffffffffffffffffffffffffffffffffffffff16847faab5753cdce5973fbcd98984eac0874ddfa534c67f1b245b91f41ef515ea4cc989898688338c60405161139a96959493929190614cda565b60405180910390a450505060016000819055505050505050565b600260005414156113fa576040517f08c379a00000000000000000000000000000000000000000000000000000000081526004016113f1906149f7565b60405180910390fd5b600260008190555060006006600083815260200190815260200160002090508060070160009054906101000a900460ff161561146b576040517f08c379a0000000000000000000000000000000000000000000000000000000008152600401611462906148b7565b60405180910390fd5b8060050160009054906101000a900473ffffffffffffffffffffffffffffffffffffffff1673ffffffffffffffffffffffffffffffffffffffff163373ffffffffffffffffffffffffffffffffffffffff1614156114fe576040517f08c379a00000000000000000000000000000000000000000000000000000000081526004016114f590614957565b60405180910390fd5b6000606460035461150f9190614ee5565b60643461151c9190614f6c565b6115269190614f3b565b90508160030154811161156e576040517f08c379a000000000000000000000000000000000000000000000000000000000815260040161156590614997565b60405180910390fd5b816006015442106115b4576040517f08c379a00000000000000000000000000000000000000000000000000000000081526004016115ab906148d7565b60405180910390fd5b8160070160009054906101000a900460ff1615611606576040517f08c379a00000000000000000000000000000000000000000000000000000000081526004016115fd906148b7565b60405180910390fd5b600061161a83600301546001600354612028565b9050600073ffffffffffffffffffffffffffffffffffffffff168360040160009054906101000a900473ffffffffffffffffffffffffffffffffffffffff1673ffffffffffffffffffffffffffffffffffffffff161461171a5760008360040160009054906101000a900473ffffffffffffffffffffffffffffffffffffffff1673ffffffffffffffffffffffffffffffffffffffff168285600301546116c19190614ee5565b610bb8906040516116d19061443d565b600060405180830381858888f193505050503d806000811461170f576040519150601f19603f3d011682016040523d82523d6000602084013e611714565b606091505b50509050505b338360040160006101000a81548173ffffffffffffffffffffffffffffffffffffffff021916908373ffffffffffffffffffffffffffffffffffffffff160217905550818360030181905550837f77689ebf788c0f9d9e045fa81e22903cc7a1e34686c3fa4874c9a6a4d8a239f53384866001015460405161179e939291906145cd565b60405180910390a2505050600160008190555050565b6004602052816000526040600020602052806000526040600020600091509150508060000154908060010160009054906101000a900473ffffffffffffffffffffffffffffffffffffffff16905082565b600073ffffffffffffffffffffffffffffffffffffffff16600460008673ffffffffffffffffffffffffffffffffffffffff1673ffffffffffffffffffffffffffffffffffffffff168152602001908152602001600020600085815260200190815260200160002060010160009054906101000a900473ffffffffffffffffffffffffffffffffffffffff1673ffffffffffffffffffffffffffffffffffffffff16146118e7576040517f08c379a00000000000000000000000000000000000000000000000000000000081526004016118de90614917565b60405180910390fd5b60405180604001604052808281526020018373ffffffffffffffffffffffffffffffffffffffff16815250600460008673ffffffffffffffffffffffffffffffffffffffff1673ffffffffffffffffffffffffffffffffffffffff16815260200190815260200160002060008581526020019081526020016000206000820151816000015560208201518160010160006101000a81548173ffffffffffffffffffffffffffffffffffffffff021916908373ffffffffffffffffffffffffffffffffffffffff16021790555090505050505050565b60006006600083815260200190815260200160002090508060070160009054906101000a900460ff1615611a25576040517f08c379a0000000000000000000000000000000000000000000000000000000008152600401611a1c906148b7565b60405180910390fd5b8060060154421015611a6c576040517f08c379a0000000000000000000000000000000000000000000000000000000008152600401611a6390614897565b60405180910390fd5b6000600460008360000160009054906101000a900473ffffffffffffffffffffffffffffffffffffffff1673ffffffffffffffffffffffffffffffffffffffff1673ffffffffffffffffffffffffffffffffffffffff168152602001908152602001600020600083600101548152602001908152602001600020604051806040016040529081600082015481526020016001820160009054906101000a900473ffffffffffffffffffffffffffffffffffffffff1673ffffffffffffffffffffffffffffffffffffffff1673ffffffffffffffffffffffffffffffffffffffff16815250509050600073ffffffffffffffffffffffffffffffffffffffff168260040160009054906101000a900473ffffffffffffffffffffffffffffffffffffffff1673ffffffffffffffffffffffffffffffffffffffff1614611d97576000611bbf83600301546001600354612028565b905060008260000151118015611c065750600073ffffffffffffffffffffffffffffffffffffffff16826020015173ffffffffffffffffffffffffffffffffffffffff1614155b15611c74576000611c21846003015460018560000151612028565b9050611c3183602001518261311c565b611c6e8460050160009054906101000a900473ffffffffffffffffffffffffffffffffffffffff16828660030154611c699190614fc6565b61311c565b50611ca7565b611ca68360050160009054906101000a900473ffffffffffffffffffffffffffffffffffffffff16846003015461311c565b5b611cd3600260009054906101000a900473ffffffffffffffffffffffffffffffffffffffff168261311c565b8260000160009054906101000a900473ffffffffffffffffffffffffffffffffffffffff1673ffffffffffffffffffffffffffffffffffffffff1663f242432a308560040160009054906101000a900473ffffffffffffffffffffffffffffffffffffffff16866001015460016040518563ffffffff1660e01b8152600401611d5f949392919061446d565b600060405180830381600087803b158015611d7957600080fd5b505af1158015611d8d573d6000803e3d6000fd5b5050505050611e56565b8160000160009054906101000a900473ffffffffffffffffffffffffffffffffffffffff1673ffffffffffffffffffffffffffffffffffffffff1663f242432a308460050160009054906101000a900473ffffffffffffffffffffffffffffffffffffffff16856001015460016040518563ffffffff1660e01b8152600401611e23949392919061446d565b600060405180830381600087803b158015611e3d57600080fd5b505af1158015611e51573d6000803e3d6000fd5b505050505b6000600760008460050160009054906101000a900473ffffffffffffffffffffffffffffffffffffffff1673ffffffffffffffffffffffffffffffffffffffff1673ffffffffffffffffffffffffffffffffffffffff16815260200190815260200160002060008460000160009054906101000a900473ffffffffffffffffffffffffffffffffffffffff1673ffffffffffffffffffffffffffffffffffffffff1673ffffffffffffffffffffffffffffffffffffffff1681526020019081526020016000206000846001015481526020019081526020016000208190555060018260070160006101000a81548160ff0219169083151502179055507f84d6c5ee74b2f38e6724019500513a742aa9f616286fdf3f4d17bbe074d34d2d83836001015483602001518560050160009054906101000a900473ffffffffffffffffffffffffffffffffffffffff168660040160009054906101000a900473ffffffffffffffffffffffffffffffffffffffff16338760000151600860008c8152602001908152602001600020604051611ff5989796959493929190614ae3565b60405180910390a1505050565b600260009054906101000a900473ffffffffffffffffffffffffffffffffffffffff1681565b600080829050606481858761203d9190614f6c565b6120479190614f6c565b6120519190614f3b565b9150509392505050565b60066020528060005260406000206000915090508060000160009054906101000a900473ffffffffffffffffffffffffffffffffffffffff16908060010154908060020154908060030154908060040160009054906101000a900473ffffffffffffffffffffffffffffffffffffffff16908060050160009054906101000a900473ffffffffffffffffffffffffffffffffffffffff16908060060154908060070160009054906101000a900460ff16905088565b60026000541415612156576040517f08c379a000000000000000000000000000000000000000000000000000000000815260040161214d906149f7565b60405180910390fd5b6002600081905550600083116121a1576040517f08c379a000000000000000000000000000000000000000000000000000000000815260040161219890614a17565b60405180910390fd5b600082116121e4576040517f08c379a00000000000000000000000000000000000000000000000000000000081526004016121db90614977565b60405180910390fd5b6000600760003373ffffffffffffffffffffffffffffffffffffffff1673ffffffffffffffffffffffffffffffffffffffff16815260200190815260200160002060008773ffffffffffffffffffffffffffffffffffffffff1673ffffffffffffffffffffffffffffffffffffffff168152602001908152602001600020600086815260200190815260200160002054146122b4576040517f08c379a00000000000000000000000000000000000000000000000000000000081526004016122ab906147f7565b60405180910390fd5b6122be6001613192565b60006122ca600161310e565b90506040518060c001604052808773ffffffffffffffffffffffffffffffffffffffff1681526020018681526020018581526020018481526020018481526020013373ffffffffffffffffffffffffffffffffffffffff168152506005600083815260200190815260200160002060008201518160000160006101000a81548173ffffffffffffffffffffffffffffffffffffffff021916908373ffffffffffffffffffffffffffffffffffffffff1602179055506020820151816001015560408201518160020155606082015181600301556080820151816004015560a08201518160050160006101000a81548173ffffffffffffffffffffffffffffffffffffffff021916908373ffffffffffffffffffffffffffffffffffffffff16021790555090505082600760003373ffffffffffffffffffffffffffffffffffffffff1673ffffffffffffffffffffffffffffffffffffffff16815260200190815260200160002060008873ffffffffffffffffffffffffffffffffffffffff1673ffffffffffffffffffffffffffffffffffffffff1681526020019081526020016000206000878152602001908152602001600020819055508573ffffffffffffffffffffffffffffffffffffffff1663f242432a333088876040518563ffffffff1660e01b81526004016124c29493929190614575565b600060405180830381600087803b1580156124dc57600080fd5b505af11580156124f0573d6000803e3d6000fd5b505050506000600460008873ffffffffffffffffffffffffffffffffffffffff1673ffffffffffffffffffffffffffffffffffffffff16815260200190815260200160002060008781526020019081526020016000206000015490506000600460008973ffffffffffffffffffffffffffffffffffffffff1673ffffffffffffffffffffffffffffffffffffffff168152602001908152602001600020600088815260200190815260200160002060010160009054906101000a900473ffffffffffffffffffffffffffffffffffffffff1690506125ce83856131a8565b868873ffffffffffffffffffffffffffffffffffffffff16847f964d809baf7e251f14a803ae775db9e20c7aabea6a47707c1fc3307afaadc3e98985878b338c60405161262096959493929190614a7b565b60405180910390a450505060016000819055505050505050565b600760205282600052604060002060205281600052604060002060205280600052604060002060009250925050505481565b600063bc197c8160e01b905095945050505050565b600060056000838152602001908152602001600020905060008160030154116126df576040517f08c379a00000000000000000000000000000000000000000000000000000000081526004016126d6906147b7565b60405180910390fd5b3373ffffffffffffffffffffffffffffffffffffffff168160050160009054906101000a900473ffffffffffffffffffffffffffffffffffffffff1673ffffffffffffffffffffffffffffffffffffffff1614612771576040517f08c379a000000000000000000000000000000000000000000000000000000000815260040161276890614817565b60405180910390fd5b60008160040154116127b8576040517f08c379a00000000000000000000000000000000000000000000000000000000081526004016127af906149d7565b60405180910390fd5b600081600401549050600082600401819055508160000160009054906101000a900473ffffffffffffffffffffffffffffffffffffffff1673ffffffffffffffffffffffffffffffffffffffff1663f242432a308460050160009054906101000a900473ffffffffffffffffffffffffffffffffffffffff168560010154856040518563ffffffff1660e01b8152600401612856949392919061451d565b600060405180830381600087803b15801561287057600080fd5b505af1158015612884573d6000803e3d6000fd5b505050506000600760008460050160009054906101000a900473ffffffffffffffffffffffffffffffffffffffff1673ffffffffffffffffffffffffffffffffffffffff1673ffffffffffffffffffffffffffffffffffffffff16815260200190815260200160002060008460000160009054906101000a900473ffffffffffffffffffffffffffffffffffffffff1673ffffffffffffffffffffffffffffffffffffffff1673ffffffffffffffffffffffffffffffffffffffff168152602001908152602001600020600084600101548152602001908152602001600020819055506000600460008460000160009054906101000a900473ffffffffffffffffffffffffffffffffffffffff1673ffffffffffffffffffffffffffffffffffffffff1673ffffffffffffffffffffffffffffffffffffffff168152602001908152602001600020600084600101548152602001908152602001600020604051806040016040529081600082015481526020016001820160009054906101000a900473ffffffffffffffffffffffffffffffffffffffff1673ffffffffffffffffffffffffffffffffffffffff1673ffffffffffffffffffffffffffffffffffffffff168152505090507fee51afc722366c1b723f2994841f65456d04d448f69967b4d04db2d0f544c96e84846001015483602001518660050160009054906101000a900473ffffffffffffffffffffffffffffffffffffffff1687600401548660000151600860008c8152602001908152602001600020604051612acf9796959493929190614c64565b60405180910390a150505050565b60026000541415612b23576040517f08c379a0000000000000000000000000000000000000000000000000000000008152600401612b1a906149f7565b60405180910390fd5b6002600081905550600060056000848152602001908152602001600020905060008211612b85576040517f08c379a0000000000000000000000000000000000000000000000000000000008152600401612b7c906149b7565b60405180910390fd5b8060040154821115612bcc576040517f08c379a0000000000000000000000000000000000000000000000000000000008152600401612bc390614797565b60405180910390fd5b6000612bdf826002015484600354612028565b905080838360020154612bf29190614f6c565b612bfc9190614ee5565b3414612c3d576040517f08c379a0000000000000000000000000000000000000000000000000000000008152600401612c3490614837565b60405180910390fd5b82826004016000828254612c519190614fc6565b925050819055506000600460008460000160009054906101000a900473ffffffffffffffffffffffffffffffffffffffff1673ffffffffffffffffffffffffffffffffffffffff1673ffffffffffffffffffffffffffffffffffffffff168152602001908152602001600020600084600101548152602001908152602001600020604051806040016040529081600082015481526020016001820160009054906101000a900473ffffffffffffffffffffffffffffffffffffffff1673ffffffffffffffffffffffffffffffffffffffff1673ffffffffffffffffffffffffffffffffffffffff1681525050905060008160000151118015612d845750600073ffffffffffffffffffffffffffffffffffffffff16816020015173ffffffffffffffffffffffffffffffffffffffff1614155b15612dfc576000612d9e8460020154868460000151612028565b9050612dae82602001518261311c565b612df68460050160009054906101000a900473ffffffffffffffffffffffffffffffffffffffff1682878760020154612de79190614f6c565b612df19190614fc6565b61311c565b50612e3a565b612e398360050160009054906101000a900473ffffffffffffffffffffffffffffffffffffffff16858560020154612e349190614f6c565b61311c565b5b612e66600260009054906101000a900473ffffffffffffffffffffffffffffffffffffffff168361311c565b8260040154600760008560050160009054906101000a900473ffffffffffffffffffffffffffffffffffffffff1673ffffffffffffffffffffffffffffffffffffffff1673ffffffffffffffffffffffffffffffffffffffff16815260200190815260200160002060008560000160009054906101000a900473ffffffffffffffffffffffffffffffffffffffff1673ffffffffffffffffffffffffffffffffffffffff1673ffffffffffffffffffffffffffffffffffffffff168152602001908152602001600020600085600101548152602001908152602001600020819055508260000160009054906101000a900473ffffffffffffffffffffffffffffffffffffffff1673ffffffffffffffffffffffffffffffffffffffff1663f242432a30338660010154886040518563ffffffff1660e01b8152600401612faf949392919061451d565b600060405180830381600087803b158015612fc957600080fd5b505af1158015612fdd573d6000803e3d6000fd5b505050507f8b12065ef9683fde0af8240be0c7bf9d791650bc44e78d08b3fb567b8748a91b85846001015483602001518660050160009054906101000a900473ffffffffffffffffffffffffffffffffffffffff163388600201548a8860000151600860008f815260200190815260200160002060405161306699989796959493929190614b68565b60405180910390a150505060016000819055505050565b600063f23a6e6160e01b905095945050505050565b60056020528060005260406000206000915090508060000160009054906101000a900473ffffffffffffffffffffffffffffffffffffffff16908060010154908060020154908060030154908060040154908060050160009054906101000a900473ffffffffffffffffffffffffffffffffffffffff16905086565b600081600001549050919050565b60008273ffffffffffffffffffffffffffffffffffffffff1682610bb8906040516131469061443d565b600060405180830381858888f193505050503d8060008114613184576040519150601f19603f3d011682016040523d82523d6000602084013e613189565b606091505b50509050505050565b6001816000016000828254019250508190555050565b600060086000848152602001908152602001600020905081600001518160000190805190602001906131db929190613387565b5081602001518160010190805190602001906131f8929190613387565b508160400151816002019080519060200190613215929190613387565b508160600151816003019080519060200190613232929190613387565b508160a001518160050160006101000a81548160ff0219169083151502179055508160c0015181600601908051906020019061326f929190613387565b508160e0015181600701908051906020019061328c929190613387565b5060005b826080015151811015613381576000836080015182815181106132dc577f4e487b7100000000000000000000000000000000000000000000000000000000600052603260045260246000fd5b60200260200101519050826004018190806001815401808255809150506001900390600052602060002090600302016000909190919091506000820151816000019080519060200190613330929190613387565b50602082015181600101908051906020019061334d929190613387565b50604082015181600201908051906020019061336a929190613387565b5050505080806133799061515e565b915050613290565b50505050565b828054613393906150e1565b90600052602060002090601f0160209004810192826133b557600085556133fc565b82601f106133ce57805160ff19168380011785556133fc565b828001600101855582156133fc579182015b828111156133fb5782518255916020019190600101906133e0565b5b509050613409919061340d565b5090565b5b8082111561342657600081600090555060010161340e565b5090565b600061343d61343884614d67565b614d42565b9050808382526020820190508285602086028201111561345c57600080fd5b60005b858110156134a657813567ffffffffffffffff81111561347e57600080fd5b80860161348b898261366a565b8552602085019450602084019350505060018101905061345f565b5050509392505050565b60006134c36134be84614d93565b614d42565b905080838252602082019050828560208602820111156134e257600080fd5b60005b8581101561351257816134f88882613880565b8452602084019350602083019250506001810190506134e5565b5050509392505050565b600061352f61352a84614dbf565b614d42565b90508281526020810184848401111561354757600080fd5b61355284828561509f565b509392505050565b600061356d61356884614df0565b614d42565b90508281526020810184848401111561358557600080fd5b61359084828561509f565b509392505050565b6000813590506135a7816156a2565b92915050565b600082601f8301126135be57600080fd5b81356135ce84826020860161342a565b91505092915050565b600082601f8301126135e857600080fd5b81356135f88482602086016134b0565b91505092915050565b600081359050613610816156b9565b92915050565b600082601f83011261362757600080fd5b813561363784826020860161351c565b91505092915050565b600082601f83011261365157600080fd5b813561366184826020860161355a565b91505092915050565b60006060828403121561367c57600080fd5b6136866060614d42565b9050600082013567ffffffffffffffff8111156136a257600080fd5b6136ae84828501613640565b600083015250602082013567ffffffffffffffff8111156136ce57600080fd5b6136da84828501613640565b602083015250604082013567ffffffffffffffff8111156136fa57600080fd5b61370684828501613640565b60408301525092915050565b6000610100828403121561372557600080fd5b613730610100614d42565b9050600082013567ffffffffffffffff81111561374c57600080fd5b61375884828501613640565b600083015250602082013567ffffffffffffffff81111561377857600080fd5b61378484828501613640565b602083015250604082013567ffffffffffffffff8111156137a457600080fd5b6137b084828501613640565b604083015250606082013567ffffffffffffffff8111156137d057600080fd5b6137dc84828501613640565b606083015250608082013567ffffffffffffffff8111156137fc57600080fd5b613808848285016135ad565b60808301525060a061381c84828501613601565b60a08301525060c082013567ffffffffffffffff81111561383c57600080fd5b61384884828501613640565b60c08301525060e082013567ffffffffffffffff81111561386857600080fd5b61387484828501613640565b60e08301525092915050565b60008135905061388f816156d0565b92915050565b600080600080600060a086880312156138ad57600080fd5b60006138bb88828901613598565b95505060206138cc88828901613598565b945050604086013567ffffffffffffffff8111156138e957600080fd5b6138f5888289016135d7565b935050606086013567ffffffffffffffff81111561391257600080fd5b61391e888289016135d7565b925050608086013567ffffffffffffffff81111561393b57600080fd5b61394788828901613616565b9150509295509295909350565b60008060006060848603121561396957600080fd5b600061397786828701613598565b935050602061398886828701613598565b925050604061399986828701613880565b9150509250925092565b600080600080600060a086880312156139bb57600080fd5b60006139c988828901613598565b95505060206139da88828901613598565b94505060406139eb88828901613880565b93505060606139fc88828901613880565b925050608086013567ffffffffffffffff811115613a1957600080fd5b613a2588828901613616565b9150509295509295909350565b60008060408385031215613a4557600080fd5b6000613a5385828601613598565b9250506020613a6485828601613880565b9150509250929050565b60008060008060808587031215613a8457600080fd5b6000613a9287828801613598565b9450506020613aa387828801613880565b9350506040613ab487828801613598565b9250506060613ac587828801613880565b91505092959194509250565b600080600080600060a08688031215613ae957600080fd5b6000613af788828901613598565b9550506020613b0888828901613880565b9450506040613b1988828901613880565b9350506060613b2a88828901613880565b925050608086013567ffffffffffffffff811115613b4757600080fd5b613b5388828901613712565b9150509295509295909350565b600060208284031215613b7257600080fd5b6000613b8084828501613880565b91505092915050565b60008060408385031215613b9c57600080fd5b6000613baa85828601613880565b9250506020613bbb85828601613880565b9150509250929050565b600080600060608486031215613bda57600080fd5b6000613be886828701613880565b9350506020613bf986828701613880565b9250506040613c0a86828701613880565b9150509250925092565b6000613c2083836141b9565b905092915050565b6000613c348383614217565b905092915050565b613c4581615019565b82525050565b613c5481615007565b82525050565b6000613c6582614e5b565b613c6f8185614e96565b935083602082028501613c8185614e21565b8060005b85811015613cbd5784840389528151613c9e8582613c14565b9450613ca983614e7c565b925060208a01995050600181019050613c85565b50829750879550505050505092915050565b6000613cda82614e66565b613ce48185614e96565b935083602082028501613cf685614e31565b8060005b85811015613d3157848403895281613d128582613c28565b9450613d1d83614e89565b925060208a01995050600181019050613cfa565b50829750879550505050505092915050565b613d4c8161502b565b82525050565b613d5b8161502b565b82525050565b613d6a81615037565b82525050565b613d798161508d565b82525050565b6000613d8a82614e71565b613d948185614ec3565b9350613da48185602086016150ae565b613dad81615263565b840191505092915050565b6000613dc382614e71565b613dcd8185614ed4565b9350613ddd8185602086016150ae565b613de681615263565b840191505092915050565b60008154613dfe816150e1565b613e088186614ec3565b94506001821660008114613e235760018114613e3557613e68565b60ff1983168652602086019350613e68565b613e3e85614e46565b60005b83811015613e6057815481890152600182019150602081019050613e41565b808801955050505b50505092915050565b6000613e7e601983614ed4565b9150613e8982615281565b602082019050919050565b6000613ea1601f83614ed4565b9150613eac826152aa565b602082019050919050565b6000613ec4601783614ed4565b9150613ecf826152d3565b602082019050919050565b6000613ee7602683614ed4565b9150613ef2826152fc565b604082019050919050565b6000613f0a600383614ea7565b9150613f158261534b565b602082019050919050565b6000613f2d601583614ed4565b9150613f3882615374565b602082019050919050565b6000613f50604083614ed4565b9150613f5b8261539d565b604082019050919050565b6000613f73601883614ed4565b9150613f7e826153ec565b602082019050919050565b6000613f96602983614ed4565b9150613fa182615415565b604082019050919050565b6000613fb9601883614ed4565b9150613fc482615464565b602082019050919050565b6000613fdc600e83614ed4565b9150613fe78261548d565b602082019050919050565b6000613fff600083614ea7565b915061400a826154b6565b600082019050919050565b6000614022600083614eb8565b915061402d826154b6565b600082019050919050565b6000614045601583614ed4565b9150614050826154b9565b602082019050919050565b6000614068600c83614ed4565b9150614073826154e2565b602082019050919050565b600061408b601383614ed4565b91506140968261550b565b602082019050919050565b60006140ae601e83614ed4565b91506140b982615534565b602082019050919050565b60006140d1602c83614ed4565b91506140dc8261555d565b604082019050919050565b60006140f4601d83614ed4565b91506140ff826155ac565b602082019050919050565b6000614117601a83614ed4565b9150614122826155d5565b602082019050919050565b600061413a601583614ed4565b9150614145826155fe565b602082019050919050565b600061415d601a83614ed4565b915061416882615627565b602082019050919050565b6000614180601f83614ed4565b915061418b82615650565b602082019050919050565b60006141a3601c83614ed4565b91506141ae82615679565b602082019050919050565b600060608301600083015184820360008601526141d68282613d7f565b915050602083015184820360208601526141f08282613d7f565b9150506040830151848203604086015261420a8282613d7f565b9150508091505092915050565b600060608301600080840185830360008701526142348382613df1565b92505060018401858303602087015261424d8382613df1565b9250506002840185830360408701526142668382613df1565b925050819250505092915050565b60006101008301600083015184820360008601526142928282613d7f565b915050602083015184820360208601526142ac8282613d7f565b915050604083015184820360408601526142c68282613d7f565b915050606083015184820360608601526142e08282613d7f565b915050608083015184820360808601526142fa8282613c5a565b91505060a083015161430f60a0860182613d43565b5060c083015184820360c08601526143278282613d7f565b91505060e083015184820360e08601526143418282613d7f565b9150508091505092915050565b600061010083016000808401858303600087015261436c8382613df1565b9250506001840185830360208701526143858382613df1565b92505060028401858303604087015261439e8382613df1565b9250506003840185830360608701526143b78382613df1565b9250506004840185830360808701526143d08382613ccf565b925050600584015490506143e381615113565b6143f060a0870182613d43565b506006840185830360c08701526144078382613df1565b9250506007840185830360e08701526144208382613df1565b925050819250505092915050565b61443781615083565b82525050565b600061444882614015565b9150819050919050565b60006020820190506144676000830184613c3c565b92915050565b600060a0820190506144826000830187613c4b565b61448f6020830186613c4b565b61449c604083018561442e565b6144a96060830184613d70565b81810360808301526144ba81613efd565b905095945050505050565b600060a0820190506144da6000830187613c4b565b6144e76020830186613c4b565b6144f4604083018561442e565b6145016060830184613d70565b818103608083015261451281613ff2565b905095945050505050565b600060a0820190506145326000830187613c4b565b61453f6020830186613c4b565b61454c604083018561442e565b614559606083018461442e565b818103608083015261456a81613efd565b905095945050505050565b600060a08201905061458a6000830187613c4b565b6145976020830186613c4b565b6145a4604083018561442e565b6145b1606083018461442e565b81810360808301526145c281613ff2565b905095945050505050565b60006060820190506145e26000830186613c4b565b6145ef602083018561442e565b6145fc604083018461442e565b949350505050565b60006101008201905061461a600083018b613c4b565b614627602083018a61442e565b614634604083018961442e565b614641606083018861442e565b61464e6080830187613c4b565b61465b60a0830186613c4b565b61466860c083018561442e565b61467560e0830184613d52565b9998505050505050505050565b600060c0820190506146976000830189613c4b565b6146a4602083018861442e565b6146b1604083018761442e565b6146be606083018661442e565b6146cb608083018561442e565b6146d860a0830184613c4b565b979650505050505050565b60006020820190506146f86000830184613d61565b92915050565b600060e0820190508181036000830152614718818a613db8565b9050818103602083015261472c8189613db8565b905081810360408301526147408188613db8565b905081810360608301526147548187613db8565b90506147636080830186613d52565b81810360a08301526147758185613db8565b905081810360c08301526147898184613db8565b905098975050505050505050565b600060208201905081810360008301526147b081613e71565b9050919050565b600060208201905081810360008301526147d081613e94565b9050919050565b600060208201905081810360008301526147f081613eb7565b9050919050565b6000602082019050818103600083015261481081613eda565b9050919050565b6000602082019050818103600083015261483081613f20565b9050919050565b6000602082019050818103600083015261485081613f43565b9050919050565b6000602082019050818103600083015261487081613f66565b9050919050565b6000602082019050818103600083015261489081613f89565b9050919050565b600060208201905081810360008301526148b081613fac565b9050919050565b600060208201905081810360008301526148d081613fcf565b9050919050565b600060208201905081810360008301526148f081614038565b9050919050565b600060208201905081810360008301526149108161405b565b9050919050565b600060208201905081810360008301526149308161407e565b9050919050565b60006020820190508181036000830152614950816140a1565b9050919050565b60006020820190508181036000830152614970816140c4565b9050919050565b60006020820190508181036000830152614990816140e7565b9050919050565b600060208201905081810360008301526149b08161410a565b9050919050565b600060208201905081810360008301526149d08161412d565b9050919050565b600060208201905081810360008301526149f081614150565b9050919050565b60006020820190508181036000830152614a1081614173565b9050919050565b60006020820190508181036000830152614a3081614196565b9050919050565b6000602082019050614a4c600083018461442e565b92915050565b6000604082019050614a67600083018561442e565b614a746020830184613c4b565b9392505050565b600060c082019050614a90600083018961442e565b614a9d6020830188613c4b565b614aaa604083018761442e565b614ab7606083018661442e565b614ac46080830185613c4b565b81810360a0830152614ad68184614274565b9050979650505050505050565b600061010082019050614af9600083018b61442e565b614b06602083018a61442e565b614b136040830189613c4b565b614b206060830188613c4b565b614b2d6080830187613c4b565b614b3a60a0830186613c4b565b614b4760c083018561442e565b81810360e0830152614b59818461434e565b90509998505050505050505050565b600061012082019050614b7e600083018c61442e565b614b8b602083018b61442e565b614b98604083018a613c4b565b614ba56060830189613c4b565b614bb26080830188613c4b565b614bbf60a083018761442e565b614bcc60c083018661442e565b614bd960e083018561442e565b818103610100830152614bec818461434e565b90509a9950505050505050505050565b600060c082019050614c11600083018961442e565b614c1e602083018861442e565b614c2b6040830187613c4b565b614c386060830186613c4b565b614c45608083018561442e565b81810360a0830152614c57818461434e565b9050979650505050505050565b600060e082019050614c79600083018a61442e565b614c86602083018961442e565b614c936040830188613c4b565b614ca06060830187613c4b565b614cad608083018661442e565b614cba60a083018561442e565b81810360c0830152614ccc818461434e565b905098975050505050505050565b600060c082019050614cef600083018961442e565b614cfc602083018861442e565b614d096040830187613c4b565b614d16606083018661442e565b614d236080830185613c4b565b81810360a0830152614d358184614274565b9050979650505050505050565b6000614d4c614d5d565b9050614d58828261512d565b919050565b6000604051905090565b600067ffffffffffffffff821115614d8257614d81615234565b5b602082029050602081019050919050565b600067ffffffffffffffff821115614dae57614dad615234565b5b602082029050602081019050919050565b600067ffffffffffffffff821115614dda57614dd9615234565b5b614de382615263565b9050602081019050919050565b600067ffffffffffffffff821115614e0b57614e0a615234565b5b614e1482615263565b9050602081019050919050565b6000819050602082019050919050565b60008190508160005260206000209050919050565b60008190508160005260206000209050919050565b600081519050919050565b600081549050919050565b600081519050919050565b6000602082019050919050565b6000600382019050919050565b600082825260208201905092915050565b600082825260208201905092915050565b600081905092915050565b600082825260208201905092915050565b600082825260208201905092915050565b6000614ef082615083565b9150614efb83615083565b9250827fffffffffffffffffffffffffffffffffffffffffffffffffffffffffffffffff03821115614f3057614f2f6151a7565b5b828201905092915050565b6000614f4682615083565b9150614f5183615083565b925082614f6157614f606151d6565b5b828204905092915050565b6000614f7782615083565b9150614f8283615083565b9250817fffffffffffffffffffffffffffffffffffffffffffffffffffffffffffffffff0483118215151615614fbb57614fba6151a7565b5b828202905092915050565b6000614fd182615083565b9150614fdc83615083565b925082821015614fef57614fee6151a7565b5b828203905092915050565b600060ff82169050919050565b600061501282615063565b9050919050565b600061502482615063565b9050919050565b60008115159050919050565b60007fffffffff0000000000000000000000000000000000000000000000000000000082169050919050565b600073ffffffffffffffffffffffffffffffffffffffff82169050919050565b6000819050919050565b600061509882615083565b9050919050565b82818337600083830152505050565b60005b838110156150cc5780820151818401526020810190506150b1565b838111156150db576000848401525b50505050565b600060028204905060018216806150f957607f821691505b6020821081141561510d5761510c615205565b5b50919050565b600061512661512183615274565b614ffa565b9050919050565b61513682615263565b810181811067ffffffffffffffff8211171561515557615154615234565b5b80604052505050565b600061516982615083565b91507fffffffffffffffffffffffffffffffffffffffffffffffffffffffffffffffff82141561519c5761519b6151a7565b5b600182019050919050565b7f4e487b7100000000000000000000000000000000000000000000000000000000600052601160045260246000fd5b7f4e487b7100000000000000000000000000000000000000000000000000000000600052601260045260246000fd5b7f4e487b7100000000000000000000000000000000000000000000000000000000600052602260045260246000fd5b7f4e487b7100000000000000000000000000000000000000000000000000000000600052604160045260246000fd5b6000601f19601f8301169050919050565b60008160001c9050919050565b7f4e6f7420656e6f756768206974656d7320666f722073616c6500000000000000600082015250565b7f43616e2063616e63656c206f6e6c792073696d706c65206c697374696e677300600082015250565b7f4f6e6c79206f776e65722063616e207769746864726177000000000000000000600082015250565b7f41206c697374696e6720616c72656164792065786973747320666f722074686560008201527f20746f6b656e0000000000000000000000000000000000000000000000000000602082015250565b7f3078300000000000000000000000000000000000000000000000000000000000600082015250565b7f4f6e6c79206f776e65722063616e2063616e63656c0000000000000000000000600082015250565b7f506c65617365207375626d6974207468652061736b696e67207072696365206960008201527f6e206f7264657220746f20636f6d706c65746520746865207075726368617365602082015250565b7f43616e2063616e63656c206f6e6c792061756374696f6e730000000000000000600082015250565b7f43616e27742063616e63656c20616e2061756374696f6e20696620746865726560008201527f2061726520626964730000000000000000000000000000000000000000000000602082015250565b7f5468652061756374696f6e206861736e277420656e6465640000000000000000600082015250565b7f416c726561647920636c6f736564000000000000000000000000000000000000600082015250565b50565b7f5468652061756374696f6e2068617320656e6465640000000000000000000000600082015250565b7f62616c616e636520697320300000000000000000000000000000000000000000600082015250565b7f416c726561647920696e697469616c697a656400000000000000000000000000600082015250565b7f446561646c696e65206d75737420626520696e20746865206675747572650000600082015250565b7f41756374696f6e206f776e65722063616e277420706c61636520626964206f6e60008201527f206869732041756374696f6e0000000000000000000000000000000000000000602082015250565b7f4861766520746f2070726f7669646520736f6d65207175616e74697479000000600082015250565b7f4861766520746f206f6666657220686967686572207072696365000000000000600082015250565b7f4861766520746f2062757920736f6d657468696e670000000000000000000000600082015250565b7f5468657265206973206e6f7468696e6720746f2063616e63656c000000000000600082015250565b7f5265656e7472616e637947756172643a207265656e7472616e742063616c6c00600082015250565b7f5072696365206d757374206265206174206c6561737420312077656900000000600082015250565b6156ab81615007565b81146156b657600080fd5b50565b6156c28161502b565b81146156cd57600080fd5b50565b6156d981615083565b81146156e457600080fd5b5056fea2646970667358221220be1f9a1756aa4a9a29e57d99630a73c6183632416ac14840944b90b8b6b2185064736f6c63430008040033",
  "immutableReferences": {},
  "source": "// contracts/Market.sol\r\n// SPDX-License-Identifier: MIT OR Apache-2.0\r\npragma solidity ^0.8.4;\r\n\r\n// import \"@openzeppelin/contracts/token/ERC721/ERC721.sol\";\r\nimport \"@openzeppelin/contracts/token/ERC1155/ERC1155.sol\";\r\nimport \"@openzeppelin/contracts/token/ERC1155/IERC1155.sol\";\r\nimport \"@openzeppelin/contracts/utils/Counters.sol\";\r\nimport \"@openzeppelin/contracts/token/ERC1155/IERC1155Receiver.sol\";\r\n\r\n// security\r\nimport \"@openzeppelin/contracts/security/ReentrancyGuard.sol\";\r\n\r\ncontract NFTMarket is ReentrancyGuard {\r\n    using Counters for Counters.Counter;\r\n    Counters.Counter private _listingIds;\r\n\r\n    address payable public owner;\r\n    uint256 internal commissionPercent = 1; // check instructions about using other values\r\n\r\n    // NFT address -> token id -> (royalty + creator address)\r\n    mapping(address => mapping(uint256 => InitialItem)) public initialItems;\r\n    mapping(uint256 => SimpleMarketItem) public simpleListingIdToMarketItem;\r\n    mapping(uint256 => AuctionMarketItem) public auctionListingIdToMarketItem;\r\n    // Amount of tokens a user has for sale, per contract and per tokenId\r\n    mapping(address => mapping(address => mapping(uint256 => uint256)))\r\n        public userListedTokens;\r\n\r\n    struct Attribute {\r\n        string display_type;\r\n        string trait_type;\r\n        string value;\r\n    }\r\n\r\n    struct FrontData {\r\n        string name;\r\n        string description;\r\n        string imageUrl;\r\n        string previewImageUrl;\r\n        Attribute[] attributes;\r\n        bool multiple;\r\n        string collectionId;\r\n        string category;\r\n    }\r\n\r\n    mapping(uint256 => FrontData) public listingIdToFrontData;\r\n\r\n    constructor() {\r\n        owner = payable(msg.sender);\r\n    }\r\n\r\n    struct InitialItem {\r\n        uint256 royalty;\r\n        address creator;\r\n    }\r\n\r\n    struct SimpleMarketItem {\r\n        address nftContract;\r\n        uint256 tokenId;\r\n        uint256 price;\r\n        uint256 originalQuantity;\r\n        uint256 remainingQuantity;\r\n        address ownerAddress;\r\n    }\r\n\r\n    struct AuctionMarketItem {\r\n        address nftContract;\r\n        uint256 tokenId;\r\n        uint256 startPrice;\r\n        uint256 currentBid;\r\n        address currentBidderAddress;\r\n        address ownerAddress;\r\n        uint256 deadline;\r\n        bool isClosed;\r\n    }\r\n\r\n    event SimpleMarketItemCreated(\r\n        uint256 indexed listingId,\r\n        address indexed nftContract,\r\n        uint256 indexed tokenId,\r\n        uint256 price,\r\n        address creatorAddress,\r\n        uint256 royalty,\r\n        uint256 quantity,\r\n        address sellerAddress,\r\n        FrontData frontData\r\n    );\r\n\r\n    event AuctionMarketItemCreated(\r\n        uint256 indexed listingId,\r\n        address indexed nftContract,\r\n        uint256 indexed tokenId,\r\n        uint256 startPrice,\r\n        uint256 deadline,\r\n        address creatorAddress,\r\n        uint256 royalty,\r\n        address sellerAddress,\r\n        FrontData frontData\r\n    );\r\n\r\n    event BidCreated(\r\n        uint256 indexed listingId,\r\n        address bidderAddress,\r\n        uint256 price,\r\n        uint256 tokenId\r\n    );\r\n\r\n    event BuySimpleEvent(\r\n        uint256 listingId,\r\n        uint256 tokenId,\r\n        address creatorAddress,\r\n        address sellerAddress,\r\n        address buyerAddress,\r\n        uint256 price,\r\n        uint256 quantity,\r\n        uint256 royalty,\r\n        FrontData frontData\r\n    );\r\n\r\n    event CancelSimpleEvent(\r\n        uint256 listingId,\r\n        uint256 tokenId,\r\n        address creatorAddress,\r\n        address sellerAddress,\r\n        uint256 quantity,\r\n        uint256 royalty,\r\n        FrontData frontData\r\n    );\r\n\r\n    event CancelAuctionEvent(\r\n        uint256 listingId,\r\n        uint256 tokenId,\r\n        address creatorAddress,\r\n        address sellerAddress,\r\n        uint256 royalty,\r\n        FrontData frontData\r\n    );\r\n\r\n    event TerminateAuctionEvent(\r\n        uint256 listingId,\r\n        uint256 tokenId,\r\n        address creatorAddress,\r\n        address sellerAddress,\r\n        address bidderAddress,\r\n        address terminatorAddress,\r\n        uint256 royalty,\r\n        FrontData frontData\r\n    );\r\n\r\n    // get royalties amount\r\n    function getPriceAfterPercent(\r\n        uint256 price,\r\n        uint256 quantity,\r\n        uint256 percent\r\n    ) public pure returns (uint256) {\r\n        uint256 _percent = percent;\r\n        return ((price * quantity) * _percent) / 100;\r\n    }\r\n\r\n    // Called by NFT contract\r\n    function initializeItem(\r\n        address nftContract,\r\n        uint256 tokenId,\r\n        address creator,\r\n        uint256 royalty\r\n    ) public {\r\n        require(\r\n            initialItems[nftContract][tokenId].creator == address(0x0),\r\n            \"Already initialized\"\r\n        );\r\n        initialItems[nftContract][tokenId] = InitialItem(royalty, creator);\r\n    }\r\n\r\n    function getLatestListItemId() public view returns (uint256) {\r\n        return _listingIds.current();\r\n    }\r\n\r\n    function addFrontDataForListingId(\r\n        uint256 listingId,\r\n        FrontData memory frontData\r\n    ) internal {\r\n        FrontData storage newFrontData = listingIdToFrontData[listingId];\r\n        newFrontData.name = frontData.name;\r\n        newFrontData.description = frontData.description;\r\n        newFrontData.imageUrl = frontData.imageUrl;\r\n        newFrontData.previewImageUrl = frontData.previewImageUrl;\r\n        newFrontData.multiple = frontData.multiple;\r\n        newFrontData.collectionId = frontData.collectionId;\r\n        newFrontData.category = frontData.category;\r\n        for (uint256 i = 0; i < frontData.attributes.length; i++) {\r\n            Attribute memory attribute = frontData.attributes[i];\r\n            newFrontData.attributes.push(attribute);\r\n        }\r\n    }\r\n\r\n    /* Places an item for sale on the marketplace */\r\n    function createSimpleMarketItem(\r\n        address nftContract,\r\n        uint256 tokenId,\r\n        uint256 price,\r\n        uint256 quantity,\r\n        FrontData memory frontData\r\n    ) public nonReentrant {\r\n        require(price > 0, \"Price must be at least 1 wei\");\r\n        require(quantity > 0, \"Have to provide some quantity\");\r\n        require(\r\n            userListedTokens[msg.sender][nftContract][tokenId] == 0,\r\n            \"A listing already exists for the token\"\r\n        );\r\n\r\n        _listingIds.increment();\r\n        uint256 listingId = _listingIds.current();\r\n\r\n        simpleListingIdToMarketItem[listingId] = SimpleMarketItem(\r\n            nftContract,\r\n            tokenId,\r\n            price,\r\n            quantity,\r\n            quantity,\r\n            msg.sender\r\n        );\r\n\r\n        userListedTokens[msg.sender][nftContract][tokenId] = quantity;\r\n\r\n        // transfer from the seller to here (the market contract)\r\n        IERC1155(nftContract).safeTransferFrom(\r\n            msg.sender,\r\n            address(this),\r\n            tokenId,\r\n            quantity,\r\n            \"\"\r\n        );\r\n        uint256 royalty = initialItems[nftContract][tokenId].royalty;\r\n        address creator = initialItems[nftContract][tokenId].creator;\r\n\r\n        addFrontDataForListingId(listingId, frontData);\r\n        emit SimpleMarketItemCreated(\r\n            listingId,\r\n            nftContract,\r\n            tokenId,\r\n            price,\r\n            creator,\r\n            royalty,\r\n            quantity,\r\n            msg.sender,\r\n            frontData\r\n        );\r\n    }\r\n\r\n    function createAuctionMarketItem(\r\n        address nftContract,\r\n        uint256 tokenId,\r\n        uint256 startPrice,\r\n        uint256 deadline,\r\n        FrontData memory frontData\r\n    ) public nonReentrant {\r\n        require(deadline > block.timestamp, \"Deadline must be in the future\");\r\n        require(\r\n            userListedTokens[msg.sender][nftContract][tokenId] == 0,\r\n            \"A listing already exists for the token\"\r\n        );\r\n        _listingIds.increment();\r\n        uint256 listingId = _listingIds.current();\r\n\r\n        auctionListingIdToMarketItem[listingId] = AuctionMarketItem(\r\n            nftContract,\r\n            tokenId,\r\n            startPrice,\r\n            startPrice,\r\n            address(0x0),\r\n            msg.sender,\r\n            deadline,\r\n            false\r\n        );\r\n\r\n        userListedTokens[msg.sender][nftContract][tokenId] = 1;\r\n\r\n        // transfer from the seller to here (the market contract)\r\n        IERC1155(nftContract).safeTransferFrom(\r\n            msg.sender,\r\n            address(this),\r\n            tokenId,\r\n            1,\r\n            \"\"\r\n        );\r\n        addFrontDataForListingId(listingId, frontData);\r\n        uint256 royalty = initialItems[nftContract][tokenId].royalty;\r\n        address creator = initialItems[nftContract][tokenId].creator;\r\n        emit AuctionMarketItemCreated(\r\n            listingId,\r\n            nftContract,\r\n            tokenId,\r\n            startPrice,\r\n            deadline,\r\n            creator,\r\n            royalty,\r\n            msg.sender,\r\n            frontData\r\n        );\r\n    }\r\n\r\n    /* Creates the sale of a simple marketplace item */\r\n    /* Transfers ownership of the item, as well as funds between parties */\r\n    function buySimple(\r\n        // ===> buying\r\n        uint256 listingId,\r\n        uint256 quantity\r\n    ) public payable nonReentrant {\r\n        SimpleMarketItem storage marketItem = simpleListingIdToMarketItem[\r\n            listingId\r\n        ];\r\n\r\n        require(quantity > 0, \"Have to buy something\");\r\n        require(\r\n            quantity <= marketItem.remainingQuantity,\r\n            \"Not enough items for sale\"\r\n        );\r\n\r\n        uint256 commission = getPriceAfterPercent(\r\n            marketItem.price,\r\n            quantity,\r\n            commissionPercent\r\n        );\r\n\r\n        require(\r\n            msg.value == (marketItem.price * quantity) + commission,\r\n            \"Please submit the asking price in order to complete the purchase\"\r\n        );\r\n\r\n        marketItem.remainingQuantity -= quantity;\r\n\r\n        InitialItem memory item = initialItems[marketItem.nftContract][\r\n            marketItem.tokenId\r\n        ];\r\n        if (item.royalty > 0 && item.creator != address(0x0)) {\r\n            uint256 creatorRoyalty = getPriceAfterPercent(\r\n                marketItem.price,\r\n                quantity,\r\n                item.royalty\r\n            );\r\n\r\n            sendAssets(item.creator, creatorRoyalty);\r\n            sendAssets(\r\n                marketItem.ownerAddress,\r\n                marketItem.price * quantity - creatorRoyalty\r\n            );\r\n        } else {\r\n            sendAssets(marketItem.ownerAddress, marketItem.price * quantity);\r\n        }\r\n\r\n        // pay commission to the market place\r\n        sendAssets(owner, commission);\r\n\r\n        userListedTokens[marketItem.ownerAddress][marketItem.nftContract][\r\n            marketItem.tokenId\r\n        ] = marketItem.remainingQuantity;\r\n\r\n        // transfer the nft fron here to the buyer\r\n        IERC1155(marketItem.nftContract).safeTransferFrom(\r\n            address(this),\r\n            msg.sender,\r\n            marketItem.tokenId,\r\n            quantity,\r\n            \"0x0\"\r\n        );\r\n        emit BuySimpleEvent(\r\n            listingId,\r\n            marketItem.tokenId,\r\n            item.creator,\r\n            marketItem.ownerAddress,\r\n            msg.sender,\r\n            marketItem.price,\r\n            quantity,\r\n            item.royalty,\r\n            listingIdToFrontData[listingId]\r\n        );\r\n    }\r\n\r\n    function bid(uint256 listingId) public payable nonReentrant {\r\n        AuctionMarketItem storage marketItem = auctionListingIdToMarketItem[\r\n            listingId\r\n        ];\r\n        require(!marketItem.isClosed, \"Already closed\");\r\n        require(\r\n            msg.sender != marketItem.ownerAddress,\r\n            \"Auction owner can't place bid on his Auction\"\r\n        );\r\n\r\n        uint256 pureBid = (msg.value * 100) / (commissionPercent + 100);\r\n\r\n        require(pureBid > marketItem.currentBid, \"Have to offer higher price\");\r\n        require(block.timestamp < marketItem.deadline, \"The auction has ended\");\r\n        require(!marketItem.isClosed, \"Already closed\");\r\n\r\n        uint256 oldCommission = getPriceAfterPercent(\r\n            marketItem.currentBid,\r\n            1,\r\n            commissionPercent\r\n        );\r\n\r\n        // If someone had placed a bid earlier, return that bid\r\n        if (marketItem.currentBidderAddress != address(0x0)) {\r\n            (bool success, ) = payable(marketItem.currentBidderAddress).call{\r\n                value: marketItem.currentBid + oldCommission,\r\n                gas: 3000\r\n            }(\"\");\r\n            if (!success) {\r\n                // What should happen if the receiver doesn't accept the assets?\r\n            }\r\n        }\r\n\r\n        marketItem.currentBidderAddress = msg.sender;\r\n        marketItem.currentBid = pureBid;\r\n\r\n        emit BidCreated(listingId, msg.sender, pureBid, marketItem.tokenId);\r\n    }\r\n\r\n    // Terminates an auction and settles its result\r\n    function terminateAuction(uint256 listingId) public {\r\n        AuctionMarketItem storage marketItem = auctionListingIdToMarketItem[\r\n            listingId\r\n        ];\r\n        require(!marketItem.isClosed, \"Already closed\");\r\n        require(\r\n            block.timestamp >= marketItem.deadline,\r\n            \"The auction hasn't ended\"\r\n        );\r\n\r\n        InitialItem memory item = initialItems[marketItem.nftContract][\r\n            marketItem.tokenId\r\n        ];\r\n        if (marketItem.currentBidderAddress != address(0x0)) {\r\n            uint256 commission = getPriceAfterPercent(\r\n                marketItem.currentBid,\r\n                1,\r\n                commissionPercent\r\n            );\r\n\r\n            if (item.royalty > 0 && item.creator != address(0x0)) {\r\n                uint256 creatorRoyalty = getPriceAfterPercent(\r\n                    marketItem.currentBid,\r\n                    1,\r\n                    item.royalty\r\n                );\r\n                sendAssets(item.creator, creatorRoyalty);\r\n                sendAssets(\r\n                    marketItem.ownerAddress,\r\n                    marketItem.currentBid - creatorRoyalty\r\n                );\r\n            } else {\r\n                sendAssets(marketItem.ownerAddress, marketItem.currentBid);\r\n            }\r\n\r\n            // pay commission to the market place\r\n            sendAssets(owner, commission);\r\n\r\n            // transfer the nft fron here to the buyer\r\n            IERC1155(marketItem.nftContract).safeTransferFrom(\r\n                address(this),\r\n                marketItem.currentBidderAddress,\r\n                marketItem.tokenId,\r\n                1,\r\n                \"0x0\"\r\n            );\r\n        } else {\r\n            // no bidders\r\n            // transfer the nft from here to the original owner\r\n            IERC1155(marketItem.nftContract).safeTransferFrom(\r\n                address(this),\r\n                marketItem.ownerAddress,\r\n                marketItem.tokenId,\r\n                1,\r\n                \"0x0\"\r\n            );\r\n        }\r\n        userListedTokens[marketItem.ownerAddress][marketItem.nftContract][\r\n            marketItem.tokenId\r\n        ] = 0;\r\n        marketItem.isClosed = true;\r\n\r\n        emit TerminateAuctionEvent(\r\n            listingId,\r\n            marketItem.tokenId,\r\n            item.creator,\r\n            marketItem.ownerAddress,\r\n            marketItem.currentBidderAddress,\r\n            msg.sender,\r\n            item.royalty,\r\n            listingIdToFrontData[listingId]\r\n        );\r\n    }\r\n\r\n    function cancelAuctionListing(uint256 listingId) public {\r\n        AuctionMarketItem storage marketItem = auctionListingIdToMarketItem[\r\n            listingId\r\n        ];\r\n        require(marketItem.deadline > 0, \"Can cancel only auctions\");\r\n        require(marketItem.ownerAddress == msg.sender, \"Only owner can cancel\");\r\n        require(!marketItem.isClosed, \"Already closed\");\r\n        require(\r\n            marketItem.currentBidderAddress == address(0x0),\r\n            \"Can't cancel an auction if there are bids\"\r\n        );\r\n\r\n        marketItem.isClosed = true;\r\n\r\n        // getting the nft back\r\n        IERC1155(marketItem.nftContract).safeTransferFrom(\r\n            address(this),\r\n            marketItem.ownerAddress,\r\n            marketItem.tokenId,\r\n            1,\r\n            \"0x0\"\r\n        );\r\n\r\n        userListedTokens[marketItem.ownerAddress][marketItem.nftContract][\r\n            marketItem.tokenId\r\n        ] = 0;\r\n\r\n        InitialItem memory item = initialItems[marketItem.nftContract][\r\n            marketItem.tokenId\r\n        ];\r\n        emit CancelAuctionEvent(\r\n            listingId,\r\n            marketItem.tokenId,\r\n            item.creator,\r\n            marketItem.ownerAddress,\r\n            item.royalty,\r\n            listingIdToFrontData[listingId]\r\n        );\r\n    }\r\n\r\n    function cancelSimpleListing(uint256 listingId) public {\r\n        SimpleMarketItem storage marketItem = simpleListingIdToMarketItem[\r\n            listingId\r\n        ];\r\n        require(\r\n            marketItem.originalQuantity > 0,\r\n            \"Can cancel only simple listings\"\r\n        );\r\n        require(marketItem.ownerAddress == msg.sender, \"Only owner can cancel\");\r\n        require(marketItem.remainingQuantity > 0, \"There is nothing to cancel\");\r\n\r\n        // should add another require marketItem.remainingQuantity > 0,\r\n        // in case nothing is to cancel\r\n\r\n        uint256 remaining = marketItem.remainingQuantity;\r\n        marketItem.remainingQuantity = 0;\r\n\r\n        // getting the nft back\r\n        IERC1155(marketItem.nftContract).safeTransferFrom(\r\n            address(this),\r\n            marketItem.ownerAddress,\r\n            marketItem.tokenId,\r\n            remaining,\r\n            \"0x0\"\r\n        );\r\n\r\n        userListedTokens[marketItem.ownerAddress][marketItem.nftContract][\r\n            marketItem.tokenId\r\n        ] = 0;\r\n        InitialItem memory item = initialItems[marketItem.nftContract][\r\n            marketItem.tokenId\r\n        ];\r\n\r\n        emit CancelSimpleEvent(\r\n            listingId,\r\n            marketItem.tokenId,\r\n            item.creator,\r\n            marketItem.ownerAddress,\r\n            marketItem.remainingQuantity,\r\n            item.royalty,\r\n            listingIdToFrontData[listingId]\r\n        );\r\n    }\r\n\r\n    function sendAssets(address receiver, uint256 amount) internal {\r\n        (bool success, ) = payable(receiver).call{value: amount, gas: 3000}(\"\");\r\n        if (!success) {\r\n            // What should happen if the receiver doesn't accept the assets? Probably just ignore it?\r\n        }\r\n    }\r\n\r\n    // owner withdraw money. The contract is useless after this. Unsure if you want this.\r\n    function withdraw() public {\r\n        require(address(this).balance > 0, \"balance is 0\");\r\n        require(owner == msg.sender, \"Only owner can withdraw\");\r\n        sendAssets(owner, address(this).balance);\r\n    }\r\n\r\n    function onERC1155Received(\r\n        address,\r\n        address,\r\n        uint256,\r\n        uint256,\r\n        bytes memory\r\n    ) public virtual returns (bytes4) {\r\n        return this.onERC1155Received.selector;\r\n    }\r\n\r\n    function onERC1155BatchReceived(\r\n        address,\r\n        address,\r\n        uint256[] memory,\r\n        uint256[] memory,\r\n        bytes memory\r\n    ) public virtual returns (bytes4) {\r\n        return this.onERC1155BatchReceived.selector;\r\n    }\r\n}\r\n",
  "sourcePath": "E:\\Dev\\2022-4-25-pulsechain-nft\\nft-front-grey\\src\\contracts\\NFTMarket.sol",
  "compiler": {
    "name": "solc",
    "version": "0.8.4+commit.c7e474f2.Emscripten.clang"
  },
  "schemaVersion": "3.4.4",
  "updatedAt": "2022-06-29T11:28:45.155Z",
  "networkType": "ethereum",
  "devdoc": {
    "kind": "dev",
    "methods": {},
    "version": 1
  },
  "userdoc": {
    "kind": "user",
    "methods": {},
    "version": 1
  }
}